{
  "contractName": "AuthorModule",
  "abi": [
    {
      "constant": true,
      "inputs": [],
      "name": "Center_",
      "outputs": [
        {
          "name": "",
          "type": "address"
        }
      ],
      "payable": false,
      "stateMutability": "view",
      "type": "function"
    },
    {
      "constant": true,
      "inputs": [],
      "name": "Info_",
      "outputs": [
        {
          "name": "",
          "type": "address"
        }
      ],
      "payable": false,
      "stateMutability": "view",
      "type": "function"
    },
    {
      "inputs": [
        {
          "name": "_center",
          "type": "address"
        },
        {
          "name": "_info",
          "type": "address"
        }
      ],
      "payable": false,
      "stateMutability": "nonpayable",
      "type": "constructor"
    },
    {
      "anonymous": false,
      "inputs": [
        {
          "indexed": false,
          "name": "_errorNumber",
          "type": "uint8"
        }
      ],
      "name": "LogError",
      "type": "event"
    },
    {
      "constant": false,
      "inputs": [
        {
          "name": "_udfs",
          "type": "string"
        },
        {
          "name": "_price",
          "type": "uint256"
        },
        {
          "name": "_type",
          "type": "uint8"
        }
      ],
      "name": "publish",
      "outputs": [
        {
          "name": "",
          "type": "bool"
        }
      ],
      "payable": true,
      "stateMutability": "payable",
      "type": "function"
    },
    {
      "constant": true,
      "inputs": [],
      "name": "getClaimDeposit",
      "outputs": [
        {
          "name": "",
          "type": "uint256"
        }
      ],
      "payable": false,
      "stateMutability": "view",
      "type": "function"
    },
    {
      "constant": false,
      "inputs": [
        {
          "name": "_claimId",
          "type": "bytes16"
        },
        {
          "name": "_newUdfs",
          "type": "string"
        },
        {
          "name": "_newPrice",
          "type": "uint256"
        }
      ],
      "name": "updateClaim",
      "outputs": [
        {
          "name": "",
          "type": "bool"
        }
      ],
      "payable": false,
      "stateMutability": "nonpayable",
      "type": "function"
    },
    {
      "constant": false,
      "inputs": [
        {
          "name": "_claimId",
          "type": "bytes16"
        }
      ],
      "name": "abandonClaim",
      "outputs": [
        {
          "name": "",
          "type": "bool"
        }
      ],
      "payable": false,
      "stateMutability": "nonpayable",
      "type": "function"
    },
    {
      "constant": false,
      "inputs": [
        {
          "name": "_claimId",
          "type": "bytes16"
        },
        {
          "name": "_newPrice",
          "type": "uint256"
        }
      ],
      "name": "updateClaimPrice",
      "outputs": [
        {
          "name": "",
          "type": "bool"
        }
      ],
      "payable": false,
      "stateMutability": "nonpayable",
      "type": "function"
    },
    {
      "constant": false,
      "inputs": [
        {
          "name": "_claimId",
          "type": "bytes16"
        },
        {
          "name": "_newAuthor",
          "type": "address"
        }
      ],
      "name": "transferClaim",
      "outputs": [
        {
          "name": "",
          "type": "bool"
        }
      ],
      "payable": false,
      "stateMutability": "nonpayable",
      "type": "function"
    },
    {
      "constant": true,
      "inputs": [],
      "name": "myClaims",
      "outputs": [
        {
          "name": "",
          "type": "bytes16[]"
        }
      ],
      "payable": false,
      "stateMutability": "view",
      "type": "function"
    },
    {
      "constant": true,
      "inputs": [
        {
          "name": "_author",
          "type": "address"
        }
      ],
      "name": "claimsByAddress",
      "outputs": [
        {
          "name": "",
          "type": "bytes16[]"
        }
      ],
      "payable": false,
      "stateMutability": "view",
      "type": "function"
    },
    {
      "constant": true,
      "inputs": [
        {
          "name": "_claimId",
          "type": "bytes16"
        }
      ],
      "name": "consumerByClaim",
      "outputs": [
        {
          "name": "",
          "type": "address[]"
        }
      ],
      "payable": false,
      "stateMutability": "view",
      "type": "function"
    },
    {
      "constant": true,
      "inputs": [
        {
          "name": "_claimID",
          "type": "bytes16"
        }
      ],
      "name": "findClaimInfo",
      "outputs": [
        {
          "name": "author",
          "type": "address"
        },
        {
          "name": "udfs",
          "type": "string"
        },
        {
          "name": "initDate",
          "type": "uint256"
        },
        {
          "name": "deposit",
          "type": "uint256"
        },
        {
          "name": "price",
          "type": "uint256"
        },
        {
          "name": "waive",
          "type": "bool"
        },
        {
          "name": "types",
          "type": "uint8"
        }
      ],
      "payable": false,
      "stateMutability": "view",
      "type": "function"
    },
    {
      "constant": true,
      "inputs": [
        {
          "name": "_orderId",
          "type": "bytes32"
        }
      ],
      "name": "findOrderInfo",
      "outputs": [
        {
          "name": "time",
          "type": "uint256"
        },
        {
          "name": "price",
          "type": "uint256"
        },
        {
          "name": "cost",
          "type": "uint256"
        },
        {
          "name": "customer",
          "type": "address"
        },
        {
          "name": "payer",
          "type": "address"
        },
        {
          "name": "claimId",
          "type": "bytes16"
        }
      ],
      "payable": false,
      "stateMutability": "view",
      "type": "function"
    }
  ],
  "bytecode": "0x608060405234801561001057600080fd5b506040516040806119e18339810180604052810190808051906020019092919080519060200190929190505050816000806101000a81548173ffffffffffffffffffffffffffffffffffffffff021916908373ffffffffffffffffffffffffffffffffffffffff16021790555080600160006101000a81548173ffffffffffffffffffffffffffffffffffffffff021916908373ffffffffffffffffffffffffffffffffffffffff1602179055505050611912806100cf6000396000f3006080604052600436106100c5576000357c0100000000000000000000000000000000000000000000000000000000900463ffffffff1680632e090f28146100ca5780633d1ad1e11461012157806344314bd2146101b657806352fda08c1461020e578063555ef0d41461032757806355e416981461037e5780637355a44e146104645780639fef17c1146104d0578063af68f457146104fb578063b6e7561c146105a3578063b71747c514610605578063c1a881551461067d578063d7a54dca14610708575b600080fd5b3480156100d657600080fd5b506100df6107a0565b604051808273ffffffffffffffffffffffffffffffffffffffff1673ffffffffffffffffffffffffffffffffffffffff16815260200191505060405180910390f35b34801561012d57600080fd5b5061015f60048036038101908080356fffffffffffffffffffffffffffffffff191690602001909291905050506107c5565b6040518080602001828103825283818151815260200191508051906020019060200280838360005b838110156101a2578082015181840152602081019050610187565b505050509050019250505060405180910390f35b3480156101c257600080fd5b506101f460048036038101908080356fffffffffffffffffffffffffffffffff19169060200190929190505050610916565b604051808215151515815260200191505060405180910390f35b34801561021a57600080fd5b5061024c60048036038101908080356fffffffffffffffffffffffffffffffff19169060200190929190505050610a51565b604051808873ffffffffffffffffffffffffffffffffffffffff1673ffffffffffffffffffffffffffffffffffffffff16815260200180602001878152602001868152602001858152602001841515151581526020018360ff1660ff168152602001828103825288818151815260200191508051906020019080838360005b838110156102e65780820151818401526020810190506102cb565b50505050905090810190601f1680156103135780820380516001836020036101000a031916815260200191505b509850505050505050505060405180910390f35b34801561033357600080fd5b5061033c610bfc565b604051808273ffffffffffffffffffffffffffffffffffffffff1673ffffffffffffffffffffffffffffffffffffffff16815260200191505060405180910390f35b34801561038a57600080fd5b506103ad6004803603810190808035600019169060200190929190505050610c22565b604051808781526020018681526020018581526020018473ffffffffffffffffffffffffffffffffffffffff1673ffffffffffffffffffffffffffffffffffffffff1681526020018373ffffffffffffffffffffffffffffffffffffffff1673ffffffffffffffffffffffffffffffffffffffff168152602001826fffffffffffffffffffffffffffffffff19166fffffffffffffffffffffffffffffffff19168152602001965050505050505060405180910390f35b34801561047057600080fd5b50610479610d45565b6040518080602001828103825283818151815260200191508051906020019060200280838360005b838110156104bc5780820151818401526020810190506104a1565b505050509050019250505060405180910390f35b3480156104dc57600080fd5b506104e5610d55565b6040518082815260200191505060405180910390f35b34801561050757600080fd5b5061058960048036038101908080356fffffffffffffffffffffffffffffffff19169060200190929190803590602001908201803590602001908080601f016020809104026020016040519081016040528093929190818152602001838380828437820191505050505050919291929080359060200190929190505050610e1c565b604051808215151515815260200191505060405180910390f35b3480156105af57600080fd5b506105eb60048036038101908080356fffffffffffffffffffffffffffffffff1916906020019092919080359060200190929190505050611024565b604051808215151515815260200191505060405180910390f35b34801561061157600080fd5b5061066360048036038101908080356fffffffffffffffffffffffffffffffff19169060200190929190803573ffffffffffffffffffffffffffffffffffffffff16906020019092919050505061115b565b604051808215151515815260200191505060405180910390f35b6106ee600480360381019080803590602001908201803590602001908080601f016020809104026020016040519081016040528093929190818152602001838380828437820191505050505050919291929080359060200190929190803560ff1690602001909291905050506112be565b604051808215151515815260200191505060405180910390f35b34801561071457600080fd5b50610749600480360381019080803573ffffffffffffffffffffffffffffffffffffffff1690602001909291905050506115ff565b6040518080602001828103825283818151815260200191508051906020019060200280838360005b8381101561078c578082015181840152602081019050610771565b505050509050019250505060405180910390f35b6000809054906101000a900473ffffffffffffffffffffffffffffffffffffffff1681565b6060600160009054906101000a900473ffffffffffffffffffffffffffffffffffffffff1673ffffffffffffffffffffffffffffffffffffffff1663f4dbfc97836040518263ffffffff167c010000000000000000000000000000000000000000000000000000000002815260040180826fffffffffffffffffffffffffffffffff19166fffffffffffffffffffffffffffffffff19168152602001915050600060405180830381600087803b15801561087e57600080fd5b505af1158015610892573d6000803e3d6000fd5b505050506040513d6000823e3d601f19601f8201168201806040525060208110156108bc57600080fd5b8101908080516401000000008111156108d457600080fd5b828101905060208101848111156108ea57600080fd5b815185602082028301116401000000008211171561090757600080fd5b50509291905050509050919050565b60008060009054906101000a900473ffffffffffffffffffffffffffffffffffffffff1673ffffffffffffffffffffffffffffffffffffffff1663c05465d7833360016040518463ffffffff167c010000000000000000000000000000000000000000000000000000000002815260040180846fffffffffffffffffffffffffffffffff19166fffffffffffffffffffffffffffffffff191681526020018373ffffffffffffffffffffffffffffffffffffffff1673ffffffffffffffffffffffffffffffffffffffff168152602001821515151581526020019350505050602060405180830381600087803b158015610a0f57600080fd5b505af1158015610a23573d6000803e3d6000fd5b505050506040513d6020811015610a3957600080fd5b81019080805190602001909291905050509050919050565b6000606060008060008060008060009054906101000a900473ffffffffffffffffffffffffffffffffffffffff1673ffffffffffffffffffffffffffffffffffffffff166315f478fe896040518263ffffffff167c010000000000000000000000000000000000000000000000000000000002815260040180826fffffffffffffffffffffffffffffffff19166fffffffffffffffffffffffffffffffff19168152602001915050600060405180830381600087803b158015610b1357600080fd5b505af1158015610b27573d6000803e3d6000fd5b505050506040513d6000823e3d601f19601f8201168201806040525060e0811015610b5157600080fd5b81019080805190602001909291908051640100000000811115610b7357600080fd5b82810190506020810184811115610b8957600080fd5b8151856001820283011164010000000082111715610ba657600080fd5b505092919060200180519060200190929190805190602001909291908051906020019092919080519060200190929190805190602001909291905050509650965096509650965096509650919395979092949650565b600160009054906101000a900473ffffffffffffffffffffffffffffffffffffffff1681565b6000806000806000806000809054906101000a900473ffffffffffffffffffffffffffffffffffffffff1673ffffffffffffffffffffffffffffffffffffffff1663024663f7886040518263ffffffff167c010000000000000000000000000000000000000000000000000000000002815260040180826000191660001916815260200191505060c060405180830381600087803b158015610cc357600080fd5b505af1158015610cd7573d6000803e3d6000fd5b505050506040513d60c0811015610ced57600080fd5b8101908080519060200190929190805190602001909291908051906020019092919080519060200190929190805190602001909291908051906020019092919050505095509550955095509550955091939550919395565b6060610d50336115ff565b905090565b60008060009054906101000a900473ffffffffffffffffffffffffffffffffffffffff1673ffffffffffffffffffffffffffffffffffffffff16639262db3f6040518163ffffffff167c0100000000000000000000000000000000000000000000000000000000028152600401602060405180830381600087803b158015610ddc57600080fd5b505af1158015610df0573d6000803e3d6000fd5b505050506040513d6020811015610e0657600080fd5b8101908080519060200190929190505050905090565b6000801515610e2a84611756565b15151415610e81577f0489f2369368f4688acd012107ac5a7d98ca739b913449d852f35d871e433cc360056040518082601e811115610e6557fe5b60ff16815260200191505060405180910390a16000905061101d565b6000809054906101000a900473ffffffffffffffffffffffffffffffffffffffff1673ffffffffffffffffffffffffffffffffffffffff1663fa86de41853386866040518563ffffffff167c010000000000000000000000000000000000000000000000000000000002815260040180856fffffffffffffffffffffffffffffffff19166fffffffffffffffffffffffffffffffff191681526020018473ffffffffffffffffffffffffffffffffffffffff1673ffffffffffffffffffffffffffffffffffffffff16815260200180602001838152602001828103825284818151815260200191508051906020019080838360005b83811015610f91578082015181840152602081019050610f76565b50505050905090810190601f168015610fbe5780820380516001836020036101000a031916815260200191505b5095505050505050602060405180830381600087803b158015610fe057600080fd5b505af1158015610ff4573d6000803e3d6000fd5b505050506040513d602081101561100a57600080fd5b8101908080519060200190929190505050505b9392505050565b60008060009054906101000a900473ffffffffffffffffffffffffffffffffffffffff1673ffffffffffffffffffffffffffffffffffffffff1663173fff828433856040518463ffffffff167c010000000000000000000000000000000000000000000000000000000002815260040180846fffffffffffffffffffffffffffffffff19166fffffffffffffffffffffffffffffffff191681526020018373ffffffffffffffffffffffffffffffffffffffff1673ffffffffffffffffffffffffffffffffffffffff1681526020018281526020019350505050602060405180830381600087803b15801561111857600080fd5b505af115801561112c573d6000803e3d6000fd5b505050506040513d602081101561114257600080fd5b8101908080519060200190929190505050905092915050565b60008060009054906101000a900473ffffffffffffffffffffffffffffffffffffffff1673ffffffffffffffffffffffffffffffffffffffff16632cc576bb8433856040518463ffffffff167c010000000000000000000000000000000000000000000000000000000002815260040180846fffffffffffffffffffffffffffffffff19166fffffffffffffffffffffffffffffffff191681526020018373ffffffffffffffffffffffffffffffffffffffff1673ffffffffffffffffffffffffffffffffffffffff1681526020018273ffffffffffffffffffffffffffffffffffffffff1673ffffffffffffffffffffffffffffffffffffffff1681526020019350505050602060405180830381600087803b15801561127b57600080fd5b505af115801561128f573d6000803e3d6000fd5b505050506040513d60208110156112a557600080fd5b8101908080519060200190929190505050905092915050565b600080600015156112ce86611756565b15151415611325577f0489f2369368f4688acd012107ac5a7d98ca739b913449d852f35d871e433cc360056040518082601e81111561130957fe5b60ff16815260200191505060405180910390a1600091506115f7565b61132d610d55565b90506000811415156113915780341015611390577f0489f2369368f4688acd012107ac5a7d98ca739b913449d852f35d871e433cc3600d6040518082601e81111561137457fe5b60ff16815260200191505060405180910390a1600091506115f7565b5b6000809054906101000a900473ffffffffffffffffffffffffffffffffffffffff1673ffffffffffffffffffffffffffffffffffffffff16636c1533488633878760016040518663ffffffff167c010000000000000000000000000000000000000000000000000000000002815260040180806020018673ffffffffffffffffffffffffffffffffffffffff1673ffffffffffffffffffffffffffffffffffffffff1681526020018581526020018460ff1660ff16815260200183151515158152602001828103825287818151815260200191508051906020019080838360005b8381101561148d578082015181840152602081019050611472565b50505050905090810190601f1680156114ba5780820380516001836020036101000a031916815260200191505b509650505050505050602060405180830381600087803b1580156114dd57600080fd5b505af11580156114f1573d6000803e3d6000fd5b505050506040513d602081101561150757600080fd5b8101908080519060200190929190505050156115f2576000811415156115e9576000809054906101000a900473ffffffffffffffffffffffffffffffffffffffff1673ffffffffffffffffffffffffffffffffffffffff166108fc829081150290604051600060405180830381858888f1935050505015801561158e573d6000803e3d6000fd5b503373ffffffffffffffffffffffffffffffffffffffff166108fc6115bc83346118cd90919063ffffffff16565b9081150290604051600060405180830381858888f193505050501580156115e7573d6000803e3d6000fd5b505b600191506115f7565b600091505b509392505050565b6060600160009054906101000a900473ffffffffffffffffffffffffffffffffffffffff1673ffffffffffffffffffffffffffffffffffffffff1663faf7216f836040518263ffffffff167c0100000000000000000000000000000000000000000000000000000000028152600401808273ffffffffffffffffffffffffffffffffffffffff1673ffffffffffffffffffffffffffffffffffffffff168152602001915050600060405180830381600087803b1580156116be57600080fd5b505af11580156116d2573d6000803e3d6000fd5b505050506040513d6000823e3d601f19601f8201168201806040525060208110156116fc57600080fd5b81019080805164010000000081111561171457600080fd5b8281019050602081018481111561172a57600080fd5b815185602082028301116401000000008211171561174757600080fd5b50509291905050509050919050565b60006060829050602e815114801561180b575060517f01000000000000000000000000000000000000000000000000000000000000000281600081518110151561179c57fe5b9060200101517f010000000000000000000000000000000000000000000000000000000000000090047f0100000000000000000000000000000000000000000000000000000000000000027effffffffffffffffffffffffffffffffffffffffffffffffffffffffffffff1916145b80156118b45750606d7f01000000000000000000000000000000000000000000000000000000000000000281600181518110151561184557fe5b9060200101517f010000000000000000000000000000000000000000000000000000000000000090047f0100000000000000000000000000000000000000000000000000000000000000027effffffffffffffffffffffffffffffffffffffffffffffffffffffffffffff1916145b156118c257600191506118c7565b600091505b50919050565b60008282111515156118db57fe5b8183039050929150505600a165627a7a72305820dd4cf5d45ce8ab2119858491c6cfbbd7da51a84fe8d765cf73890a549fa7c90a0029",
  "source": "pragma solidity ^0.4.24;\n\nimport \"./CenterControl.sol\";\nimport \"./ErrorModule.sol\";\nimport \"./InfoDB.sol\";\nimport \"./SafeMath.sol\";\n\ncontract AuthorModule is ErrorModule{\n    using SafeMath for uint256;\n\n    CenterControl public Center_;\n    InfoDB public Info_;\n\n    /**\n     * @dev 构造函数\n     * @param _center address : 中心合约地址\n     * @param _info   address : 信息数据合约地址\n     */\n    constructor (address _center, address _info) public {\n        Center_ = CenterControl(_center);\n        Info_   = InfoDB(_info);\n    }\n\n\n    /**\n     * @dev 声明一个新的资源\n     * @dev 扣取押金到资源池，调用中心出版社接口，发布资源。\n     * @param _udfs      string  : 资源的UDFS Hash值\n     * @param _price     uint256 : 资源的定价，0表示免费\n     * @param _type      uint8   : 资源的类型\n     * @return           bool    : 操作成功返回 true\n     */\n    function publish(string _udfs, uint256 _price, uint8 _type)\n        public\n        payable\n        returns(bool)\n    {\n        if(_hashFilter(_udfs) == false){\n            emit LogError(RScorr.InvalidUdfs);\n            return false;\n        }\n\n        //uint256 _value = msg.value;\n        uint256 _deposit = getClaimDeposit();\n\n        if (_deposit != 0){\n            if(msg.value < _deposit){\n                emit LogError(RScorr.Insolvent);\n                return false;\n            }\n        }\n\n        //向中心出版社发布一个资源， 这种方式是由平台层发布资源。\n        //return Center_.createClaim(_udfs, msg.sender, _price, _type, true);\n        if (Center_.createClaim(_udfs, msg.sender, _price, _type, true)){\n            if (_deposit != 0){\n                address(Center_).transfer(_deposit);           // 收押金\n                msg.sender.transfer(msg.value.sub(_deposit)); // 退回多余的GAS\n            }\n            return true;\n        }else{\n            return false;\n        }\n    }\n\n\n    function getClaimDeposit() view public returns(uint256){\n        return Center_.claimDeposit_();\n    }\n\n    /**\n     * @dev 更新一个属于自己的资源的内容和价格\n     * @param _claimId  bytes16 : 资源的索引\n     * @param _newUdfs  string  : 新的udfs\n     * @param _newPrice uint256 : 新的价格\n     * @return          bool    : 操作成功返回 true\n     */\n    function updateClaim(bytes16 _claimId, string _newUdfs, uint256 _newPrice) public returns(bool){\n        if(_hashFilter(_newUdfs) == false){\n            emit LogError(RScorr.InvalidUdfs);\n            return false;\n        }\n\n        Center_.updateClaim(_claimId, msg.sender,  _newUdfs, _newPrice);\n    }\n\n    /**\n     * @dev 放弃一个属于自己的资源\n     * @param _claimId bytes16 : 资源的索引\n     * @return         bool    : 操作成功返回 true\n     */\n    function abandonClaim(bytes16 _claimId) public returns(bool){\n        return Center_.updateClaimWaive(_claimId, msg.sender, true);\n    }\n\n    /**\n     * @dev 更新价格。\n     * @param _claimId   bytes16 : 资源的索引\n     * @param _newPrice  uint256 : 新的价格\n     * @return           bool    : 操作成功返回 true\n     */\n    function updateClaimPrice(bytes16 _claimId, uint256 _newPrice) public returns(bool){\n        return Center_.updateClaimPrice(_claimId, msg.sender, _newPrice);\n    }\n\n    /**\n     * @dev 转让属于自己的资源。\n     * @param _claimId    bytes16 : 资源的索引\n     * @param _newAuthor  address : 新作者\n     * @return            bool    : 操作成功返回 true\n     */\n    function transferClaim(bytes16 _claimId, address _newAuthor) public returns(bool){\n        return Center_.updateClaimAuthor(_claimId, msg.sender, _newAuthor);\n    }\n\n    /////////////////////////\n    /// View\n    /////////////////////////\n\n    /**\n     * @dev 查询调用者发布过的所有资源\n     * @return bytes16[] :由claimId组成的列表\n     */\n    function myClaims()\n        view public returns(bytes16[])\n    {\n        return claimsByAddress(msg.sender);\n    }\n\n    /**\n     * @dev 查询指定地址发布过的所有资源\n     * @return  bytes16[] :由claimId组成的列表\n     */\n    function claimsByAddress(address _author)\n        view public returns(bytes16[])\n    {\n        return Info_.getClaimsByAuthor(_author);\n    }\n\n    /**\n     * @dev 查询资源的所有购买者地址\n     * @return address[] :由购买者地址组成的列表\n     */\n    function consumerByClaim(bytes16 _claimId)\n        view public returns(address[])\n    {\n        return Info_.getConsumerByClaim(_claimId);\n    }\n\n    /**\n     * @dev 查询一个资源的详细信息\n     * @param _claimID   bytes16 : 资源id\n     * @return                   : 指定资源的详细信息\n     *           author  address : 归属者\n     *             udfs  string  : UDFS值\n     *         initDate  uint256 : 发布时间\n     *          deposit  uint256 : 押金\n     *            price  uint256 : 定价\n     *            waive  bool    : 作者是否放弃\n     *            types  uint8   : 类型\n     */\n    function findClaimInfo(bytes16 _claimID) public view returns(\n        address author, string  udfs, uint256 initDate, uint256 deposit,\n        uint256 price, bool    waive, uint8   types)\n    {\n        return Center_.getClaimDetails(_claimID);\n    }\n\n    /**\n     * @dev 获取订单的详细信息\n     * @param _orderId bytes32  : 订单ID\n     * @return                  : 订单的详细信息\n     *         time     uint256 : 创建时间\n     *         price    uint256 : 定价\n     *         cost     uint256 : 实际花费\n     *         customer address : 顾客\n     *         payer    address : 支付地址\n     *         claimId  types16 : 商品ID（ClaimID）\n     */\n    function findOrderInfo(bytes32 _orderId) view public returns(\n        uint256 time,     uint256 price,  uint256 cost,\n        address customer, address payer,  bytes16 claimId)\n    {\n        return Center_.getOrderDetails(_orderId);\n    }\n\n\n    ///////////////////////\n    /// Internal Function  \n    //////////////////////\n    \n    /**\n     * @dev 简单的检查一下HASH串的有效性\n     * @param _input string  : 待检测的字符串\n     * @return bool          : 检测通过返回true\n     */\n    function _hashFilter(string _input) pure internal returns(bool){\n        bytes memory _temp = bytes(_input);\n\n        // length == 46 , Qm~\n        if (_temp.length == 46 &&\n            _temp[0] == 0x51   &&\n            _temp[1] == 0x6D   ){\n            return true;\n        }\n        return false;\n    }\n}",
  "sourcePath": "E:\\sol\\blog\\contracts\\AuthorModule.sol",
  "compiler": {
    "name": "solc",
    "version": "0.4.24+commit.e67f0147.Emscripten.clang"
  },
  "schemaVersion": "2.0.1",
  "updatedAt": "2018-08-27T09:46:48.197Z"
}