{
  "contractName": "CenterControl",
  "abi": [
    {
      "constant": true,
      "inputs": [],
      "name": "claimPool_",
      "outputs": [
        {
          "name": "",
          "type": "address"
        }
      ],
      "payable": false,
      "stateMutability": "view",
      "type": "function"
    },
    {
      "constant": true,
      "inputs": [],
      "name": "infoDb_",
      "outputs": [
        {
          "name": "",
          "type": "address"
        }
      ],
      "payable": false,
      "stateMutability": "view",
      "type": "function"
    },
    {
      "constant": false,
      "inputs": [
        {
          "name": "_addresses",
          "type": "address[]"
        }
      ],
      "name": "mulInsertWhite",
      "outputs": [
        {
          "name": "",
          "type": "bool"
        }
      ],
      "payable": false,
      "stateMutability": "nonpayable",
      "type": "function"
    },
    {
      "constant": false,
      "inputs": [
        {
          "name": "_newAdmin",
          "type": "address"
        }
      ],
      "name": "transferAdminship",
      "outputs": [],
      "payable": false,
      "stateMutability": "nonpayable",
      "type": "function"
    },
    {
      "constant": true,
      "inputs": [],
      "name": "orderDb_",
      "outputs": [
        {
          "name": "",
          "type": "address"
        }
      ],
      "payable": false,
      "stateMutability": "view",
      "type": "function"
    },
    {
      "constant": false,
      "inputs": [],
      "name": "renounceOwnership",
      "outputs": [],
      "payable": false,
      "stateMutability": "nonpayable",
      "type": "function"
    },
    {
      "constant": false,
      "inputs": [],
      "name": "acceptOwnership",
      "outputs": [],
      "payable": false,
      "stateMutability": "nonpayable",
      "type": "function"
    },
    {
      "constant": true,
      "inputs": [],
      "name": "owner",
      "outputs": [
        {
          "name": "",
          "type": "address"
        }
      ],
      "payable": false,
      "stateMutability": "view",
      "type": "function"
    },
    {
      "constant": true,
      "inputs": [],
      "name": "claimDeposit_",
      "outputs": [
        {
          "name": "",
          "type": "uint256"
        }
      ],
      "payable": false,
      "stateMutability": "view",
      "type": "function"
    },
    {
      "constant": false,
      "inputs": [
        {
          "name": "_target",
          "type": "address"
        },
        {
          "name": "_allow",
          "type": "bool"
        }
      ],
      "name": "mangeWhiteList",
      "outputs": [
        {
          "name": "",
          "type": "bool"
        }
      ],
      "payable": false,
      "stateMutability": "nonpayable",
      "type": "function"
    },
    {
      "constant": true,
      "inputs": [],
      "name": "claimDb_",
      "outputs": [
        {
          "name": "",
          "type": "address"
        }
      ],
      "payable": false,
      "stateMutability": "view",
      "type": "function"
    },
    {
      "constant": true,
      "inputs": [],
      "name": "newOwner",
      "outputs": [
        {
          "name": "",
          "type": "address"
        }
      ],
      "payable": false,
      "stateMutability": "view",
      "type": "function"
    },
    {
      "constant": true,
      "inputs": [
        {
          "name": "",
          "type": "address"
        }
      ],
      "name": "whitelist_",
      "outputs": [
        {
          "name": "",
          "type": "bool"
        }
      ],
      "payable": false,
      "stateMutability": "view",
      "type": "function"
    },
    {
      "constant": false,
      "inputs": [
        {
          "name": "_newOwner",
          "type": "address"
        }
      ],
      "name": "transferOwnership",
      "outputs": [],
      "payable": false,
      "stateMutability": "nonpayable",
      "type": "function"
    },
    {
      "constant": true,
      "inputs": [],
      "name": "admin",
      "outputs": [
        {
          "name": "",
          "type": "address"
        }
      ],
      "payable": false,
      "stateMutability": "view",
      "type": "function"
    },
    {
      "inputs": [
        {
          "name": "_pool",
          "type": "address"
        },
        {
          "name": "_owner",
          "type": "address"
        }
      ],
      "payable": false,
      "stateMutability": "nonpayable",
      "type": "constructor"
    },
    {
      "payable": true,
      "stateMutability": "payable",
      "type": "fallback"
    },
    {
      "anonymous": false,
      "inputs": [
        {
          "indexed": true,
          "name": "author",
          "type": "address"
        },
        {
          "indexed": false,
          "name": "udfs",
          "type": "string"
        }
      ],
      "name": "LogSimpleClaim",
      "type": "event"
    },
    {
      "anonymous": false,
      "inputs": [
        {
          "indexed": true,
          "name": "_target",
          "type": "address"
        },
        {
          "indexed": false,
          "name": "_allow",
          "type": "bool"
        }
      ],
      "name": "LogWhileChanged",
      "type": "event"
    },
    {
      "anonymous": false,
      "inputs": [
        {
          "indexed": false,
          "name": "_errorNumber",
          "type": "uint8"
        }
      ],
      "name": "LogError",
      "type": "event"
    },
    {
      "anonymous": false,
      "inputs": [
        {
          "indexed": true,
          "name": "_old",
          "type": "address"
        },
        {
          "indexed": true,
          "name": "_new",
          "type": "address"
        }
      ],
      "name": "LogAdminshipTransferred",
      "type": "event"
    },
    {
      "anonymous": false,
      "inputs": [
        {
          "indexed": true,
          "name": "previousOwner",
          "type": "address"
        }
      ],
      "name": "LogOwnershipRenounced",
      "type": "event"
    },
    {
      "anonymous": false,
      "inputs": [
        {
          "indexed": true,
          "name": "previousOwner",
          "type": "address"
        },
        {
          "indexed": true,
          "name": "newOwner",
          "type": "address"
        }
      ],
      "name": "LogOwnershipTransferred",
      "type": "event"
    },
    {
      "constant": false,
      "inputs": [
        {
          "name": "_claim",
          "type": "address"
        },
        {
          "name": "_order",
          "type": "address"
        },
        {
          "name": "_info",
          "type": "address"
        }
      ],
      "name": "initialize",
      "outputs": [
        {
          "name": "",
          "type": "bool"
        }
      ],
      "payable": false,
      "stateMutability": "nonpayable",
      "type": "function"
    },
    {
      "constant": false,
      "inputs": [
        {
          "name": "_udfs",
          "type": "string"
        },
        {
          "name": "_author",
          "type": "address"
        },
        {
          "name": "_price",
          "type": "uint256"
        },
        {
          "name": "_type",
          "type": "uint8"
        },
        {
          "name": "_storage",
          "type": "bool"
        }
      ],
      "name": "createClaim",
      "outputs": [
        {
          "name": "",
          "type": "bool"
        }
      ],
      "payable": false,
      "stateMutability": "nonpayable",
      "type": "function"
    },
    {
      "constant": false,
      "inputs": [
        {
          "name": "_customer",
          "type": "address"
        },
        {
          "name": "_claimId",
          "type": "bytes16"
        },
        {
          "name": "_value",
          "type": "uint256"
        },
        {
          "name": "_payer",
          "type": "address"
        },
        {
          "name": "_price",
          "type": "uint256"
        }
      ],
      "name": "createOrder",
      "outputs": [
        {
          "name": "",
          "type": "bool"
        }
      ],
      "payable": false,
      "stateMutability": "nonpayable",
      "type": "function"
    },
    {
      "constant": false,
      "inputs": [
        {
          "name": "_cid",
          "type": "bytes16"
        },
        {
          "name": "_author",
          "type": "address"
        },
        {
          "name": "_newudfs",
          "type": "string"
        },
        {
          "name": "_newprice",
          "type": "uint256"
        }
      ],
      "name": "updateClaim",
      "outputs": [
        {
          "name": "",
          "type": "bool"
        }
      ],
      "payable": false,
      "stateMutability": "nonpayable",
      "type": "function"
    },
    {
      "constant": false,
      "inputs": [
        {
          "name": "_cid",
          "type": "bytes16"
        },
        {
          "name": "_author",
          "type": "address"
        },
        {
          "name": "_newAuthor",
          "type": "address"
        }
      ],
      "name": "updateClaimAuthor",
      "outputs": [
        {
          "name": "",
          "type": "bool"
        }
      ],
      "payable": false,
      "stateMutability": "nonpayable",
      "type": "function"
    },
    {
      "constant": false,
      "inputs": [
        {
          "name": "_cid",
          "type": "bytes16"
        },
        {
          "name": "_author",
          "type": "address"
        },
        {
          "name": "_newprice",
          "type": "uint256"
        }
      ],
      "name": "updateClaimPrice",
      "outputs": [
        {
          "name": "",
          "type": "bool"
        }
      ],
      "payable": false,
      "stateMutability": "nonpayable",
      "type": "function"
    },
    {
      "constant": false,
      "inputs": [
        {
          "name": "_cid",
          "type": "bytes16"
        },
        {
          "name": "_author",
          "type": "address"
        },
        {
          "name": "_waive",
          "type": "bool"
        }
      ],
      "name": "updateClaimWaive",
      "outputs": [
        {
          "name": "",
          "type": "bool"
        }
      ],
      "payable": false,
      "stateMutability": "nonpayable",
      "type": "function"
    },
    {
      "constant": false,
      "inputs": [
        {
          "name": "_newDeposit",
          "type": "uint256"
        }
      ],
      "name": "setClaimDeposit",
      "outputs": [
        {
          "name": "",
          "type": "bool"
        }
      ],
      "payable": false,
      "stateMutability": "nonpayable",
      "type": "function"
    },
    {
      "constant": true,
      "inputs": [
        {
          "name": "_cid",
          "type": "bytes16"
        }
      ],
      "name": "getClaimDetails",
      "outputs": [
        {
          "name": "author",
          "type": "address"
        },
        {
          "name": "udfs",
          "type": "string"
        },
        {
          "name": "initDate",
          "type": "uint256"
        },
        {
          "name": "deposit",
          "type": "uint256"
        },
        {
          "name": "price",
          "type": "uint256"
        },
        {
          "name": "waive",
          "type": "bool"
        },
        {
          "name": "types",
          "type": "uint8"
        }
      ],
      "payable": false,
      "stateMutability": "view",
      "type": "function"
    },
    {
      "constant": true,
      "inputs": [
        {
          "name": "_oid",
          "type": "bytes32"
        }
      ],
      "name": "getOrderDetails",
      "outputs": [
        {
          "name": "time",
          "type": "uint256"
        },
        {
          "name": "price",
          "type": "uint256"
        },
        {
          "name": "cost",
          "type": "uint256"
        },
        {
          "name": "customer",
          "type": "address"
        },
        {
          "name": "payer",
          "type": "address"
        },
        {
          "name": "claimId",
          "type": "bytes16"
        }
      ],
      "payable": false,
      "stateMutability": "view",
      "type": "function"
    },
    {
      "constant": true,
      "inputs": [
        {
          "name": "_claimId",
          "type": "bytes16"
        }
      ],
      "name": "getGoodsInfo",
      "outputs": [
        {
          "name": "author",
          "type": "address"
        },
        {
          "name": "pricing",
          "type": "uint256"
        }
      ],
      "payable": false,
      "stateMutability": "view",
      "type": "function"
    }
  ],
  "bytecode": "0x6080604052600060075534801561001557600080fd5b506040516040806136e68339810180604052810190808051906020019092919080519060200190929190505050336000806101000a81548173ffffffffffffffffffffffffffffffffffffffff021916908373ffffffffffffffffffffffffffffffffffffffff16021790555033600260006101000a81548173ffffffffffffffffffffffffffffffffffffffff021916908373ffffffffffffffffffffffffffffffffffffffff160217905550806000806101000a81548173ffffffffffffffffffffffffffffffffffffffff021916908373ffffffffffffffffffffffffffffffffffffffff16021790555081600860006101000a81548173ffffffffffffffffffffffffffffffffffffffff021916908373ffffffffffffffffffffffffffffffffffffffff1602179055505050613591806101556000396000f300608060405260043610610154576000357c0100000000000000000000000000000000000000000000000000000000900463ffffffff168063024663f7146101565780630f2b5e111461023c57806315f478fe1461029357806316be9cfe146103ac578063173fff82146104035780632cc576bb1461048557806335e60e891461051d5780635be7cc161461059b5780636c153348146105de5780636df56608146106a2578063715018a6146106f957806379ba50971461071057806384e972eb146107275780638da5cb5b146107ae5780639262db3f14610805578063a8e1fba314610830578063b4a2e0d614610897578063bc43b865146108ee578063c05465d714610933578063c0c53b8b146109b7578063d4ee1d9014610a52578063e56a7c5d14610aa9578063f2fde38b14610b04578063f693db9414610b47578063f851a44014610bf3578063fa86de4114610c4a575b005b34801561016257600080fd5b506101856004803603810190808035600019169060200190929190505050610d12565b604051808781526020018681526020018581526020018473ffffffffffffffffffffffffffffffffffffffff1673ffffffffffffffffffffffffffffffffffffffff1681526020018373ffffffffffffffffffffffffffffffffffffffff1673ffffffffffffffffffffffffffffffffffffffff168152602001826fffffffffffffffffffffffffffffffff19166fffffffffffffffffffffffffffffffff19168152602001965050505050505060405180910390f35b34801561024857600080fd5b50610251610e36565b604051808273ffffffffffffffffffffffffffffffffffffffff1673ffffffffffffffffffffffffffffffffffffffff16815260200191505060405180910390f35b34801561029f57600080fd5b506102d160048036038101908080356fffffffffffffffffffffffffffffffff19169060200190929190505050610e5c565b604051808873ffffffffffffffffffffffffffffffffffffffff1673ffffffffffffffffffffffffffffffffffffffff16815260200180602001878152602001868152602001858152602001841515151581526020018360ff1660ff168152602001828103825288818151815260200191508051906020019080838360005b8381101561036b578082015181840152602081019050610350565b50505050905090810190601f1680156103985780820380516001836020036101000a031916815260200191505b509850505050505050505060405180910390f35b3480156103b857600080fd5b506103c1611008565b604051808273ffffffffffffffffffffffffffffffffffffffff1673ffffffffffffffffffffffffffffffffffffffff16815260200191505060405180910390f35b34801561040f57600080fd5b5061046b60048036038101908080356fffffffffffffffffffffffffffffffff19169060200190929190803573ffffffffffffffffffffffffffffffffffffffff1690602001909291908035906020019092919050505061102e565b604051808215151515815260200191505060405180910390f35b34801561049157600080fd5b5061050360048036038101908080356fffffffffffffffffffffffffffffffff19169060200190929190803573ffffffffffffffffffffffffffffffffffffffff169060200190929190803573ffffffffffffffffffffffffffffffffffffffff169060200190929190505050611211565b604051808215151515815260200191505060405180910390f35b34801561052957600080fd5b5061058160048036038101908080359060200190820180359060200190808060200260200160405190810160405280939291908181526020018383602002808284378201915050505050509192919290505050611420565b604051808215151515815260200191505060405180910390f35b3480156105a757600080fd5b506105dc600480360381019080803573ffffffffffffffffffffffffffffffffffffffff169060200190929190505050611674565b005b3480156105ea57600080fd5b50610688600480360381019080803590602001908201803590602001908080601f0160208091040260200160405190810160405280939291908181526020018383808284378201915050505050509192919290803573ffffffffffffffffffffffffffffffffffffffff16906020019092919080359060200190929190803560ff1690602001909291908035151590602001909291905050506117e7565b604051808215151515815260200191505060405180910390f35b3480156106ae57600080fd5b506106b7611eb4565b604051808273ffffffffffffffffffffffffffffffffffffffff1673ffffffffffffffffffffffffffffffffffffffff16815260200191505060405180910390f35b34801561070557600080fd5b5061070e611eda565b005b34801561071c57600080fd5b50610725611fdc565b005b34801561073357600080fd5b5061076560048036038101908080356fffffffffffffffffffffffffffffffff1916906020019092919050505061217b565b604051808373ffffffffffffffffffffffffffffffffffffffff1673ffffffffffffffffffffffffffffffffffffffff1681526020018281526020019250505060405180910390f35b3480156107ba57600080fd5b506107c3612282565b604051808273ffffffffffffffffffffffffffffffffffffffff1673ffffffffffffffffffffffffffffffffffffffff16815260200191505060405180910390f35b34801561081157600080fd5b5061081a6122a7565b6040518082815260200191505060405180910390f35b34801561083c57600080fd5b5061087d600480360381019080803573ffffffffffffffffffffffffffffffffffffffff1690602001909291908035151590602001909291905050506122ad565b604051808215151515815260200191505060405180910390f35b3480156108a357600080fd5b506108ac6124e6565b604051808273ffffffffffffffffffffffffffffffffffffffff1673ffffffffffffffffffffffffffffffffffffffff16815260200191505060405180910390f35b3480156108fa57600080fd5b506109196004803603810190808035906020019092919050505061250c565b604051808215151515815260200191505060405180910390f35b34801561093f57600080fd5b5061099d60048036038101908080356fffffffffffffffffffffffffffffffff19169060200190929190803573ffffffffffffffffffffffffffffffffffffffff169060200190929190803515159060200190929190505050612677565b604051808215151515815260200191505060405180910390f35b3480156109c357600080fd5b50610a38600480360381019080803573ffffffffffffffffffffffffffffffffffffffff169060200190929190803573ffffffffffffffffffffffffffffffffffffffff169060200190929190803573ffffffffffffffffffffffffffffffffffffffff16906020019092919050505061285e565b604051808215151515815260200191505060405180910390f35b348015610a5e57600080fd5b50610a67612bbe565b604051808273ffffffffffffffffffffffffffffffffffffffff1673ffffffffffffffffffffffffffffffffffffffff16815260200191505060405180910390f35b348015610ab557600080fd5b50610aea600480360381019080803573ffffffffffffffffffffffffffffffffffffffff169060200190929190505050612be4565b604051808215151515815260200191505060405180910390f35b348015610b1057600080fd5b50610b45600480360381019080803573ffffffffffffffffffffffffffffffffffffffff169060200190929190505050612c04565b005b348015610b5357600080fd5b50610bd9600480360381019080803573ffffffffffffffffffffffffffffffffffffffff16906020019092919080356fffffffffffffffffffffffffffffffff1916906020019092919080359060200190929190803573ffffffffffffffffffffffffffffffffffffffff16906020019092919080359060200190929190505050612cdf565b604051808215151515815260200191505060405180910390f35b348015610bff57600080fd5b50610c086132ee565b604051808273ffffffffffffffffffffffffffffffffffffffff1673ffffffffffffffffffffffffffffffffffffffff16815260200191505060405180910390f35b348015610c5657600080fd5b50610cf860048036038101908080356fffffffffffffffffffffffffffffffff19169060200190929190803573ffffffffffffffffffffffffffffffffffffffff169060200190929190803590602001908201803590602001908080601f016020809104026020016040519081016040528093929190818152602001838380828437820191505050505050919291929080359060200190929190505050613314565b604051808215151515815260200191505060405180910390f35b600080600080600080600560009054906101000a900473ffffffffffffffffffffffffffffffffffffffff1673ffffffffffffffffffffffffffffffffffffffff16635d1d1e67886040518263ffffffff167c010000000000000000000000000000000000000000000000000000000002815260040180826000191660001916815260200191505060c060405180830381600087803b158015610db457600080fd5b505af1158015610dc8573d6000803e3d6000fd5b505050506040513d60c0811015610dde57600080fd5b8101908080519060200190929190805190602001909291908051906020019092919080519060200190929190805190602001909291908051906020019092919050505095509550955095509550955091939550919395565b600860009054906101000a900473ffffffffffffffffffffffffffffffffffffffff1681565b600060606000806000806000600460009054906101000a900473ffffffffffffffffffffffffffffffffffffffff1673ffffffffffffffffffffffffffffffffffffffff16635ee16472896040518263ffffffff167c010000000000000000000000000000000000000000000000000000000002815260040180826fffffffffffffffffffffffffffffffff19166fffffffffffffffffffffffffffffffff19168152602001915050600060405180830381600087803b158015610f1f57600080fd5b505af1158015610f33573d6000803e3d6000fd5b505050506040513d6000823e3d601f19601f8201168201806040525060e0811015610f5d57600080fd5b81019080805190602001909291908051640100000000811115610f7f57600080fd5b82810190506020810184811115610f9557600080fd5b8151856001820283011164010000000082111715610fb257600080fd5b505092919060200180519060200190929190805190602001909291908051906020019092919080519060200190929190805190602001909291905050509650965096509650965096509650919395979092949650565b600660009054906101000a900473ffffffffffffffffffffffffffffffffffffffff1681565b600060011515600360003373ffffffffffffffffffffffffffffffffffffffff1673ffffffffffffffffffffffffffffffffffffffff16815260200190815260200160002060009054906101000a900460ff1615151415156110d9577f0489f2369368f4688acd012107ac5a7d98ca739b913449d852f35d871e433cc3600e6040518082601e8111156110bd57fe5b60ff16815260200191505060405180910390a16000905061120a565b600460009054906101000a900473ffffffffffffffffffffffffffffffffffffffff1673ffffffffffffffffffffffffffffffffffffffff1663787b4f098585856040518463ffffffff167c010000000000000000000000000000000000000000000000000000000002815260040180846fffffffffffffffffffffffffffffffff19166fffffffffffffffffffffffffffffffff191681526020018373ffffffffffffffffffffffffffffffffffffffff1673ffffffffffffffffffffffffffffffffffffffff1681526020018281526020019350505050602060405180830381600087803b1580156111cc57600080fd5b505af11580156111e0573d6000803e3d6000fd5b505050506040513d60208110156111f657600080fd5b810190808051906020019092919050505090505b9392505050565b600060011515600360003373ffffffffffffffffffffffffffffffffffffffff1673ffffffffffffffffffffffffffffffffffffffff16815260200190815260200160002060009054906101000a900460ff1615151415156112bc577f0489f2369368f4688acd012107ac5a7d98ca739b913449d852f35d871e433cc3600e6040518082601e8111156112a057fe5b60ff16815260200191505060405180910390a160009050611419565b600460009054906101000a900473ffffffffffffffffffffffffffffffffffffffff1673ffffffffffffffffffffffffffffffffffffffff16632cc576bb8585856040518463ffffffff167c010000000000000000000000000000000000000000000000000000000002815260040180846fffffffffffffffffffffffffffffffff19166fffffffffffffffffffffffffffffffff191681526020018373ffffffffffffffffffffffffffffffffffffffff1673ffffffffffffffffffffffffffffffffffffffff1681526020018273ffffffffffffffffffffffffffffffffffffffff1673ffffffffffffffffffffffffffffffffffffffff1681526020019350505050602060405180830381600087803b1580156113db57600080fd5b505af11580156113ef573d6000803e3d6000fd5b505050506040513d602081101561140557600080fd5b810190808051906020019092919050505090505b9392505050565b6000806000809054906101000a900473ffffffffffffffffffffffffffffffffffffffff1673ffffffffffffffffffffffffffffffffffffffff163373ffffffffffffffffffffffffffffffffffffffff16141580156114ce5750600260009054906101000a900473ffffffffffffffffffffffffffffffffffffffff1673ffffffffffffffffffffffffffffffffffffffff163373ffffffffffffffffffffffffffffffffffffffff1614155b15611522577f0489f2369368f4688acd012107ac5a7d98ca739b913449d852f35d871e433cc3600f6040518082601e81111561150657fe5b60ff16815260200191505060405180910390a16000915061166e565b600090505b825181101561166957600073ffffffffffffffffffffffffffffffffffffffff16838281518110151561155657fe5b9060200190602002015173ffffffffffffffffffffffffffffffffffffffff161415151561158357600080fd5b600160036000858481518110151561159757fe5b9060200190602002015173ffffffffffffffffffffffffffffffffffffffff1673ffffffffffffffffffffffffffffffffffffffff16815260200190815260200160002060006101000a81548160ff021916908315150217905550828181518110151561160057fe5b9060200190602002015173ffffffffffffffffffffffffffffffffffffffff167f9b3b880c67f4fab4215412179771cffd326a045e6016a7e363eb38460f7e91766001604051808215151515815260200191505060405180910390a28080600101915050611527565b600191505b50919050565b6000809054906101000a900473ffffffffffffffffffffffffffffffffffffffff1673ffffffffffffffffffffffffffffffffffffffff163373ffffffffffffffffffffffffffffffffffffffff16148061171c5750600260009054906101000a900473ffffffffffffffffffffffffffffffffffffffff1673ffffffffffffffffffffffffffffffffffffffff163373ffffffffffffffffffffffffffffffffffffffff16145b151561172757600080fd5b8073ffffffffffffffffffffffffffffffffffffffff16600260009054906101000a900473ffffffffffffffffffffffffffffffffffffffff1673ffffffffffffffffffffffffffffffffffffffff167ff73aa4459d935dbacd9313fffe485016147551d99ef401461704cd39e6e9028760405160405180910390a380600260006101000a81548173ffffffffffffffffffffffffffffffffffffffff021916908373ffffffffffffffffffffffffffffffffffffffff16021790555050565b60008060011515600360003373ffffffffffffffffffffffffffffffffffffffff1673ffffffffffffffffffffffffffffffffffffffff16815260200190815260200160002060009054906101000a900460ff161515141515611893577f0489f2369368f4688acd012107ac5a7d98ca739b913449d852f35d871e433cc3600e6040518082601e81111561187757fe5b60ff16815260200191505060405180910390a160009150611eaa565b60001515831515141561195c578573ffffffffffffffffffffffffffffffffffffffff167f334a1a0d3a871733a383cbd43ae22ca86bd71fa41dcaecfea8cf442ac6b96fcc886040518080602001828103825283818151815260200191508051906020019080838360005b838110156119195780820151818401526020810190506118fe565b50505050905090810190601f1680156119465780820380516001836020036101000a031916815260200191505b509250505060405180910390a260009150611eaa565b86866040516020018083805190602001908083835b6020831015156119965780518252602082019150602081019050602083039250611971565b6001836020036101000a0380198251168184511680821785525050505050509050018273ffffffffffffffffffffffffffffffffffffffff1673ffffffffffffffffffffffffffffffffffffffff166c01000000000000000000000000028152601401925050506040516020818303038152906040526040518082805190602001908083835b602083101515611a415780518252602082019150602081019050602083039250611a1c565b6001836020036101000a03801982511681845116808217855250505050505090500191505060405180910390209050600460009054906101000a900473ffffffffffffffffffffffffffffffffffffffff1673ffffffffffffffffffffffffffffffffffffffff16639b03ced2826040518263ffffffff167c010000000000000000000000000000000000000000000000000000000002815260040180826fffffffffffffffffffffffffffffffff19166fffffffffffffffffffffffffffffffff19168152602001915050602060405180830381600087803b158015611b2757600080fd5b505af1158015611b3b573d6000803e3d6000fd5b505050506040513d6020811015611b5157600080fd5b810190808051906020019092919050505015611bb6577f0489f2369368f4688acd012107ac5a7d98ca739b913449d852f35d871e433cc3600a6040518082601e811115611b9a57fe5b60ff16815260200191505060405180910390a160009150611eaa565b600460009054906101000a900473ffffffffffffffffffffffffffffffffffffffff1673ffffffffffffffffffffffffffffffffffffffff1663eb16ea6d828989896007548a6040518763ffffffff167c010000000000000000000000000000000000000000000000000000000002815260040180876fffffffffffffffffffffffffffffffff19166fffffffffffffffffffffffffffffffff19168152602001806020018673ffffffffffffffffffffffffffffffffffffffff1673ffffffffffffffffffffffffffffffffffffffff1681526020018581526020018481526020018360ff1660ff168152602001828103825287818151815260200191508051906020019080838360005b83811015611cdd578082015181840152602081019050611cc2565b50505050905090810190601f168015611d0a5780820380516001836020036101000a031916815260200191505b50975050505050505050602060405180830381600087803b158015611d2e57600080fd5b505af1158015611d42573d6000803e3d6000fd5b505050506040513d6020811015611d5857600080fd5b81019080805190602001909291905050501515611d7457600080fd5b600660009054906101000a900473ffffffffffffffffffffffffffffffffffffffff1673ffffffffffffffffffffffffffffffffffffffff1663256e980e82886040518363ffffffff167c010000000000000000000000000000000000000000000000000000000002815260040180836fffffffffffffffffffffffffffffffff19166fffffffffffffffffffffffffffffffff191681526020018273ffffffffffffffffffffffffffffffffffffffff1673ffffffffffffffffffffffffffffffffffffffff16815260200192505050602060405180830381600087803b158015611e5f57600080fd5b505af1158015611e73573d6000803e3d6000fd5b505050506040513d6020811015611e8957600080fd5b81019080805190602001909291905050501515611ea557600080fd5b600091505b5095945050505050565b600560009054906101000a900473ffffffffffffffffffffffffffffffffffffffff1681565b6000809054906101000a900473ffffffffffffffffffffffffffffffffffffffff1673ffffffffffffffffffffffffffffffffffffffff163373ffffffffffffffffffffffffffffffffffffffff16141515611f3557600080fd5b6000809054906101000a900473ffffffffffffffffffffffffffffffffffffffff1673ffffffffffffffffffffffffffffffffffffffff167f2dde1bc8b58ef192e7df3e7a354521d958331021e450d544346b936936916ef460405160405180910390a260008060006101000a81548173ffffffffffffffffffffffffffffffffffffffff021916908373ffffffffffffffffffffffffffffffffffffffff160217905550565b600160009054906101000a900473ffffffffffffffffffffffffffffffffffffffff1673ffffffffffffffffffffffffffffffffffffffff163373ffffffffffffffffffffffffffffffffffffffff1614151561203857600080fd5b600160009054906101000a900473ffffffffffffffffffffffffffffffffffffffff1673ffffffffffffffffffffffffffffffffffffffff166000809054906101000a900473ffffffffffffffffffffffffffffffffffffffff1673ffffffffffffffffffffffffffffffffffffffff167fdb6d05f3295cede580affa301a1eb5297528f3b3f6a56b075887ce6f61c45f2160405160405180910390a3600160009054906101000a900473ffffffffffffffffffffffffffffffffffffffff166000806101000a81548173ffffffffffffffffffffffffffffffffffffffff021916908373ffffffffffffffffffffffffffffffffffffffff1602179055506000600160006101000a81548173ffffffffffffffffffffffffffffffffffffffff021916908373ffffffffffffffffffffffffffffffffffffffff160217905550565b600080600460009054906101000a900473ffffffffffffffffffffffffffffffffffffffff1673ffffffffffffffffffffffffffffffffffffffff166384e972eb846040518263ffffffff167c010000000000000000000000000000000000000000000000000000000002815260040180826fffffffffffffffffffffffffffffffff19166fffffffffffffffffffffffffffffffff191681526020019150506040805180830381600087803b15801561223457600080fd5b505af1158015612248573d6000803e3d6000fd5b505050506040513d604081101561225e57600080fd5b81019080805190602001909291908051906020019092919050505091509150915091565b6000809054906101000a900473ffffffffffffffffffffffffffffffffffffffff1681565b60075481565b60008060009054906101000a900473ffffffffffffffffffffffffffffffffffffffff1673ffffffffffffffffffffffffffffffffffffffff163373ffffffffffffffffffffffffffffffffffffffff161415801561235a5750600260009054906101000a900473ffffffffffffffffffffffffffffffffffffffff1673ffffffffffffffffffffffffffffffffffffffff163373ffffffffffffffffffffffffffffffffffffffff1614155b156123ae577f0489f2369368f4688acd012107ac5a7d98ca739b913449d852f35d871e433cc3600f6040518082601e81111561239257fe5b60ff16815260200191505060405180910390a1600090506124e0565b600073ffffffffffffffffffffffffffffffffffffffff168373ffffffffffffffffffffffffffffffffffffffff161415612432577f0489f2369368f4688acd012107ac5a7d98ca739b913449d852f35d871e433cc360026040518082601e81111561241657fe5b60ff16815260200191505060405180910390a1600090506124e0565b81600360008573ffffffffffffffffffffffffffffffffffffffff1673ffffffffffffffffffffffffffffffffffffffff16815260200190815260200160002060006101000a81548160ff0219169083151502179055508273ffffffffffffffffffffffffffffffffffffffff167f9b3b880c67f4fab4215412179771cffd326a045e6016a7e363eb38460f7e917683604051808215151515815260200191505060405180910390a2600190505b92915050565b600460009054906101000a900473ffffffffffffffffffffffffffffffffffffffff1681565b60008060009054906101000a900473ffffffffffffffffffffffffffffffffffffffff1673ffffffffffffffffffffffffffffffffffffffff163373ffffffffffffffffffffffffffffffffffffffff16141580156125b95750600260009054906101000a900473ffffffffffffffffffffffffffffffffffffffff1673ffffffffffffffffffffffffffffffffffffffff163373ffffffffffffffffffffffffffffffffffffffff1614155b1561260d577f0489f2369368f4688acd012107ac5a7d98ca739b913449d852f35d871e433cc3600f6040518082601e8111156125f157fe5b60ff16815260200191505060405180910390a160009050612672565b600754821415612666577f0489f2369368f4688acd012107ac5a7d98ca739b913449d852f35d871e433cc360116040518082601e81111561264a57fe5b60ff16815260200191505060405180910390a160009050612672565b81600781905550600190505b919050565b600060011515600360003373ffffffffffffffffffffffffffffffffffffffff1673ffffffffffffffffffffffffffffffffffffffff16815260200190815260200160002060009054906101000a900460ff161515141515612722577f0489f2369368f4688acd012107ac5a7d98ca739b913449d852f35d871e433cc3600e6040518082601e81111561270657fe5b60ff16815260200191505060405180910390a160009050612857565b600460009054906101000a900473ffffffffffffffffffffffffffffffffffffffff1673ffffffffffffffffffffffffffffffffffffffff1663c05465d78585856040518463ffffffff167c010000000000000000000000000000000000000000000000000000000002815260040180846fffffffffffffffffffffffffffffffff19166fffffffffffffffffffffffffffffffff191681526020018373ffffffffffffffffffffffffffffffffffffffff1673ffffffffffffffffffffffffffffffffffffffff168152602001821515151581526020019350505050602060405180830381600087803b15801561281957600080fd5b505af115801561282d573d6000803e3d6000fd5b505050506040513d602081101561284357600080fd5b810190808051906020019092919050505090505b9392505050565b60008060009054906101000a900473ffffffffffffffffffffffffffffffffffffffff1673ffffffffffffffffffffffffffffffffffffffff163373ffffffffffffffffffffffffffffffffffffffff1614806129085750600260009054906101000a900473ffffffffffffffffffffffffffffffffffffffff1673ffffffffffffffffffffffffffffffffffffffff163373ffffffffffffffffffffffffffffffffffffffff16145b151561291357600080fd5b600073ffffffffffffffffffffffffffffffffffffffff16600460009054906101000a900473ffffffffffffffffffffffffffffffffffffffff1673ffffffffffffffffffffffffffffffffffffffff161415156129d9576040517f08c379a00000000000000000000000000000000000000000000000000000000081526004018080602001828103825260198152602001807f596f752063616e206f6e6c792063616c6c206974206f6e63650000000000000081525060200191505060405180910390fd5b600073ffffffffffffffffffffffffffffffffffffffff168473ffffffffffffffffffffffffffffffffffffffff1614158015612a435750600073ffffffffffffffffffffffffffffffffffffffff168373ffffffffffffffffffffffffffffffffffffffff1614155b8015612a7c5750600073ffffffffffffffffffffffffffffffffffffffff168273ffffffffffffffffffffffffffffffffffffffff1614155b1515612af0576040517f08c379a000000000000000000000000000000000000000000000000000000000815260040180806020018281038252601d8152602001807f636f6e747261637420616464726573732063616e6e6f7420626520302e00000081525060200191505060405180910390fd5b83600460006101000a81548173ffffffffffffffffffffffffffffffffffffffff021916908373ffffffffffffffffffffffffffffffffffffffff16021790555082600560006101000a81548173ffffffffffffffffffffffffffffffffffffffff021916908373ffffffffffffffffffffffffffffffffffffffff16021790555081600660006101000a81548173ffffffffffffffffffffffffffffffffffffffff021916908373ffffffffffffffffffffffffffffffffffffffff160217905550600190509392505050565b600160009054906101000a900473ffffffffffffffffffffffffffffffffffffffff1681565b60036020528060005260406000206000915054906101000a900460ff1681565b6000809054906101000a900473ffffffffffffffffffffffffffffffffffffffff1673ffffffffffffffffffffffffffffffffffffffff163373ffffffffffffffffffffffffffffffffffffffff16141515612c5f57600080fd5b600073ffffffffffffffffffffffffffffffffffffffff168173ffffffffffffffffffffffffffffffffffffffff1614151515612c9b57600080fd5b80600160006101000a81548173ffffffffffffffffffffffffffffffffffffffff021916908373ffffffffffffffffffffffffffffffffffffffff16021790555050565b60008060011515600360003373ffffffffffffffffffffffffffffffffffffffff1673ffffffffffffffffffffffffffffffffffffffff16815260200190815260200160002060009054906101000a900460ff161515141515612d8b577f0489f2369368f4688acd012107ac5a7d98ca739b913449d852f35d871e433cc3600e6040518082601e811115612d6f57fe5b60ff16815260200191505060405180910390a1600091506132e4565b600460009054906101000a900473ffffffffffffffffffffffffffffffffffffffff1673ffffffffffffffffffffffffffffffffffffffff1663a146be7c876040518263ffffffff167c010000000000000000000000000000000000000000000000000000000002815260040180826fffffffffffffffffffffffffffffffff19166fffffffffffffffffffffffffffffffff19168152602001915050602060405180830381600087803b158015612e4257600080fd5b505af1158015612e56573d6000803e3d6000fd5b505050506040513d6020811015612e6c57600080fd5b81019080805190602001909291905050501515612ed2577f0489f2369368f4688acd012107ac5a7d98ca739b913449d852f35d871e433cc360066040518082601e811115612eb657fe5b60ff16815260200191505060405180910390a1600091506132e4565b82851015612f29577f0489f2369368f4688acd012107ac5a7d98ca739b913449d852f35d871e433cc3600d6040518082601e811115612f0d57fe5b60ff16815260200191505060405180910390a1600091506132e4565b8686604051602001808373ffffffffffffffffffffffffffffffffffffffff1673ffffffffffffffffffffffffffffffffffffffff166c01000000000000000000000000028152601401826fffffffffffffffffffffffffffffffff19166fffffffffffffffffffffffffffffffff19168152601001925050506040516020818303038152906040526040518082805190602001908083835b602083101515612fe75780518252602082019150602081019050602083039250612fc2565b6001836020036101000a03801982511681845116808217855250505050505090500191505060405180910390209050600560009054906101000a900473ffffffffffffffffffffffffffffffffffffffff1673ffffffffffffffffffffffffffffffffffffffff16637fd9786e8289898789896040518763ffffffff167c01000000000000000000000000000000000000000000000000000000000281526004018087600019166000191681526020018673ffffffffffffffffffffffffffffffffffffffff1673ffffffffffffffffffffffffffffffffffffffff168152602001856fffffffffffffffffffffffffffffffff19166fffffffffffffffffffffffffffffffff191681526020018481526020018373ffffffffffffffffffffffffffffffffffffffff1673ffffffffffffffffffffffffffffffffffffffff1681526020018281526020019650505050505050602060405180830381600087803b15801561315557600080fd5b505af1158015613169573d6000803e3d6000fd5b505050506040513d602081101561317f57600080fd5b8101908080519060200190929190505050156132df57600660009054906101000a900473ffffffffffffffffffffffffffffffffffffffff1673ffffffffffffffffffffffffffffffffffffffff1663ee9a45508288876040518463ffffffff167c0100000000000000000000000000000000000000000000000000000000028152600401808460001916600019168152602001836fffffffffffffffffffffffffffffffff19166fffffffffffffffffffffffffffffffff191681526020018273ffffffffffffffffffffffffffffffffffffffff1673ffffffffffffffffffffffffffffffffffffffff1681526020019350505050602060405180830381600087803b15801561329057600080fd5b505af11580156132a4573d6000803e3d6000fd5b505050506040513d60208110156132ba57600080fd5b810190808051906020019092919050505015156132d657600080fd5b600191506132e4565b600091505b5095945050505050565b600260009054906101000a900473ffffffffffffffffffffffffffffffffffffffff1681565b600060011515600360003373ffffffffffffffffffffffffffffffffffffffff1673ffffffffffffffffffffffffffffffffffffffff16815260200190815260200160002060009054906101000a900460ff1615151415156133bf577f0489f2369368f4688acd012107ac5a7d98ca739b913449d852f35d871e433cc3600e6040518082601e8111156133a357fe5b60ff16815260200191505060405180910390a16000905061355d565b600460009054906101000a900473ffffffffffffffffffffffffffffffffffffffff1673ffffffffffffffffffffffffffffffffffffffff1663fa86de41868686866040518563ffffffff167c010000000000000000000000000000000000000000000000000000000002815260040180856fffffffffffffffffffffffffffffffff19166fffffffffffffffffffffffffffffffff191681526020018473ffffffffffffffffffffffffffffffffffffffff1673ffffffffffffffffffffffffffffffffffffffff16815260200180602001838152602001828103825284818151815260200191508051906020019080838360005b838110156134d05780820151818401526020810190506134b5565b50505050905090810190601f1680156134fd5780820380516001836020036101000a031916815260200191505b5095505050505050602060405180830381600087803b15801561351f57600080fd5b505af1158015613533573d6000803e3d6000fd5b505050506040513d602081101561354957600080fd5b810190808051906020019092919050505090505b9493505050505600a165627a7a72305820923d9c9746ea3295e938bd2ddf21efb49f0f9ece295e49797ac611e7a2603bdd0029",
  "source": "pragma solidity ^0.4.24;\n\nimport \"./WhiteMange.sol\";\n\nimport \"./ClaimDB.sol\";\nimport \"./OrderDB.sol\";\nimport \"./InfoDB.sol\";\n\n//TODO: TO modify ERC20 to GAS;\n\n/*\n    \n    1. \n    2. 00\n    3. \n    4. \n    5. \n*/\n\n/**\n * @title \n * @dev \n * @notice \n */\ncontract CenterControl is WhiteMange{\n\n    //Payment public pay_;\n\n    ClaimDB public claimDb_;\n    OrderDB public orderDb_;\n    InfoDB  public infoDb_;\n\n    // \n    uint256 public claimDeposit_ = 0;\n    address public claimPool_;\n\n    event LogSimpleClaim(address indexed author, string udfs);\n\n    /**\n     * @dev constructor\n     * @param _pool  address : \n     * @param _owner address : The address of the contract owner.\n     */\n    constructor (address _pool, address _owner)\n        public\n    {\n        owner = _owner;\n        claimPool_ = _pool;\n    }\n\n    /**\n     * @dev Initialization function,related contract of the project\n     * @notice Can only be called once by the owner.\n     * @param _claim address : ClaimDB's contract address\n     * @param _order address : OrderDB's contract address\n     * @param _info  address : InfoDB's contract address\n     * @return       bool    : The successful call returns true.\n     */\n    function initialize(address _claim, address _order, address _info) onlyAdmin\n        public\n        returns(bool)\n    {\n        require(claimDb_ == address(0), \"You can only call it once\");\n        require(_claim != address(0)  && _order  != address(0)\n                && _info != address(0) , \"contract address cannot be 0.\");\n\n        claimDb_ = ClaimDB(_claim);\n        orderDb_ = OrderDB(_order);\n        infoDb_  = InfoDB(_info);\n\n        return true;\n    }\n\n    // TODO\n    // \n    function () payable public {\n        // \n    }\n\n//    // TODO\n//    function migrate() public onlyOwner returns(bool){\n//\n//    }\n\n    /**\n     * @dev  \n     * @param _udfs    string  : UDFS Hash\n     * @param _author  address : \n     * @param _price   uint256 : \n     * @param _type    uint8   : 1\n     * @param _storage bool    : true,false\n     * @return         bool    : true\n     */\n    function createClaim(string _udfs, address _author, uint256 _price, uint8 _type, bool _storage)\n        public\n        returns(bool)\n    {\n        if (whitelist_[msg.sender] != true){\n            emit LogError(RScorr.Insufficient);\n            return false;\n        }\n\n        if (_storage == false){\n            emit LogSimpleClaim(_author, _udfs);\n            return false;\n        }\n\n        bytes16 _claimId = bytes16(keccak256(abi.encodePacked(_udfs , _author)));\n        if (claimDb_.isExist(_claimId)){\n            emit LogError(RScorr.ObjExist);\n            return false;\n        } /* Check if the resource exists */\n\n\n        require(claimDb_.insertClaim(_claimId, _udfs, _author, _price, claimDeposit_, _type));\n\n        require(infoDb_.insertClaim(_claimId, _author));\n\n        return false;\n\n    }\n\n    /**\n     * @dev  \n     * @param _customer address : \n     * @param _claimId  bytes16 : ID\n     * @param _payer    address : \n     * @param _price    uint256 : \n     * @return          bool    : true\n     */\n    function createOrder(address _customer,bytes16 _claimId, uint256 _value, address _payer, uint256 _price)\n        public\n        returns(bool)\n    {\n        if (whitelist_[msg.sender] != true){\n            emit LogError(RScorr.Insufficient);\n            return false;\n        } // Check the caller's whitelist permission.\n\n        if (!claimDb_.isSaleable(_claimId)){\n            emit LogError(RScorr.InvalidObj);\n            return false;\n        } //\n\n        if(_value < _price){\n            emit LogError(RScorr.Insolvent);\n            return false;\n        }\n\n        // id\n        bytes32 _orderId = bytes32(keccak256(abi.encodePacked(_customer , _claimId)));\n\n        // \n        if (orderDb_.insert(_orderId, _customer, _claimId, _price, _payer, _price)){\n            require(infoDb_.insertOrder(_orderId, _claimId, _payer));\n            return true;\n        }else{\n            return false;\n        }\n    }\n\n    ///@dev \n    function updateClaim(bytes16 _cid, address _author, string _newudfs, uint256 _newprice)\n        public\n        returns(bool)\n    {\n        if (whitelist_[msg.sender] != true){ \n          emit LogError(RScorr.Insufficient);\n          return false;\n        } // \n\n        return claimDb_.updateClaim(_cid, _author, _newudfs, _newprice);\n    }\n\n    ///@dev \n    function updateClaimAuthor(bytes16 _cid, address _author, address _newAuthor)\n        public\n        returns(bool)\n    {\n        if (whitelist_[msg.sender] != true){ \n          emit LogError(RScorr.Insufficient);\n          return false;\n        } // \n\n        return claimDb_.updateClaimAuthor(_cid, _author, _newAuthor);\n    }\n\n    ///@dev \n    function updateClaimPrice(bytes16 _cid, address _author, uint256 _newprice)\n        public\n        returns(bool)\n    {\n        if (whitelist_[msg.sender] != true){ \n          emit LogError(RScorr.Insufficient);\n          return false;\n        } // \n\n        return claimDb_.updateClaimPricing(_cid, _author, _newprice);\n    }\n\n    ///@dev \n    function updateClaimWaive(bytes16 _cid, address _author, bool _waive)\n        public\n        returns(bool)\n    {\n        if (whitelist_[msg.sender] != true){ \n          emit LogError(RScorr.Insufficient);\n          return false;\n        } // \n\n        return claimDb_.updateClaimWaive(_cid, _author, _waive);\n    }\n\n\n    /**\n     * @dev \n     * @notice \n     * @param _newDeposit uint256  \n     */\n    function setClaimDeposit(uint256 _newDeposit)\n        public\n        returns(bool)\n    {\n        if(msg.sender != owner && msg.sender != admin){ \n            emit LogError(RScorr.PermissionDenied);\n            return false;\n        } // \n\n        if(_newDeposit == claimDeposit_){\n            emit LogError(RScorr.Insignificance);\n            return false;\n        } // \n\n        claimDeposit_ = _newDeposit;\n\n        return true;\n    }\n\n\n    /////////////////////////\n    /// Internal\n    /////////////////////////\n\n    ///@dev ClaimId\n    function getClaimDetails(bytes16 _cid)\n        view public returns(\n            address author,  string  udfs,  uint256 initDate,\n            uint256 deposit, uint256 price, bool waive,  uint8   types)\n    {\n        return claimDb_.getClaimInfoByID(_cid);\n    }\n\n    ///@dev OrderId\n    function getOrderDetails(bytes32 _oid)\n        view public returns(\n            uint256 time,     uint256 price,  uint256 cost,\n            address customer, address payer,  bytes16 claimId)\n    {\n        return orderDb_.getOrderInfoByID(_oid);\n    }\n\n\n    ///@dev \n    function getGoodsInfo(bytes16 _claimId)\n        view\n        public\n        returns(address author, uint256 pricing)\n    {\n        return claimDb_.getGoodsInfo(_claimId);\n    }\n\n\n    ///////////////////\n    /// Internal\n    ///////////////////\n\n\n//    /**\n//     * @dev \n//     * @param _oID   bytes32 : ID\n//     * @param _payer address \n//     * @param _cost  uint256 : \n//     * @return bool          : true\n//     */\n//    function _checkBuy(bytes32 _oID, address _payer, uint256 _cost)\n//        internal\n//        returns(bool)\n//    {\n//        // \n//        if (orderDb_.isExist(_oID)){\n//            emit LogError(RScorr.ObjExist);\n//            return false;\n//        }\n//\n//        // \n//        if (!pay_.isPayable(_payer, _cost)){\n//            emit LogError(RScorr.Insolvent);\n//            return false;\n//        }\n//\n//        return true;\n//    }\n\n}",
  "sourcePath": "E:\\sol\\blog\\contracts\\CenterControl.sol",
  "compiler": {
    "name": "solc",
    "version": "0.4.24+commit.e67f0147.Emscripten.clang"
  },
  "schemaVersion": "2.0.1",
  "updatedAt": "2018-08-27T09:46:48.199Z"
}