{
  "contractName": "ClaimDB",
  "abi": [
    {
      "constant": false,
      "inputs": [
        {
          "name": "_addresses",
          "type": "address[]"
        }
      ],
      "name": "mulInsertWhite",
      "outputs": [
        {
          "name": "",
          "type": "bool"
        }
      ],
      "payable": false,
      "stateMutability": "nonpayable",
      "type": "function"
    },
    {
      "constant": false,
      "inputs": [
        {
          "name": "_newAdmin",
          "type": "address"
        }
      ],
      "name": "transferAdminship",
      "outputs": [],
      "payable": false,
      "stateMutability": "nonpayable",
      "type": "function"
    },
    {
      "constant": false,
      "inputs": [],
      "name": "renounceOwnership",
      "outputs": [],
      "payable": false,
      "stateMutability": "nonpayable",
      "type": "function"
    },
    {
      "constant": false,
      "inputs": [],
      "name": "acceptOwnership",
      "outputs": [],
      "payable": false,
      "stateMutability": "nonpayable",
      "type": "function"
    },
    {
      "constant": true,
      "inputs": [],
      "name": "owner",
      "outputs": [
        {
          "name": "",
          "type": "address"
        }
      ],
      "payable": false,
      "stateMutability": "view",
      "type": "function"
    },
    {
      "constant": false,
      "inputs": [
        {
          "name": "_target",
          "type": "address"
        },
        {
          "name": "_allow",
          "type": "bool"
        }
      ],
      "name": "mangeWhiteList",
      "outputs": [
        {
          "name": "",
          "type": "bool"
        }
      ],
      "payable": false,
      "stateMutability": "nonpayable",
      "type": "function"
    },
    {
      "constant": true,
      "inputs": [],
      "name": "newOwner",
      "outputs": [
        {
          "name": "",
          "type": "address"
        }
      ],
      "payable": false,
      "stateMutability": "view",
      "type": "function"
    },
    {
      "constant": true,
      "inputs": [
        {
          "name": "",
          "type": "address"
        }
      ],
      "name": "whitelist_",
      "outputs": [
        {
          "name": "",
          "type": "bool"
        }
      ],
      "payable": false,
      "stateMutability": "view",
      "type": "function"
    },
    {
      "constant": false,
      "inputs": [
        {
          "name": "_newOwner",
          "type": "address"
        }
      ],
      "name": "transferOwnership",
      "outputs": [],
      "payable": false,
      "stateMutability": "nonpayable",
      "type": "function"
    },
    {
      "constant": true,
      "inputs": [],
      "name": "admin",
      "outputs": [
        {
          "name": "",
          "type": "address"
        }
      ],
      "payable": false,
      "stateMutability": "view",
      "type": "function"
    },
    {
      "inputs": [
        {
          "name": "_owner",
          "type": "address"
        }
      ],
      "payable": false,
      "stateMutability": "nonpayable",
      "type": "constructor"
    },
    {
      "anonymous": false,
      "inputs": [
        {
          "indexed": false,
          "name": "_claimId",
          "type": "bytes16"
        },
        {
          "indexed": true,
          "name": "_author",
          "type": "address"
        }
      ],
      "name": "LogNewClaim",
      "type": "event"
    },
    {
      "anonymous": false,
      "inputs": [
        {
          "indexed": false,
          "name": "_claimId",
          "type": "bytes16"
        },
        {
          "indexed": true,
          "name": "_author",
          "type": "address"
        },
        {
          "indexed": false,
          "name": "_pricing",
          "type": "uint256"
        }
      ],
      "name": "LogUpdateClaimUdfs",
      "type": "event"
    },
    {
      "anonymous": false,
      "inputs": [
        {
          "indexed": false,
          "name": "_claimId",
          "type": "bytes16"
        },
        {
          "indexed": true,
          "name": "_author",
          "type": "address"
        },
        {
          "indexed": true,
          "name": "_newAuthor",
          "type": "address"
        }
      ],
      "name": "LogUpdateClaimAuthor",
      "type": "event"
    },
    {
      "anonymous": false,
      "inputs": [
        {
          "indexed": false,
          "name": "_claimId",
          "type": "bytes16"
        },
        {
          "indexed": true,
          "name": "_author",
          "type": "address"
        },
        {
          "indexed": false,
          "name": "_newPricinge",
          "type": "uint256"
        }
      ],
      "name": "LogUpdateClaimPricing",
      "type": "event"
    },
    {
      "anonymous": false,
      "inputs": [
        {
          "indexed": false,
          "name": "_claimId",
          "type": "bytes16"
        },
        {
          "indexed": true,
          "name": "_author",
          "type": "address"
        },
        {
          "indexed": false,
          "name": "_waive",
          "type": "bool"
        }
      ],
      "name": "LogUpdateClaimWaive",
      "type": "event"
    },
    {
      "anonymous": false,
      "inputs": [
        {
          "indexed": false,
          "name": "_claimId",
          "type": "bytes16"
        },
        {
          "indexed": false,
          "name": "_forbidden",
          "type": "bool"
        }
      ],
      "name": "LogUpdateClaimForbidden",
      "type": "event"
    },
    {
      "anonymous": false,
      "inputs": [
        {
          "indexed": false,
          "name": "_claimId",
          "type": "bytes16"
        }
      ],
      "name": "LogDeleteClaim",
      "type": "event"
    },
    {
      "anonymous": false,
      "inputs": [
        {
          "indexed": true,
          "name": "_target",
          "type": "address"
        },
        {
          "indexed": false,
          "name": "_allow",
          "type": "bool"
        }
      ],
      "name": "LogWhileChanged",
      "type": "event"
    },
    {
      "anonymous": false,
      "inputs": [
        {
          "indexed": false,
          "name": "_errorNumber",
          "type": "uint8"
        }
      ],
      "name": "LogError",
      "type": "event"
    },
    {
      "anonymous": false,
      "inputs": [
        {
          "indexed": true,
          "name": "_old",
          "type": "address"
        },
        {
          "indexed": true,
          "name": "_new",
          "type": "address"
        }
      ],
      "name": "LogAdminshipTransferred",
      "type": "event"
    },
    {
      "anonymous": false,
      "inputs": [
        {
          "indexed": true,
          "name": "previousOwner",
          "type": "address"
        }
      ],
      "name": "LogOwnershipRenounced",
      "type": "event"
    },
    {
      "anonymous": false,
      "inputs": [
        {
          "indexed": true,
          "name": "previousOwner",
          "type": "address"
        },
        {
          "indexed": true,
          "name": "newOwner",
          "type": "address"
        }
      ],
      "name": "LogOwnershipTransferred",
      "type": "event"
    },
    {
      "constant": false,
      "inputs": [
        {
          "name": "_cid",
          "type": "bytes16"
        },
        {
          "name": "_udfs",
          "type": "string"
        },
        {
          "name": "_author",
          "type": "address"
        },
        {
          "name": "_pricing",
          "type": "uint256"
        },
        {
          "name": "_deposit",
          "type": "uint256"
        },
        {
          "name": "_type",
          "type": "uint8"
        }
      ],
      "name": "insertClaim",
      "outputs": [
        {
          "name": "",
          "type": "bool"
        }
      ],
      "payable": false,
      "stateMutability": "nonpayable",
      "type": "function"
    },
    {
      "constant": false,
      "inputs": [
        {
          "name": "_cid",
          "type": "bytes16"
        },
        {
          "name": "_author",
          "type": "address"
        },
        {
          "name": "_udfs",
          "type": "string"
        },
        {
          "name": "_pricing",
          "type": "uint256"
        }
      ],
      "name": "updateClaim",
      "outputs": [
        {
          "name": "",
          "type": "bool"
        }
      ],
      "payable": false,
      "stateMutability": "nonpayable",
      "type": "function"
    },
    {
      "constant": false,
      "inputs": [
        {
          "name": "_cid",
          "type": "bytes16"
        },
        {
          "name": "_author",
          "type": "address"
        },
        {
          "name": "_newAuthor",
          "type": "address"
        }
      ],
      "name": "updateClaimAuthor",
      "outputs": [
        {
          "name": "",
          "type": "bool"
        }
      ],
      "payable": false,
      "stateMutability": "nonpayable",
      "type": "function"
    },
    {
      "constant": false,
      "inputs": [
        {
          "name": "_cid",
          "type": "bytes16"
        },
        {
          "name": "_author",
          "type": "address"
        },
        {
          "name": "_newPricing",
          "type": "uint256"
        }
      ],
      "name": "updateClaimPricing",
      "outputs": [
        {
          "name": "",
          "type": "bool"
        }
      ],
      "payable": false,
      "stateMutability": "nonpayable",
      "type": "function"
    },
    {
      "constant": false,
      "inputs": [
        {
          "name": "_cid",
          "type": "bytes16"
        },
        {
          "name": "_author",
          "type": "address"
        },
        {
          "name": "_waive",
          "type": "bool"
        }
      ],
      "name": "updateClaimWaive",
      "outputs": [
        {
          "name": "",
          "type": "bool"
        }
      ],
      "payable": false,
      "stateMutability": "nonpayable",
      "type": "function"
    },
    {
      "constant": false,
      "inputs": [
        {
          "name": "_cid",
          "type": "bytes16"
        },
        {
          "name": "_forbidden",
          "type": "bool"
        }
      ],
      "name": "updateClaimForbidden",
      "outputs": [
        {
          "name": "",
          "type": "bool"
        }
      ],
      "payable": false,
      "stateMutability": "nonpayable",
      "type": "function"
    },
    {
      "constant": false,
      "inputs": [
        {
          "name": "_cid",
          "type": "bytes16"
        }
      ],
      "name": "deleteClaim",
      "outputs": [
        {
          "name": "",
          "type": "bool"
        }
      ],
      "payable": false,
      "stateMutability": "nonpayable",
      "type": "function"
    },
    {
      "constant": true,
      "inputs": [
        {
          "name": "_claimId",
          "type": "bytes16"
        }
      ],
      "name": "getClaimInfoByID",
      "outputs": [
        {
          "name": "author",
          "type": "address"
        },
        {
          "name": "udfs",
          "type": "string"
        },
        {
          "name": "initDate",
          "type": "uint256"
        },
        {
          "name": "deposit",
          "type": "uint256"
        },
        {
          "name": "pricing",
          "type": "uint256"
        },
        {
          "name": "waive",
          "type": "bool"
        },
        {
          "name": "types",
          "type": "uint8"
        }
      ],
      "payable": false,
      "stateMutability": "view",
      "type": "function"
    },
    {
      "constant": true,
      "inputs": [
        {
          "name": "_claimId",
          "type": "bytes16"
        }
      ],
      "name": "isExist",
      "outputs": [
        {
          "name": "",
          "type": "bool"
        }
      ],
      "payable": false,
      "stateMutability": "view",
      "type": "function"
    },
    {
      "constant": true,
      "inputs": [
        {
          "name": "_claimId",
          "type": "bytes16"
        }
      ],
      "name": "isSaleable",
      "outputs": [
        {
          "name": "",
          "type": "bool"
        }
      ],
      "payable": false,
      "stateMutability": "view",
      "type": "function"
    },
    {
      "constant": true,
      "inputs": [
        {
          "name": "_claimId",
          "type": "bytes16"
        }
      ],
      "name": "getGoodsInfo",
      "outputs": [
        {
          "name": "author",
          "type": "address"
        },
        {
          "name": "pricing",
          "type": "uint256"
        }
      ],
      "payable": false,
      "stateMutability": "view",
      "type": "function"
    }
  ],
  "bytecode": "0x608060405234801561001057600080fd5b5060405160208061348783398101806040528101908080519060200190929190505050336000806101000a81548173ffffffffffffffffffffffffffffffffffffffff021916908373ffffffffffffffffffffffffffffffffffffffff16021790555033600260006101000a81548173ffffffffffffffffffffffffffffffffffffffff021916908373ffffffffffffffffffffffffffffffffffffffff160217905550806000806101000a81548173ffffffffffffffffffffffffffffffffffffffff021916908373ffffffffffffffffffffffffffffffffffffffff1602179055506001600360003373ffffffffffffffffffffffffffffffffffffffff1673ffffffffffffffffffffffffffffffffffffffff16815260200190815260200160002060006101000a81548160ff0219169083151502179055505061332b8061015c6000396000f30060806040526004361061011d576000357c0100000000000000000000000000000000000000000000000000000000900463ffffffff1680632cc576bb1461012257806335e60e89146101ba5780635be7cc16146102385780635cdfd92e1461027b5780635ee16472146102df578063715018a6146103f8578063787b4f091461040f57806379ba50971461049157806384e972eb146104a85780638b8c84b71461052f5780638da5cb5b146105875780639b03ced2146105de578063a146be7c14610636578063a8e1fba31461068e578063c05465d7146106f5578063d4ee1d9014610779578063e56a7c5d146107d0578063eb16ea6d1461082b578063f2fde38b1461090a578063f851a4401461094d578063fa86de41146109a4575b600080fd5b34801561012e57600080fd5b506101a060048036038101908080356fffffffffffffffffffffffffffffffff19169060200190929190803573ffffffffffffffffffffffffffffffffffffffff169060200190929190803573ffffffffffffffffffffffffffffffffffffffff169060200190929190505050610a6c565b604051808215151515815260200191505060405180910390f35b3480156101c657600080fd5b5061021e60048036038101908080359060200190820180359060200190808060200260200160405190810160405280939291908181526020018383602002808284378201915050505050509192919290505050610e6c565b604051808215151515815260200191505060405180910390f35b34801561024457600080fd5b50610279600480360381019080803573ffffffffffffffffffffffffffffffffffffffff1690602001909291905050506110c0565b005b34801561028757600080fd5b506102c560048036038101908080356fffffffffffffffffffffffffffffffff19169060200190929190803515159060200190929190505050611233565b604051808215151515815260200191505060405180910390f35b3480156102eb57600080fd5b5061031d60048036038101908080356fffffffffffffffffffffffffffffffff19169060200190929190505050611580565b604051808873ffffffffffffffffffffffffffffffffffffffff1673ffffffffffffffffffffffffffffffffffffffff16815260200180602001878152602001868152602001858152602001841515151581526020018360ff1660ff168152602001828103825288818151815260200191508051906020019080838360005b838110156103b757808201518184015260208101905061039c565b50505050905090810190601f1680156103e45780820380516001836020036101000a031916815260200191505b509850505050505050505060405180910390f35b34801561040457600080fd5b5061040d611978565b005b34801561041b57600080fd5b5061047760048036038101908080356fffffffffffffffffffffffffffffffff19169060200190929190803573ffffffffffffffffffffffffffffffffffffffff16906020019092919080359060200190929190505050611a7a565b604051808215151515815260200191505060405180910390f35b34801561049d57600080fd5b506104a6611d61565b005b3480156104b457600080fd5b506104e660048036038101908080356fffffffffffffffffffffffffffffffff19169060200190929190505050611f00565b604051808373ffffffffffffffffffffffffffffffffffffffff1673ffffffffffffffffffffffffffffffffffffffff1681526020018281526020019250505060405180910390f35b34801561053b57600080fd5b5061056d60048036038101908080356fffffffffffffffffffffffffffffffff19169060200190929190505050611fa6565b604051808215151515815260200191505060405180910390f35b34801561059357600080fd5b5061059c6122b5565b604051808273ffffffffffffffffffffffffffffffffffffffff1673ffffffffffffffffffffffffffffffffffffffff16815260200191505060405180910390f35b3480156105ea57600080fd5b5061061c60048036038101908080356fffffffffffffffffffffffffffffffff191690602001909291905050506122da565b604051808215151515815260200191505060405180910390f35b34801561064257600080fd5b5061067460048036038101908080356fffffffffffffffffffffffffffffffff19169060200190929190505050612380565b604051808215151515815260200191505060405180910390f35b34801561069a57600080fd5b506106db600480360381019080803573ffffffffffffffffffffffffffffffffffffffff1690602001909291908035151590602001909291905050506124c4565b604051808215151515815260200191505060405180910390f35b34801561070157600080fd5b5061075f60048036038101908080356fffffffffffffffffffffffffffffffff19169060200190929190803573ffffffffffffffffffffffffffffffffffffffff1690602001909291908035151590602001909291905050506126fd565b604051808215151515815260200191505060405180910390f35b34801561078557600080fd5b5061078e612a0c565b604051808273ffffffffffffffffffffffffffffffffffffffff1673ffffffffffffffffffffffffffffffffffffffff16815260200191505060405180910390f35b3480156107dc57600080fd5b50610811600480360381019080803573ffffffffffffffffffffffffffffffffffffffff169060200190929190505050612a32565b604051808215151515815260200191505060405180910390f35b34801561083757600080fd5b506108f060048036038101908080356fffffffffffffffffffffffffffffffff19169060200190929190803590602001908201803590602001908080601f0160208091040260200160405190810160405280939291908181526020018383808284378201915050505050509192919290803573ffffffffffffffffffffffffffffffffffffffff1690602001909291908035906020019092919080359060200190929190803560ff169060200190929190505050612a52565b604051808215151515815260200191505060405180910390f35b34801561091657600080fd5b5061094b600480360381019080803573ffffffffffffffffffffffffffffffffffffffff169060200190929190505050612e6b565b005b34801561095957600080fd5b50610962612f46565b604051808273ffffffffffffffffffffffffffffffffffffffff1673ffffffffffffffffffffffffffffffffffffffff16815260200191505060405180910390f35b3480156109b057600080fd5b50610a5260048036038101908080356fffffffffffffffffffffffffffffffff19169060200190929190803573ffffffffffffffffffffffffffffffffffffffff169060200190929190803590602001908201803590602001908080601f016020809104026020016040519081016040528093929190818152602001838380828437820191505050505050919291929080359060200190929190505050612f6c565b604051808215151515815260200191505060405180910390f35b600060011515600360003373ffffffffffffffffffffffffffffffffffffffff1673ffffffffffffffffffffffffffffffffffffffff16815260200190815260200160002060009054906101000a900460ff161515141515610b17577f0489f2369368f4688acd012107ac5a7d98ca739b913449d852f35d871e433cc3600e6040518082601e811115610afb57fe5b60ff16815260200191505060405180910390a160009050610e65565b8273ffffffffffffffffffffffffffffffffffffffff1660046000866fffffffffffffffffffffffffffffffff19166fffffffffffffffffffffffffffffffff1916815260200190815260200160002060030160009054906101000a900473ffffffffffffffffffffffffffffffffffffffff1673ffffffffffffffffffffffffffffffffffffffff16141515610bf7577f0489f2369368f4688acd012107ac5a7d98ca739b913449d852f35d871e433cc360106040518082601e811115610bdb57fe5b60ff16815260200191505060405180910390a160009050610e65565b600073ffffffffffffffffffffffffffffffffffffffff168273ffffffffffffffffffffffffffffffffffffffff161415610c7b577f0489f2369368f4688acd012107ac5a7d98ca739b913449d852f35d871e433cc360026040518082601e811115610c5f57fe5b60ff16815260200191505060405180910390a160009050610e65565b8173ffffffffffffffffffffffffffffffffffffffff1660046000866fffffffffffffffffffffffffffffffff19166fffffffffffffffffffffffffffffffff1916815260200190815260200160002060030160009054906101000a900473ffffffffffffffffffffffffffffffffffffffff1673ffffffffffffffffffffffffffffffffffffffff161415610d5a577f0489f2369368f4688acd012107ac5a7d98ca739b913449d852f35d871e433cc360116040518082601e811115610d3e57fe5b60ff16815260200191505060405180910390a160009050610e65565b8173ffffffffffffffffffffffffffffffffffffffff168373ffffffffffffffffffffffffffffffffffffffff167f8e06c2cfcef793685a2ccba7a42b25752d38d5e6ce9121224f4a3ecf80f596328660405180826fffffffffffffffffffffffffffffffff19166fffffffffffffffffffffffffffffffff1916815260200191505060405180910390a38160046000866fffffffffffffffffffffffffffffffff19166fffffffffffffffffffffffffffffffff1916815260200190815260200160002060030160006101000a81548173ffffffffffffffffffffffffffffffffffffffff021916908373ffffffffffffffffffffffffffffffffffffffff160217905550600190505b9392505050565b6000806000809054906101000a900473ffffffffffffffffffffffffffffffffffffffff1673ffffffffffffffffffffffffffffffffffffffff163373ffffffffffffffffffffffffffffffffffffffff1614158015610f1a5750600260009054906101000a900473ffffffffffffffffffffffffffffffffffffffff1673ffffffffffffffffffffffffffffffffffffffff163373ffffffffffffffffffffffffffffffffffffffff1614155b15610f6e577f0489f2369368f4688acd012107ac5a7d98ca739b913449d852f35d871e433cc3600f6040518082601e811115610f5257fe5b60ff16815260200191505060405180910390a1600091506110ba565b600090505b82518110156110b557600073ffffffffffffffffffffffffffffffffffffffff168382815181101515610fa257fe5b9060200190602002015173ffffffffffffffffffffffffffffffffffffffff1614151515610fcf57600080fd5b6001600360008584815181101515610fe357fe5b9060200190602002015173ffffffffffffffffffffffffffffffffffffffff1673ffffffffffffffffffffffffffffffffffffffff16815260200190815260200160002060006101000a81548160ff021916908315150217905550828181518110151561104c57fe5b9060200190602002015173ffffffffffffffffffffffffffffffffffffffff167f9b3b880c67f4fab4215412179771cffd326a045e6016a7e363eb38460f7e91766001604051808215151515815260200191505060405180910390a28080600101915050610f73565b600191505b50919050565b6000809054906101000a900473ffffffffffffffffffffffffffffffffffffffff1673ffffffffffffffffffffffffffffffffffffffff163373ffffffffffffffffffffffffffffffffffffffff1614806111685750600260009054906101000a900473ffffffffffffffffffffffffffffffffffffffff1673ffffffffffffffffffffffffffffffffffffffff163373ffffffffffffffffffffffffffffffffffffffff16145b151561117357600080fd5b8073ffffffffffffffffffffffffffffffffffffffff16600260009054906101000a900473ffffffffffffffffffffffffffffffffffffffff1673ffffffffffffffffffffffffffffffffffffffff167ff73aa4459d935dbacd9313fffe485016147551d99ef401461704cd39e6e9028760405160405180910390a380600260006101000a81548173ffffffffffffffffffffffffffffffffffffffff021916908373ffffffffffffffffffffffffffffffffffffffff16021790555050565b60008060009054906101000a900473ffffffffffffffffffffffffffffffffffffffff1673ffffffffffffffffffffffffffffffffffffffff163373ffffffffffffffffffffffffffffffffffffffff16141580156112e05750600260009054906101000a900473ffffffffffffffffffffffffffffffffffffffff1673ffffffffffffffffffffffffffffffffffffffff163373ffffffffffffffffffffffffffffffffffffffff1614155b15611334577f0489f2369368f4688acd012107ac5a7d98ca739b913449d852f35d871e433cc3600f6040518082601e81111561131857fe5b60ff16815260200191505060405180910390a16000905061157a565b600073ffffffffffffffffffffffffffffffffffffffff1660046000856fffffffffffffffffffffffffffffffff19166fffffffffffffffffffffffffffffffff1916815260200190815260200160002060030160009054906101000a900473ffffffffffffffffffffffffffffffffffffffff1673ffffffffffffffffffffffffffffffffffffffff161415611414577f0489f2369368f4688acd012107ac5a7d98ca739b913449d852f35d871e433cc360096040518082601e8111156113f857fe5b60ff16815260200191505060405180910390a16000905061157a565b81151560046000856fffffffffffffffffffffffffffffffff19166fffffffffffffffffffffffffffffffff1916815260200190815260200160002060030160169054906101000a900460ff16151514156114b8577f0489f2369368f4688acd012107ac5a7d98ca739b913449d852f35d871e433cc360116040518082601e81111561149c57fe5b60ff16815260200191505060405180910390a16000905061157a565b7fa7403bf420bc21921afd2c34304326fbbea8ed6d859906a015241eab84efaddb838360405180836fffffffffffffffffffffffffffffffff19166fffffffffffffffffffffffffffffffff19168152602001821515151581526020019250505060405180910390a18160046000856fffffffffffffffffffffffffffffffff19166fffffffffffffffffffffffffffffffff1916815260200190815260200160002060030160166101000a81548160ff021916908315150217905550600190505b92915050565b6000606060008060008060008073ffffffffffffffffffffffffffffffffffffffff16600460008a6fffffffffffffffffffffffffffffffff19166fffffffffffffffffffffffffffffffff1916815260200190815260200160002060030160009054906101000a900473ffffffffffffffffffffffffffffffffffffffff1673ffffffffffffffffffffffffffffffffffffffff161480611672575060001515600360003373ffffffffffffffffffffffffffffffffffffffff1673ffffffffffffffffffffffffffffffffffffffff16815260200190815260200160002060009054906101000a900460ff161515145b156116de57600080600080600160008595506040805190810160405280600481526020017f4e756c6c000000000000000000000000000000000000000000000000000000008152509493929190849450839350829250809050965096509650965096509650965061196d565b60046000896fffffffffffffffffffffffffffffffff19166fffffffffffffffffffffffffffffffff1916815260200190815260200160002060030160009054906101000a900473ffffffffffffffffffffffffffffffffffffffff16600460008a6fffffffffffffffffffffffffffffffff19166fffffffffffffffffffffffffffffffff19168152602001908152602001600020600401600460008b6fffffffffffffffffffffffffffffffff19166fffffffffffffffffffffffffffffffff1916815260200190815260200160002060000154600460008c6fffffffffffffffffffffffffffffffff19166fffffffffffffffffffffffffffffffff1916815260200190815260200160002060010154600460008d6fffffffffffffffffffffffffffffffff19166fffffffffffffffffffffffffffffffff1916815260200190815260200160002060020154600460008e6fffffffffffffffffffffffffffffffff19166fffffffffffffffffffffffffffffffff1916815260200190815260200160002060030160159054906101000a900460ff16600460008f6fffffffffffffffffffffffffffffffff19166fffffffffffffffffffffffffffffffff1916815260200190815260200160002060030160149054906101000a900460ff16858054600181600116156101000203166002900480601f0160208091040260200160405190810160405280929190818152602001828054600181600116156101000203166002900480156119575780601f1061192c57610100808354040283529160200191611957565b820191906000526020600020905b81548152906001019060200180831161193a57829003601f168201915b5050505050955096509650965096509650965096505b919395979092949650565b6000809054906101000a900473ffffffffffffffffffffffffffffffffffffffff1673ffffffffffffffffffffffffffffffffffffffff163373ffffffffffffffffffffffffffffffffffffffff161415156119d357600080fd5b6000809054906101000a900473ffffffffffffffffffffffffffffffffffffffff1673ffffffffffffffffffffffffffffffffffffffff167f2dde1bc8b58ef192e7df3e7a354521d958331021e450d544346b936936916ef460405160405180910390a260008060006101000a81548173ffffffffffffffffffffffffffffffffffffffff021916908373ffffffffffffffffffffffffffffffffffffffff160217905550565b600060011515600360003373ffffffffffffffffffffffffffffffffffffffff1673ffffffffffffffffffffffffffffffffffffffff16815260200190815260200160002060009054906101000a900460ff161515141515611b25577f0489f2369368f4688acd012107ac5a7d98ca739b913449d852f35d871e433cc3600e6040518082601e811115611b0957fe5b60ff16815260200191505060405180910390a160009050611d5a565b8273ffffffffffffffffffffffffffffffffffffffff1660046000866fffffffffffffffffffffffffffffffff19166fffffffffffffffffffffffffffffffff1916815260200190815260200160002060030160009054906101000a900473ffffffffffffffffffffffffffffffffffffffff1673ffffffffffffffffffffffffffffffffffffffff16141515611c05577f0489f2369368f4688acd012107ac5a7d98ca739b913449d852f35d871e433cc360106040518082601e811115611be957fe5b60ff16815260200191505060405180910390a160009050611d5a565b8160046000866fffffffffffffffffffffffffffffffff19166fffffffffffffffffffffffffffffffff19168152602001908152602001600020600201541415611c98577f0489f2369368f4688acd012107ac5a7d98ca739b913449d852f35d871e433cc360116040518082601e811115611c7c57fe5b60ff16815260200191505060405180910390a160009050611d5a565b8273ffffffffffffffffffffffffffffffffffffffff167f777fc5aece160ef7e201784e61220c38596fac4365dfad462979c813acd099ab858460405180836fffffffffffffffffffffffffffffffff19166fffffffffffffffffffffffffffffffff191681526020018281526020019250505060405180910390a28160046000866fffffffffffffffffffffffffffffffff19166fffffffffffffffffffffffffffffffff1916815260200190815260200160002060020181905550600190505b9392505050565b600160009054906101000a900473ffffffffffffffffffffffffffffffffffffffff1673ffffffffffffffffffffffffffffffffffffffff163373ffffffffffffffffffffffffffffffffffffffff16141515611dbd57600080fd5b600160009054906101000a900473ffffffffffffffffffffffffffffffffffffffff1673ffffffffffffffffffffffffffffffffffffffff166000809054906101000a900473ffffffffffffffffffffffffffffffffffffffff1673ffffffffffffffffffffffffffffffffffffffff167fdb6d05f3295cede580affa301a1eb5297528f3b3f6a56b075887ce6f61c45f2160405160405180910390a3600160009054906101000a900473ffffffffffffffffffffffffffffffffffffffff166000806101000a81548173ffffffffffffffffffffffffffffffffffffffff021916908373ffffffffffffffffffffffffffffffffffffffff1602179055506000600160006101000a81548173ffffffffffffffffffffffffffffffffffffffff021916908373ffffffffffffffffffffffffffffffffffffffff160217905550565b60008060046000846fffffffffffffffffffffffffffffffff19166fffffffffffffffffffffffffffffffff1916815260200190815260200160002060030160009054906101000a900473ffffffffffffffffffffffffffffffffffffffff1660046000856fffffffffffffffffffffffffffffffff19166fffffffffffffffffffffffffffffffff191681526020019081526020016000206002015491509150915091565b60008060009054906101000a900473ffffffffffffffffffffffffffffffffffffffff1673ffffffffffffffffffffffffffffffffffffffff163373ffffffffffffffffffffffffffffffffffffffff16141580156120535750600260009054906101000a900473ffffffffffffffffffffffffffffffffffffffff1673ffffffffffffffffffffffffffffffffffffffff163373ffffffffffffffffffffffffffffffffffffffff1614155b156120a7577f0489f2369368f4688acd012107ac5a7d98ca739b913449d852f35d871e433cc3600f6040518082601e81111561208b57fe5b60ff16815260200191505060405180910390a1600090506122b0565b600073ffffffffffffffffffffffffffffffffffffffff1660046000846fffffffffffffffffffffffffffffffff19166fffffffffffffffffffffffffffffffff1916815260200190815260200160002060030160009054906101000a900473ffffffffffffffffffffffffffffffffffffffff1673ffffffffffffffffffffffffffffffffffffffff161415612187577f0489f2369368f4688acd012107ac5a7d98ca739b913449d852f35d871e433cc360096040518082601e81111561216b57fe5b60ff16815260200191505060405180910390a1600090506122b0565b60046000836fffffffffffffffffffffffffffffffff19166fffffffffffffffffffffffffffffffff19168152602001908152602001600020600080820160009055600182016000905560028201600090556003820160006101000a81549073ffffffffffffffffffffffffffffffffffffffff02191690556003820160146101000a81549060ff02191690556003820160156101000a81549060ff02191690556003820160166101000a81549060ff021916905560048201600061224c9190613212565b50507f764a7c28cbfff30d38ca9641bdb90ae9589e815fcc6ee971ef6ed876e717b2238260405180826fffffffffffffffffffffffffffffffff19166fffffffffffffffffffffffffffffffff1916815260200191505060405180910390a1600190505b919050565b6000809054906101000a900473ffffffffffffffffffffffffffffffffffffffff1681565b60008073ffffffffffffffffffffffffffffffffffffffff1660046000846fffffffffffffffffffffffffffffffff19166fffffffffffffffffffffffffffffffff1916815260200190815260200160002060030160009054906101000a900473ffffffffffffffffffffffffffffffffffffffff1673ffffffffffffffffffffffffffffffffffffffff16141515612376576001905061237b565b600090505b919050565b60008073ffffffffffffffffffffffffffffffffffffffff1660046000846fffffffffffffffffffffffffffffffff19166fffffffffffffffffffffffffffffffff1916815260200190815260200160002060030160009054906101000a900473ffffffffffffffffffffffffffffffffffffffff1673ffffffffffffffffffffffffffffffffffffffff1614806124545750600060046000846fffffffffffffffffffffffffffffffff19166fffffffffffffffffffffffffffffffff1916815260200190815260200160002060020154145b806124ac57506001151560046000846fffffffffffffffffffffffffffffffff19166fffffffffffffffffffffffffffffffff1916815260200190815260200160002060030160159054906101000a900460ff161515145b156124ba57600090506124bf565b600190505b919050565b60008060009054906101000a900473ffffffffffffffffffffffffffffffffffffffff1673ffffffffffffffffffffffffffffffffffffffff163373ffffffffffffffffffffffffffffffffffffffff16141580156125715750600260009054906101000a900473ffffffffffffffffffffffffffffffffffffffff1673ffffffffffffffffffffffffffffffffffffffff163373ffffffffffffffffffffffffffffffffffffffff1614155b156125c5577f0489f2369368f4688acd012107ac5a7d98ca739b913449d852f35d871e433cc3600f6040518082601e8111156125a957fe5b60ff16815260200191505060405180910390a1600090506126f7565b600073ffffffffffffffffffffffffffffffffffffffff168373ffffffffffffffffffffffffffffffffffffffff161415612649577f0489f2369368f4688acd012107ac5a7d98ca739b913449d852f35d871e433cc360026040518082601e81111561262d57fe5b60ff16815260200191505060405180910390a1600090506126f7565b81600360008573ffffffffffffffffffffffffffffffffffffffff1673ffffffffffffffffffffffffffffffffffffffff16815260200190815260200160002060006101000a81548160ff0219169083151502179055508273ffffffffffffffffffffffffffffffffffffffff167f9b3b880c67f4fab4215412179771cffd326a045e6016a7e363eb38460f7e917683604051808215151515815260200191505060405180910390a2600190505b92915050565b600060011515600360003373ffffffffffffffffffffffffffffffffffffffff1673ffffffffffffffffffffffffffffffffffffffff16815260200190815260200160002060009054906101000a900460ff1615151415156127a8577f0489f2369368f4688acd012107ac5a7d98ca739b913449d852f35d871e433cc3600e6040518082601e81111561278c57fe5b60ff16815260200191505060405180910390a160009050612a05565b8273ffffffffffffffffffffffffffffffffffffffff1660046000866fffffffffffffffffffffffffffffffff19166fffffffffffffffffffffffffffffffff1916815260200190815260200160002060030160009054906101000a900473ffffffffffffffffffffffffffffffffffffffff1673ffffffffffffffffffffffffffffffffffffffff16141515612888577f0489f2369368f4688acd012107ac5a7d98ca739b913449d852f35d871e433cc360106040518082601e81111561286c57fe5b60ff16815260200191505060405180910390a160009050612a05565b81151560046000866fffffffffffffffffffffffffffffffff19166fffffffffffffffffffffffffffffffff1916815260200190815260200160002060030160159054906101000a900460ff161515141561292c577f0489f2369368f4688acd012107ac5a7d98ca739b913449d852f35d871e433cc360116040518082601e81111561291057fe5b60ff16815260200191505060405180910390a160009050612a05565b8273ffffffffffffffffffffffffffffffffffffffff167f8dc3a11079674c076f3730b7dc70e0aeacf6bee63471aca11ea1e19dfa076c1b858460405180836fffffffffffffffffffffffffffffffff19166fffffffffffffffffffffffffffffffff19168152602001821515151581526020019250505060405180910390a28160046000866fffffffffffffffffffffffffffffffff19166fffffffffffffffffffffffffffffffff1916815260200190815260200160002060030160156101000a81548160ff021916908315150217905550600190505b9392505050565b600160009054906101000a900473ffffffffffffffffffffffffffffffffffffffff1681565b60036020528060005260406000206000915054906101000a900460ff1681565b600060011515600360003373ffffffffffffffffffffffffffffffffffffffff1673ffffffffffffffffffffffffffffffffffffffff16815260200190815260200160002060009054906101000a900460ff161515141515612afd577f0489f2369368f4688acd012107ac5a7d98ca739b913449d852f35d871e433cc3600e6040518082601e811115612ae157fe5b60ff16815260200191505060405180910390a160009050612e61565b612b06876122da565b15612b5a577f0489f2369368f4688acd012107ac5a7d98ca739b913449d852f35d871e433cc3600a6040518082601e811115612b3e57fe5b60ff16815260200191505060405180910390a160009050612e61565b8460046000896fffffffffffffffffffffffffffffffff19166fffffffffffffffffffffffffffffffff1916815260200190815260200160002060030160006101000a81548173ffffffffffffffffffffffffffffffffffffffff021916908373ffffffffffffffffffffffffffffffffffffffff1602179055508560046000896fffffffffffffffffffffffffffffffff19166fffffffffffffffffffffffffffffffff191681526020019081526020016000206004019080519060200190612c2592919061325a565b504260046000896fffffffffffffffffffffffffffffffff19166fffffffffffffffffffffffffffffffff19168152602001908152602001600020600001819055508260046000896fffffffffffffffffffffffffffffffff19166fffffffffffffffffffffffffffffffff19168152602001908152602001600020600101819055508360046000896fffffffffffffffffffffffffffffffff19166fffffffffffffffffffffffffffffffff1916815260200190815260200160002060020181905550600060046000896fffffffffffffffffffffffffffffffff19166fffffffffffffffffffffffffffffffff1916815260200190815260200160002060030160156101000a81548160ff021916908315150217905550600060046000896fffffffffffffffffffffffffffffffff19166fffffffffffffffffffffffffffffffff1916815260200190815260200160002060030160166101000a81548160ff0219169083151502179055508160046000896fffffffffffffffffffffffffffffffff19166fffffffffffffffffffffffffffffffff1916815260200190815260200160002060030160146101000a81548160ff021916908360ff1602179055508473ffffffffffffffffffffffffffffffffffffffff167f275e740d4f976e07c5fa36650f24fac7c75e7793994b188e35d3dbae717a2d588860405180826fffffffffffffffffffffffffffffffff19166fffffffffffffffffffffffffffffffff1916815260200191505060405180910390a2600190505b9695505050505050565b6000809054906101000a900473ffffffffffffffffffffffffffffffffffffffff1673ffffffffffffffffffffffffffffffffffffffff163373ffffffffffffffffffffffffffffffffffffffff16141515612ec657600080fd5b600073ffffffffffffffffffffffffffffffffffffffff168173ffffffffffffffffffffffffffffffffffffffff1614151515612f0257600080fd5b80600160006101000a81548173ffffffffffffffffffffffffffffffffffffffff021916908373ffffffffffffffffffffffffffffffffffffffff16021790555050565b600260009054906101000a900473ffffffffffffffffffffffffffffffffffffffff1681565b600060011515600360003373ffffffffffffffffffffffffffffffffffffffff1673ffffffffffffffffffffffffffffffffffffffff16815260200190815260200160002060009054906101000a900460ff161515141515613017577f0489f2369368f4688acd012107ac5a7d98ca739b913449d852f35d871e433cc3600e6040518082601e811115612ffb57fe5b60ff16815260200191505060405180910390a16000905061320a565b8373ffffffffffffffffffffffffffffffffffffffff1660046000876fffffffffffffffffffffffffffffffff19166fffffffffffffffffffffffffffffffff1916815260200190815260200160002060030160009054906101000a900473ffffffffffffffffffffffffffffffffffffffff1673ffffffffffffffffffffffffffffffffffffffff161415156130f7577f0489f2369368f4688acd012107ac5a7d98ca739b913449d852f35d871e433cc360106040518082601e8111156130db57fe5b60ff16815260200191505060405180910390a16000905061320a565b8260046000876fffffffffffffffffffffffffffffffff19166fffffffffffffffffffffffffffffffff19168152602001908152602001600020600401908051906020019061314792919061325a565b508160046000876fffffffffffffffffffffffffffffffff19166fffffffffffffffffffffffffffffffff19168152602001908152602001600020600201819055508373ffffffffffffffffffffffffffffffffffffffff167f8fbda8d8c575a16d0a4260d8f5036924910260bded2cfb19b020237f3514b487868460405180836fffffffffffffffffffffffffffffffff19166fffffffffffffffffffffffffffffffff191681526020018281526020019250505060405180910390a2600190505b949350505050565b50805460018160011615610100020316600290046000825580601f106132385750613257565b601f01602090049060005260206000209081019061325691906132da565b5b50565b828054600181600116156101000203166002900490600052602060002090601f016020900481019282601f1061329b57805160ff19168380011785556132c9565b828001600101855582156132c9579182015b828111156132c85782518255916020019190600101906132ad565b5b5090506132d691906132da565b5090565b6132fc91905b808211156132f85760008160009055506001016132e0565b5090565b905600a165627a7a7230582069a1d92510dba6b1076b498c9789977f8786dacea53c0e5da4366023428beb830029",
  "source": "pragma solidity ^0.4.24;\n\nimport \"./SafeMath.sol\";\nimport \"./WhiteMange.sol\";\n\n\ncontract ClaimDB is WhiteMange {\n    using SafeMath for uint256;\n\n    struct Claim {\n        uint256     initDate;      // date of resource upload\n        uint256     deposit;       // declare a deposit required for a resource\n        uint256     pricing;       // pricing of resource\n        address     author;        // owner of the resource\n        uint8       types;          // type of resource\n        bool        waive;         // the flag that the author gave up\n        bool        forbidden;     // resources regulatory flag\n        string      udfs;          // the HASH value of the resource in the UDFS\n    }\n\n    mapping (bytes16 => Claim) private store_;\n\n\n    /* Successfully claimed a new resource. */\n    event LogNewClaim(bytes16 _claimId, address indexed _author);\n\n    /* Update the content of the resource. */\n    event LogUpdateClaimUdfs(bytes16 _claimId, address indexed _author, uint256 _pricing);\n\n    /* Update an attribute in a resource. */\n    event LogUpdateClaimAuthor(bytes16 _claimId, address indexed _author, address indexed _newAuthor);\n    event LogUpdateClaimPricing(bytes16 _claimId, address indexed _author, uint256 _newPricinge);\n    event LogUpdateClaimWaive(bytes16 _claimId, address indexed _author, bool _waive);\n    event LogUpdateClaimForbidden(bytes16 _claimId, bool _forbidden);\n\n    /* Delete a resource that has already been claimed. */\n    event LogDeleteClaim(bytes16 _claimId);\n\n\n    /**\n     * @dev Constructor.\n     * @param _owner address : The address of the contract owner.\n     */\n    constructor(address _owner) public {\n        owner = _owner;\n        whitelist_[msg.sender] = true;\n    }\n\n    /**\n     * @dev Insert a new resource.\n     * @param _cid     bytes16  : Resource index(ClaimID).\n     * @param _udfs    string   : The UDFS Hash value of the resource.\n     * @param _author  address  : Declare the address of the resource.\n     * @param _pricing uint256  : Pricing of resources.\n     * @param _deposit uint256  : Declare a deposit required for a resource.\n     * @param _type    uint8    : Type of resource.\n     * @return         bool     : The successful call returns true.\n     */\n    function insertClaim(bytes16 _cid, string _udfs, address _author, uint256 _pricing, uint256 _deposit, uint8 _type)\n        public\n        returns(bool)\n    {\n        if (whitelist_[msg.sender] != true){\n            emit LogError(RScorr.Insufficient);\n            return false;\n        } // Check the caller's whitelist permission.\n\n        if (isExist(_cid)){\n            emit LogError(RScorr.ObjExist);\n            return false;\n        } // Check if the resource exists.\n\n        store_[_cid].author    = _author;\n        store_[_cid].udfs      = _udfs;\n        store_[_cid].initDate  = now;\n        store_[_cid].deposit   = _deposit;\n        store_[_cid].pricing   = _pricing;\n        store_[_cid].waive     = false;\n        store_[_cid].forbidden = false;\n        store_[_cid].types      = _type;\n\n        emit LogNewClaim(_cid, _author);\n\n        return true;\n    }\n\n    /**\n     * @dev Update the content of the resource (UDFS hash) and the pricing.\n     * @param _cid       bytes16  : Resource index(ClaimID).\n     * @param _author    address  : Declare the address of the resource.\n     * @param _udfs      string   : The UDFS Hash value of the resource.\n     * @param _pricing   uint256  : New pricing of resources.\n     * @return           bool     : The successful call returns true.\n     */\n    function updateClaim(bytes16 _cid, address _author, string _udfs, uint256 _pricing)\n        public\n        returns(bool)\n    {\n        if (whitelist_[msg.sender] != true){\n            emit LogError(RScorr.Insufficient);\n            return false;\n        } // Check the caller's whitelist permission.\n\n        if(store_[_cid].author != _author) {\n            emit LogError(RScorr.IdCertifyFailed);\n            return false;\n        } // Verify that the resource is the caller's.\n\n\n        store_[_cid].udfs    = _udfs;\n        store_[_cid].pricing = _pricing;\n\n        emit LogUpdateClaimUdfs(_cid, _author, _pricing);\n\n        return true;\n    }\n\n\n    /**\n     * @dev Update the author address of the resource.\n     * @param _cid       bytes16  : Resource index(ClaimID).\n     * @param _author    address  : Claim the address of the resource.\n     * @param _newAuthor address  : New owners of resources.\n     * @return           bool     : The successful call returns true.\n     */\n    function updateClaimAuthor(bytes16 _cid, address _author, address _newAuthor)\n        public\n        returns(bool)\n    {\n        if (whitelist_[msg.sender] != true){\n            emit LogError(RScorr.Insufficient);\n            return false;\n        } // Check the caller's whitelist permission.\n\n        if(store_[_cid].author != _author) {\n            emit LogError(RScorr.IdCertifyFailed);\n            return false;\n        } // Verify that the resource is the caller's.\n\n        if(_newAuthor == address(0)) {\n            emit LogError(RScorr.InvalidAddr);\n            return false;\n        } // The owner of the resource cannot be empty.\n\n        if(store_[_cid].author == _newAuthor){\n            emit LogError(RScorr.Insignificance);\n            return false;\n        } // The updated content should not be the same.\n\n        emit LogUpdateClaimAuthor(_cid, _author, _newAuthor);\n\n        store_[_cid].author = _newAuthor;\n        return true;\n    }\n\n\n    /**\n     * @dev Update the pricing of the resource.\n     * @param _cid        bytes16  : Resource index(ClaimID).\n     * @param _author     address  : Claim the address of the resource.\n     * @param _newPricing address  : New pricing of resources.\n     * @return            bool     : The successful call returns true.\n     */\n    function updateClaimPricing(bytes16 _cid, address _author, uint256 _newPricing)\n        public\n        returns(bool)\n    {\n        if (whitelist_[msg.sender] != true){\n            emit LogError(RScorr.Insufficient);\n            return false;\n        } // Check the caller's whitelist permission.\n\n        if(store_[_cid].author != _author){\n            emit LogError(RScorr.IdCertifyFailed);\n            return false;\n        } // Verify that the resource is the caller's.\n\n        if(store_[_cid].pricing == _newPricing){\n            emit LogError(RScorr.Insignificance);\n            return false;\n        } // The updated content should not be the same.\n\n        emit LogUpdateClaimPricing(_cid, _author, _newPricing);\n\n        store_[_cid].pricing = _newPricing;\n        return true;\n    }\n\n    /**\n     * @dev The author abandons a resource.\n     * @notice Canceling resource abandonment cannot be invoked by the author.\n     * @param _cid     bytes16  : Resource index(ClaimID).\n     * @param _author  address  : Claim the address of the resource.\n     * @param _waive    bool    : True means give up, false means cancel.\n     * @return          bool    : The successful call returns true.\n     */\n    function updateClaimWaive(bytes16 _cid, address _author, bool _waive)\n        public\n        returns(bool)\n    {\n        if (whitelist_[msg.sender] != true){\n            emit LogError(RScorr.Insufficient);\n            return false;\n        } // Check the caller's whitelist permission.\n\n        if(store_[_cid].author != _author) {\n            emit LogError(RScorr.IdCertifyFailed);\n            return false;\n        } // Verify that the resource is the caller's.\n\n        if(store_[_cid].waive == _waive) {\n            emit LogError(RScorr.Insignificance);\n            return false;\n        } // The updated content should not be the same.\n\n        emit LogUpdateClaimWaive(_cid, _author, _waive);\n        store_[_cid].waive = _waive;\n\n        return true;\n    }\n\n    /**\n     * @dev The administrator updates the Forbidden field of a resource\n     * @notice This function is limited to calls only by the admin or owner.\n     * @param _cid       bytes16 : Resource index(ClaimID).\n     * @param _forbidden bool    : True means forbidden, false means cancel.\n     * @return           bool    : The successful call returns true.\n     */\n    function updateClaimForbidden(bytes16 _cid, bool _forbidden) public returns(bool){\n        if(msg.sender != owner && msg.sender != admin){\n            emit LogError(RScorr.PermissionDenied);\n            return false;\n        } // Check if the caller is an administrator.\n\n        if(store_[_cid].author == address(0)) {\n            emit LogError(RScorr.ObjNotExist);\n            return false;\n        } // Check if the resource exists.\n\n        if(store_[_cid].forbidden == _forbidden) {\n            emit LogError(RScorr.Insignificance);\n            return false;\n        } // The updated content should not be the same.\n\n        emit LogUpdateClaimForbidden(_cid,  _forbidden);\n\n        store_[_cid].forbidden = _forbidden;\n        return true;\n    }\n\n    /**\n     * @dev Admin delete resources.\n     * @notice This function is limited to calls only by the admin or owner.\n     * @param _cid      bytes16  : Resource index(ClaimID).\n     * @return          bool     : The successful call returns true.\n     */\n    function deleteClaim(bytes16 _cid)\n        public\n        returns(bool)\n    {\n        if(msg.sender != owner && msg.sender != admin){\n            emit LogError(RScorr.PermissionDenied);\n            return false;\n        } // Check if the caller is an administrator.\n\n        if(store_[_cid].author == address(0)) {\n            emit LogError(RScorr.ObjNotExist);\n            return false;\n        } // Check if the resource exists.\n\n        delete store_[_cid];\n\n        emit LogDeleteClaim(_cid);\n\n        return true;\n    }\n\n    /////////////////////////\n    /// View\n    /////////////////////////\n\n    /**\n     * @dev Find details of a specified resource\n     * @notice Only allowed to be called by the address in the whitelist.\n     * @param _claimId   bytes16 : Resource index(ClaimID).\n     * @return                   : Specify the resource details.\n     *                    author : owner of the resource\n     *                      udfs : the HASH value of the resource in the UDFS\n     *                  initDate : release time\n     *                   deposit : declare a deposit required for a resource\n     *                   pricing : pricing\n     *                     waive : the flag that the author gave up\n     *                     types : type of resource\n     */\n    function getClaimInfoByID(bytes16 _claimId) public view returns(\n        address author,   string udfs, uint256 initDate, uint256 deposit,\n        uint256 pricing,  bool  waive, uint8   types)\n    {\n        if(store_[_claimId].author == address(0) || whitelist_[msg.sender] == false) {\n            return (0,\"Null\",0,0,0,true,0);\n        }\n\n        return (store_[_claimId].author,\n        store_[_claimId].udfs,\n        store_[_claimId].initDate,\n        store_[_claimId].deposit,\n        store_[_claimId].pricing,\n        store_[_claimId].waive,\n        //store_[_claimId].forbidden,\n        store_[_claimId].types);\n    }\n\n\n    /**\n     * @dev Check if the resource exists\n     * @param _claimId bytes16  : Resource index(ClaimID).\n     * @return            bool  : True means resources exist\n     */\n    function isExist(bytes16 _claimId)\n        view\n        public\n        returns(bool)\n    {\n        if (store_[_claimId].author != address(0)){\n            return true;\n        }\n        return false;\n    }\n\n\n    /**\n     * @dev Check if resources can be purchased\n     *  1. Resources do not exist.\n     *  2. When the pricing is zero, it means free\n     *  3. When the waive is true the author has removed this resource.\n     * @param _claimId bytes16  : Resource index(ClaimID).\n     * @return         bool     : True is purchasable.\n     */\n    function isSaleable(bytes16 _claimId)\n        view\n        public\n        returns(bool)\n    {\n        if (store_[_claimId].author == address(0) ||\n        store_[_claimId].pricing == 0             ||\n        store_[_claimId].waive   == true)\n        {\n            return false;\n        }\n        return true;\n    }\n\n\n    /**\n     * @dev Get purchase information for the resource.\n     * @notice It is recommended to judge with `isSaleable` first.\n     * @param _claimId bytes16  : Resource index(ClaimID).\n     * @return                  : Purchasing resources is required information.\n     *          author address  : Owner of the resource.\n     *         pricing uint256  : Pricing of resource.\n     */\n    function getGoodsInfo(bytes16 _claimId)\n        view\n        public\n        returns(address author, uint256 pricing)\n    {\n        return (store_[_claimId].author, store_[_claimId].pricing);\n    }\n\n//    /**\n//     * @dev Get pricing for resources\n//     * @param _claimId bytes16 : Resource index(ClaimID)\n//     * @return Pricing of resources\n//     */\n//    function getGoodsPricing(bytes16 _claimId)\n//        view\n//        public\n//        returns(uint256 pricing)\n//    {\n//        return store_[_claimId].pricing;\n//    }\n\n}",
  "sourcePath": "E:\\sol\\blog\\contracts\\ClaimDB.sol",
  "compiler": {
    "name": "solc",
    "version": "0.4.24+commit.e67f0147.Emscripten.clang"
  },
  "schemaVersion": "2.0.1",
  "updatedAt": "2018-08-27T09:46:48.201Z"
}