{
  "contractName": "DeployDB",
  "abi": [
    {
      "constant": true,
      "inputs": [],
      "name": "ClaimDB_",
      "outputs": [
        {
          "name": "",
          "type": "address"
        }
      ],
      "payable": false,
      "stateMutability": "view",
      "type": "function"
    },
    {
      "constant": false,
      "inputs": [
        {
          "name": "_newAdmin",
          "type": "address"
        }
      ],
      "name": "transferAdminship",
      "outputs": [],
      "payable": false,
      "stateMutability": "nonpayable",
      "type": "function"
    },
    {
      "constant": true,
      "inputs": [],
      "name": "OwnerAddr_",
      "outputs": [
        {
          "name": "",
          "type": "address"
        }
      ],
      "payable": false,
      "stateMutability": "view",
      "type": "function"
    },
    {
      "constant": true,
      "inputs": [],
      "name": "OrderDB_",
      "outputs": [
        {
          "name": "",
          "type": "address"
        }
      ],
      "payable": false,
      "stateMutability": "view",
      "type": "function"
    },
    {
      "constant": false,
      "inputs": [],
      "name": "renounceOwnership",
      "outputs": [],
      "payable": false,
      "stateMutability": "nonpayable",
      "type": "function"
    },
    {
      "constant": false,
      "inputs": [],
      "name": "acceptOwnership",
      "outputs": [],
      "payable": false,
      "stateMutability": "nonpayable",
      "type": "function"
    },
    {
      "constant": true,
      "inputs": [],
      "name": "InfoDB_",
      "outputs": [
        {
          "name": "",
          "type": "address"
        }
      ],
      "payable": false,
      "stateMutability": "view",
      "type": "function"
    },
    {
      "constant": true,
      "inputs": [],
      "name": "owner",
      "outputs": [
        {
          "name": "",
          "type": "address"
        }
      ],
      "payable": false,
      "stateMutability": "view",
      "type": "function"
    },
    {
      "constant": true,
      "inputs": [],
      "name": "initFlag_",
      "outputs": [
        {
          "name": "",
          "type": "bool"
        }
      ],
      "payable": false,
      "stateMutability": "view",
      "type": "function"
    },
    {
      "constant": true,
      "inputs": [],
      "name": "newOwner",
      "outputs": [
        {
          "name": "",
          "type": "address"
        }
      ],
      "payable": false,
      "stateMutability": "view",
      "type": "function"
    },
    {
      "constant": false,
      "inputs": [
        {
          "name": "_newOwner",
          "type": "address"
        }
      ],
      "name": "transferOwnership",
      "outputs": [],
      "payable": false,
      "stateMutability": "nonpayable",
      "type": "function"
    },
    {
      "constant": true,
      "inputs": [],
      "name": "admin",
      "outputs": [
        {
          "name": "",
          "type": "address"
        }
      ],
      "payable": false,
      "stateMutability": "view",
      "type": "function"
    },
    {
      "inputs": [],
      "payable": false,
      "stateMutability": "nonpayable",
      "type": "constructor"
    },
    {
      "anonymous": false,
      "inputs": [
        {
          "indexed": true,
          "name": "_old",
          "type": "address"
        },
        {
          "indexed": true,
          "name": "_new",
          "type": "address"
        }
      ],
      "name": "LogAdminshipTransferred",
      "type": "event"
    },
    {
      "anonymous": false,
      "inputs": [
        {
          "indexed": true,
          "name": "previousOwner",
          "type": "address"
        }
      ],
      "name": "LogOwnershipRenounced",
      "type": "event"
    },
    {
      "anonymous": false,
      "inputs": [
        {
          "indexed": true,
          "name": "previousOwner",
          "type": "address"
        },
        {
          "indexed": true,
          "name": "newOwner",
          "type": "address"
        }
      ],
      "name": "LogOwnershipTransferred",
      "type": "event"
    },
    {
      "constant": false,
      "inputs": [],
      "name": "init",
      "outputs": [],
      "payable": false,
      "stateMutability": "nonpayable",
      "type": "function"
    },
    {
      "constant": false,
      "inputs": [
        {
          "name": "_target",
          "type": "address"
        },
        {
          "name": "_allow",
          "type": "bool"
        }
      ],
      "name": "claimWhite",
      "outputs": [
        {
          "name": "",
          "type": "bool"
        }
      ],
      "payable": false,
      "stateMutability": "nonpayable",
      "type": "function"
    },
    {
      "constant": false,
      "inputs": [
        {
          "name": "_target",
          "type": "address"
        },
        {
          "name": "_allow",
          "type": "bool"
        }
      ],
      "name": "orderWhite",
      "outputs": [
        {
          "name": "",
          "type": "bool"
        }
      ],
      "payable": false,
      "stateMutability": "nonpayable",
      "type": "function"
    },
    {
      "constant": false,
      "inputs": [
        {
          "name": "_target",
          "type": "address"
        },
        {
          "name": "_allow",
          "type": "bool"
        }
      ],
      "name": "infoWhite",
      "outputs": [
        {
          "name": "",
          "type": "bool"
        }
      ],
      "payable": false,
      "stateMutability": "nonpayable",
      "type": "function"
    },
    {
      "constant": false,
      "inputs": [
        {
          "name": "_newAdmin",
          "type": "address"
        }
      ],
      "name": "end",
      "outputs": [
        {
          "name": "",
          "type": "bool"
        }
      ],
      "payable": false,
      "stateMutability": "nonpayable",
      "type": "function"
    }
  ],
  "bytecode": "0x60806040526000600660146101000a81548160ff0219169083151502179055503480156200002c57600080fd5b50336000806101000a81548173ffffffffffffffffffffffffffffffffffffffff021916908373ffffffffffffffffffffffffffffffffffffffff16021790555033600260006101000a81548173ffffffffffffffffffffffffffffffffffffffff021916908373ffffffffffffffffffffffffffffffffffffffff16021790555033600660006101000a81548173ffffffffffffffffffffffffffffffffffffffff021916908373ffffffffffffffffffffffffffffffffffffffff160217905550620001086200010e640100000000026401000000009004565b62000386565b600660009054906101000a900473ffffffffffffffffffffffffffffffffffffffff166200013b62000353565b808273ffffffffffffffffffffffffffffffffffffffff1673ffffffffffffffffffffffffffffffffffffffff168152602001915050604051809103906000f0801580156200018e573d6000803e3d6000fd5b50600360006101000a81548173ffffffffffffffffffffffffffffffffffffffff021916908373ffffffffffffffffffffffffffffffffffffffff160217905550600660009054906101000a900473ffffffffffffffffffffffffffffffffffffffff16620001fc62000364565b808273ffffffffffffffffffffffffffffffffffffffff1673ffffffffffffffffffffffffffffffffffffffff168152602001915050604051809103906000f0801580156200024f573d6000803e3d6000fd5b50600460006101000a81548173ffffffffffffffffffffffffffffffffffffffff021916908373ffffffffffffffffffffffffffffffffffffffff160217905550600660009054906101000a900473ffffffffffffffffffffffffffffffffffffffff16620002bd62000375565b808273ffffffffffffffffffffffffffffffffffffffff1673ffffffffffffffffffffffffffffffffffffffff168152602001915050604051809103906000f08015801562000310573d6000803e3d6000fd5b50600560006101000a81548173ffffffffffffffffffffffffffffffffffffffff021916908373ffffffffffffffffffffffffffffffffffffffff160217905550565b60405161348780620018cf83390190565b604051611a308062004d5683390190565b604051611b1c806200678683390190565b61153980620003966000396000f3006080604052600436106100f1576000357c0100000000000000000000000000000000000000000000000000000000900463ffffffff168063174a65d5146100f65780635be7cc161461014d5780636199c91d146101905780636c4824e4146101e75780637053c4501461024e578063715018a6146102a557806379ba5097146102bc57806388f9c3aa146102d35780638c4dd39d1461032a5780638da5cb5b14610385578063b42910e5146103dc578063c7d6225714610443578063d4ee1d9014610472578063e1c7392a146104c9578063e4597085146104e0578063f2fde38b14610547578063f851a4401461058a575b600080fd5b34801561010257600080fd5b5061010b6105e1565b604051808273ffffffffffffffffffffffffffffffffffffffff1673ffffffffffffffffffffffffffffffffffffffff16815260200191505060405180910390f35b34801561015957600080fd5b5061018e600480360381019080803573ffffffffffffffffffffffffffffffffffffffff169060200190929190505050610607565b005b34801561019c57600080fd5b506101a561077a565b604051808273ffffffffffffffffffffffffffffffffffffffff1673ffffffffffffffffffffffffffffffffffffffff16815260200191505060405180910390f35b3480156101f357600080fd5b50610234600480360381019080803573ffffffffffffffffffffffffffffffffffffffff1690602001909291908035151590602001909291905050506107a0565b604051808215151515815260200191505060405180910390f35b34801561025a57600080fd5b5061026361096e565b604051808273ffffffffffffffffffffffffffffffffffffffff1673ffffffffffffffffffffffffffffffffffffffff16815260200191505060405180910390f35b3480156102b157600080fd5b506102ba610994565b005b3480156102c857600080fd5b506102d1610a96565b005b3480156102df57600080fd5b506102e8610c35565b604051808273ffffffffffffffffffffffffffffffffffffffff1673ffffffffffffffffffffffffffffffffffffffff16815260200191505060405180910390f35b34801561033657600080fd5b5061036b600480360381019080803573ffffffffffffffffffffffffffffffffffffffff169060200190929190505050610c5b565b604051808215151515815260200191505060405180910390f35b34801561039157600080fd5b5061039a610f98565b604051808273ffffffffffffffffffffffffffffffffffffffff1673ffffffffffffffffffffffffffffffffffffffff16815260200191505060405180910390f35b3480156103e857600080fd5b50610429600480360381019080803573ffffffffffffffffffffffffffffffffffffffff169060200190929190803515159060200190929190505050610fbd565b604051808215151515815260200191505060405180910390f35b34801561044f57600080fd5b5061045861118b565b604051808215151515815260200191505060405180910390f35b34801561047e57600080fd5b5061048761119e565b604051808273ffffffffffffffffffffffffffffffffffffffff1673ffffffffffffffffffffffffffffffffffffffff16815260200191505060405180910390f35b3480156104d557600080fd5b506104de6111c4565b005b3480156104ec57600080fd5b5061052d600480360381019080803573ffffffffffffffffffffffffffffffffffffffff16906020019092919080351515906020019092919050505061123e565b604051808215151515815260200191505060405180910390f35b34801561055357600080fd5b50610588600480360381019080803573ffffffffffffffffffffffffffffffffffffffff16906020019092919050505061140c565b005b34801561059657600080fd5b5061059f6114e7565b604051808273ffffffffffffffffffffffffffffffffffffffff1673ffffffffffffffffffffffffffffffffffffffff16815260200191505060405180910390f35b600360009054906101000a900473ffffffffffffffffffffffffffffffffffffffff1681565b6000809054906101000a900473ffffffffffffffffffffffffffffffffffffffff1673ffffffffffffffffffffffffffffffffffffffff163373ffffffffffffffffffffffffffffffffffffffff1614806106af5750600260009054906101000a900473ffffffffffffffffffffffffffffffffffffffff1673ffffffffffffffffffffffffffffffffffffffff163373ffffffffffffffffffffffffffffffffffffffff16145b15156106ba57600080fd5b8073ffffffffffffffffffffffffffffffffffffffff16600260009054906101000a900473ffffffffffffffffffffffffffffffffffffffff1673ffffffffffffffffffffffffffffffffffffffff167ff73aa4459d935dbacd9313fffe485016147551d99ef401461704cd39e6e9028760405160405180910390a380600260006101000a81548173ffffffffffffffffffffffffffffffffffffffff021916908373ffffffffffffffffffffffffffffffffffffffff16021790555050565b600660009054906101000a900473ffffffffffffffffffffffffffffffffffffffff1681565b60008060009054906101000a900473ffffffffffffffffffffffffffffffffffffffff1673ffffffffffffffffffffffffffffffffffffffff163373ffffffffffffffffffffffffffffffffffffffff16148061084a5750600260009054906101000a900473ffffffffffffffffffffffffffffffffffffffff1673ffffffffffffffffffffffffffffffffffffffff163373ffffffffffffffffffffffffffffffffffffffff16145b151561085557600080fd5b600360009054906101000a900473ffffffffffffffffffffffffffffffffffffffff1673ffffffffffffffffffffffffffffffffffffffff1663a8e1fba384846040518363ffffffff167c0100000000000000000000000000000000000000000000000000000000028152600401808373ffffffffffffffffffffffffffffffffffffffff1673ffffffffffffffffffffffffffffffffffffffff1681526020018215151515815260200192505050602060405180830381600087803b15801561091e57600080fd5b505af1158015610932573d6000803e3d6000fd5b505050506040513d602081101561094857600080fd5b8101908080519060200190929190505050151561096457600080fd5b6001905092915050565b600460009054906101000a900473ffffffffffffffffffffffffffffffffffffffff1681565b6000809054906101000a900473ffffffffffffffffffffffffffffffffffffffff1673ffffffffffffffffffffffffffffffffffffffff163373ffffffffffffffffffffffffffffffffffffffff161415156109ef57600080fd5b6000809054906101000a900473ffffffffffffffffffffffffffffffffffffffff1673ffffffffffffffffffffffffffffffffffffffff167f2dde1bc8b58ef192e7df3e7a354521d958331021e450d544346b936936916ef460405160405180910390a260008060006101000a81548173ffffffffffffffffffffffffffffffffffffffff021916908373ffffffffffffffffffffffffffffffffffffffff160217905550565b600160009054906101000a900473ffffffffffffffffffffffffffffffffffffffff1673ffffffffffffffffffffffffffffffffffffffff163373ffffffffffffffffffffffffffffffffffffffff16141515610af257600080fd5b600160009054906101000a900473ffffffffffffffffffffffffffffffffffffffff1673ffffffffffffffffffffffffffffffffffffffff166000809054906101000a900473ffffffffffffffffffffffffffffffffffffffff1673ffffffffffffffffffffffffffffffffffffffff167fdb6d05f3295cede580affa301a1eb5297528f3b3f6a56b075887ce6f61c45f2160405160405180910390a3600160009054906101000a900473ffffffffffffffffffffffffffffffffffffffff166000806101000a81548173ffffffffffffffffffffffffffffffffffffffff021916908373ffffffffffffffffffffffffffffffffffffffff1602179055506000600160006101000a81548173ffffffffffffffffffffffffffffffffffffffff021916908373ffffffffffffffffffffffffffffffffffffffff160217905550565b600560009054906101000a900473ffffffffffffffffffffffffffffffffffffffff1681565b60008060009054906101000a900473ffffffffffffffffffffffffffffffffffffffff1673ffffffffffffffffffffffffffffffffffffffff163373ffffffffffffffffffffffffffffffffffffffff161480610d055750600260009054906101000a900473ffffffffffffffffffffffffffffffffffffffff1673ffffffffffffffffffffffffffffffffffffffff163373ffffffffffffffffffffffffffffffffffffffff16145b1515610d1057600080fd5b600360009054906101000a900473ffffffffffffffffffffffffffffffffffffffff1673ffffffffffffffffffffffffffffffffffffffff16635be7cc16836040518263ffffffff167c0100000000000000000000000000000000000000000000000000000000028152600401808273ffffffffffffffffffffffffffffffffffffffff1673ffffffffffffffffffffffffffffffffffffffff168152602001915050600060405180830381600087803b158015610dcd57600080fd5b505af1158015610de1573d6000803e3d6000fd5b50505050600460009054906101000a900473ffffffffffffffffffffffffffffffffffffffff1673ffffffffffffffffffffffffffffffffffffffff16635be7cc16836040518263ffffffff167c0100000000000000000000000000000000000000000000000000000000028152600401808273ffffffffffffffffffffffffffffffffffffffff1673ffffffffffffffffffffffffffffffffffffffff168152602001915050600060405180830381600087803b158015610ea257600080fd5b505af1158015610eb6573d6000803e3d6000fd5b50505050600560009054906101000a900473ffffffffffffffffffffffffffffffffffffffff1673ffffffffffffffffffffffffffffffffffffffff16635be7cc16836040518263ffffffff167c0100000000000000000000000000000000000000000000000000000000028152600401808273ffffffffffffffffffffffffffffffffffffffff1673ffffffffffffffffffffffffffffffffffffffff168152602001915050600060405180830381600087803b158015610f7757600080fd5b505af1158015610f8b573d6000803e3d6000fd5b5050505060019050919050565b6000809054906101000a900473ffffffffffffffffffffffffffffffffffffffff1681565b60008060009054906101000a900473ffffffffffffffffffffffffffffffffffffffff1673ffffffffffffffffffffffffffffffffffffffff163373ffffffffffffffffffffffffffffffffffffffff1614806110675750600260009054906101000a900473ffffffffffffffffffffffffffffffffffffffff1673ffffffffffffffffffffffffffffffffffffffff163373ffffffffffffffffffffffffffffffffffffffff16145b151561107257600080fd5b600560009054906101000a900473ffffffffffffffffffffffffffffffffffffffff1673ffffffffffffffffffffffffffffffffffffffff1663a8e1fba384846040518363ffffffff167c0100000000000000000000000000000000000000000000000000000000028152600401808373ffffffffffffffffffffffffffffffffffffffff1673ffffffffffffffffffffffffffffffffffffffff1681526020018215151515815260200192505050602060405180830381600087803b15801561113b57600080fd5b505af115801561114f573d6000803e3d6000fd5b505050506040513d602081101561116557600080fd5b8101908080519060200190929190505050151561118157600080fd5b6001905092915050565b600660149054906101000a900460ff1681565b600160009054906101000a900473ffffffffffffffffffffffffffffffffffffffff1681565b600660149054906101000a900460ff161515156111e057600080fd5b33600260006101000a81548173ffffffffffffffffffffffffffffffffffffffff021916908373ffffffffffffffffffffffffffffffffffffffff1602179055506001600660146101000a81548160ff021916908315150217905550565b60008060009054906101000a900473ffffffffffffffffffffffffffffffffffffffff1673ffffffffffffffffffffffffffffffffffffffff163373ffffffffffffffffffffffffffffffffffffffff1614806112e85750600260009054906101000a900473ffffffffffffffffffffffffffffffffffffffff1673ffffffffffffffffffffffffffffffffffffffff163373ffffffffffffffffffffffffffffffffffffffff16145b15156112f357600080fd5b600460009054906101000a900473ffffffffffffffffffffffffffffffffffffffff1673ffffffffffffffffffffffffffffffffffffffff1663a8e1fba384846040518363ffffffff167c0100000000000000000000000000000000000000000000000000000000028152600401808373ffffffffffffffffffffffffffffffffffffffff1673ffffffffffffffffffffffffffffffffffffffff1681526020018215151515815260200192505050602060405180830381600087803b1580156113bc57600080fd5b505af11580156113d0573d6000803e3d6000fd5b505050506040513d60208110156113e657600080fd5b8101908080519060200190929190505050151561140257600080fd5b6001905092915050565b6000809054906101000a900473ffffffffffffffffffffffffffffffffffffffff1673ffffffffffffffffffffffffffffffffffffffff163373ffffffffffffffffffffffffffffffffffffffff1614151561146757600080fd5b600073ffffffffffffffffffffffffffffffffffffffff168173ffffffffffffffffffffffffffffffffffffffff16141515156114a357600080fd5b80600160006101000a81548173ffffffffffffffffffffffffffffffffffffffff021916908373ffffffffffffffffffffffffffffffffffffffff16021790555050565b600260009054906101000a900473ffffffffffffffffffffffffffffffffffffffff16815600a165627a7a72305820a9d74179910b25e2b905e97063b14e99a00e31763840c31961c30b11e01962030029608060405234801561001057600080fd5b5060405160208061348783398101806040528101908080519060200190929190505050336000806101000a81548173ffffffffffffffffffffffffffffffffffffffff021916908373ffffffffffffffffffffffffffffffffffffffff16021790555033600260006101000a81548173ffffffffffffffffffffffffffffffffffffffff021916908373ffffffffffffffffffffffffffffffffffffffff160217905550806000806101000a81548173ffffffffffffffffffffffffffffffffffffffff021916908373ffffffffffffffffffffffffffffffffffffffff1602179055506001600360003373ffffffffffffffffffffffffffffffffffffffff1673ffffffffffffffffffffffffffffffffffffffff16815260200190815260200160002060006101000a81548160ff0219169083151502179055505061332b8061015c6000396000f30060806040526004361061011d576000357c0100000000000000000000000000000000000000000000000000000000900463ffffffff1680632cc576bb1461012257806335e60e89146101ba5780635be7cc16146102385780635cdfd92e1461027b5780635ee16472146102df578063715018a6146103f8578063787b4f091461040f57806379ba50971461049157806384e972eb146104a85780638b8c84b71461052f5780638da5cb5b146105875780639b03ced2146105de578063a146be7c14610636578063a8e1fba31461068e578063c05465d7146106f5578063d4ee1d9014610779578063e56a7c5d146107d0578063eb16ea6d1461082b578063f2fde38b1461090a578063f851a4401461094d578063fa86de41146109a4575b600080fd5b34801561012e57600080fd5b506101a060048036038101908080356fffffffffffffffffffffffffffffffff19169060200190929190803573ffffffffffffffffffffffffffffffffffffffff169060200190929190803573ffffffffffffffffffffffffffffffffffffffff169060200190929190505050610a6c565b604051808215151515815260200191505060405180910390f35b3480156101c657600080fd5b5061021e60048036038101908080359060200190820180359060200190808060200260200160405190810160405280939291908181526020018383602002808284378201915050505050509192919290505050610e6c565b604051808215151515815260200191505060405180910390f35b34801561024457600080fd5b50610279600480360381019080803573ffffffffffffffffffffffffffffffffffffffff1690602001909291905050506110c0565b005b34801561028757600080fd5b506102c560048036038101908080356fffffffffffffffffffffffffffffffff19169060200190929190803515159060200190929190505050611233565b604051808215151515815260200191505060405180910390f35b3480156102eb57600080fd5b5061031d60048036038101908080356fffffffffffffffffffffffffffffffff19169060200190929190505050611580565b604051808873ffffffffffffffffffffffffffffffffffffffff1673ffffffffffffffffffffffffffffffffffffffff16815260200180602001878152602001868152602001858152602001841515151581526020018360ff1660ff168152602001828103825288818151815260200191508051906020019080838360005b838110156103b757808201518184015260208101905061039c565b50505050905090810190601f1680156103e45780820380516001836020036101000a031916815260200191505b509850505050505050505060405180910390f35b34801561040457600080fd5b5061040d611978565b005b34801561041b57600080fd5b5061047760048036038101908080356fffffffffffffffffffffffffffffffff19169060200190929190803573ffffffffffffffffffffffffffffffffffffffff16906020019092919080359060200190929190505050611a7a565b604051808215151515815260200191505060405180910390f35b34801561049d57600080fd5b506104a6611d61565b005b3480156104b457600080fd5b506104e660048036038101908080356fffffffffffffffffffffffffffffffff19169060200190929190505050611f00565b604051808373ffffffffffffffffffffffffffffffffffffffff1673ffffffffffffffffffffffffffffffffffffffff1681526020018281526020019250505060405180910390f35b34801561053b57600080fd5b5061056d60048036038101908080356fffffffffffffffffffffffffffffffff19169060200190929190505050611fa6565b604051808215151515815260200191505060405180910390f35b34801561059357600080fd5b5061059c6122b5565b604051808273ffffffffffffffffffffffffffffffffffffffff1673ffffffffffffffffffffffffffffffffffffffff16815260200191505060405180910390f35b3480156105ea57600080fd5b5061061c60048036038101908080356fffffffffffffffffffffffffffffffff191690602001909291905050506122da565b604051808215151515815260200191505060405180910390f35b34801561064257600080fd5b5061067460048036038101908080356fffffffffffffffffffffffffffffffff19169060200190929190505050612380565b604051808215151515815260200191505060405180910390f35b34801561069a57600080fd5b506106db600480360381019080803573ffffffffffffffffffffffffffffffffffffffff1690602001909291908035151590602001909291905050506124c4565b604051808215151515815260200191505060405180910390f35b34801561070157600080fd5b5061075f60048036038101908080356fffffffffffffffffffffffffffffffff19169060200190929190803573ffffffffffffffffffffffffffffffffffffffff1690602001909291908035151590602001909291905050506126fd565b604051808215151515815260200191505060405180910390f35b34801561078557600080fd5b5061078e612a0c565b604051808273ffffffffffffffffffffffffffffffffffffffff1673ffffffffffffffffffffffffffffffffffffffff16815260200191505060405180910390f35b3480156107dc57600080fd5b50610811600480360381019080803573ffffffffffffffffffffffffffffffffffffffff169060200190929190505050612a32565b604051808215151515815260200191505060405180910390f35b34801561083757600080fd5b506108f060048036038101908080356fffffffffffffffffffffffffffffffff19169060200190929190803590602001908201803590602001908080601f0160208091040260200160405190810160405280939291908181526020018383808284378201915050505050509192919290803573ffffffffffffffffffffffffffffffffffffffff1690602001909291908035906020019092919080359060200190929190803560ff169060200190929190505050612a52565b604051808215151515815260200191505060405180910390f35b34801561091657600080fd5b5061094b600480360381019080803573ffffffffffffffffffffffffffffffffffffffff169060200190929190505050612e6b565b005b34801561095957600080fd5b50610962612f46565b604051808273ffffffffffffffffffffffffffffffffffffffff1673ffffffffffffffffffffffffffffffffffffffff16815260200191505060405180910390f35b3480156109b057600080fd5b50610a5260048036038101908080356fffffffffffffffffffffffffffffffff19169060200190929190803573ffffffffffffffffffffffffffffffffffffffff169060200190929190803590602001908201803590602001908080601f016020809104026020016040519081016040528093929190818152602001838380828437820191505050505050919291929080359060200190929190505050612f6c565b604051808215151515815260200191505060405180910390f35b600060011515600360003373ffffffffffffffffffffffffffffffffffffffff1673ffffffffffffffffffffffffffffffffffffffff16815260200190815260200160002060009054906101000a900460ff161515141515610b17577f0489f2369368f4688acd012107ac5a7d98ca739b913449d852f35d871e433cc3600e6040518082601e811115610afb57fe5b60ff16815260200191505060405180910390a160009050610e65565b8273ffffffffffffffffffffffffffffffffffffffff1660046000866fffffffffffffffffffffffffffffffff19166fffffffffffffffffffffffffffffffff1916815260200190815260200160002060030160009054906101000a900473ffffffffffffffffffffffffffffffffffffffff1673ffffffffffffffffffffffffffffffffffffffff16141515610bf7577f0489f2369368f4688acd012107ac5a7d98ca739b913449d852f35d871e433cc360106040518082601e811115610bdb57fe5b60ff16815260200191505060405180910390a160009050610e65565b600073ffffffffffffffffffffffffffffffffffffffff168273ffffffffffffffffffffffffffffffffffffffff161415610c7b577f0489f2369368f4688acd012107ac5a7d98ca739b913449d852f35d871e433cc360026040518082601e811115610c5f57fe5b60ff16815260200191505060405180910390a160009050610e65565b8173ffffffffffffffffffffffffffffffffffffffff1660046000866fffffffffffffffffffffffffffffffff19166fffffffffffffffffffffffffffffffff1916815260200190815260200160002060030160009054906101000a900473ffffffffffffffffffffffffffffffffffffffff1673ffffffffffffffffffffffffffffffffffffffff161415610d5a577f0489f2369368f4688acd012107ac5a7d98ca739b913449d852f35d871e433cc360116040518082601e811115610d3e57fe5b60ff16815260200191505060405180910390a160009050610e65565b8173ffffffffffffffffffffffffffffffffffffffff168373ffffffffffffffffffffffffffffffffffffffff167f8e06c2cfcef793685a2ccba7a42b25752d38d5e6ce9121224f4a3ecf80f596328660405180826fffffffffffffffffffffffffffffffff19166fffffffffffffffffffffffffffffffff1916815260200191505060405180910390a38160046000866fffffffffffffffffffffffffffffffff19166fffffffffffffffffffffffffffffffff1916815260200190815260200160002060030160006101000a81548173ffffffffffffffffffffffffffffffffffffffff021916908373ffffffffffffffffffffffffffffffffffffffff160217905550600190505b9392505050565b6000806000809054906101000a900473ffffffffffffffffffffffffffffffffffffffff1673ffffffffffffffffffffffffffffffffffffffff163373ffffffffffffffffffffffffffffffffffffffff1614158015610f1a5750600260009054906101000a900473ffffffffffffffffffffffffffffffffffffffff1673ffffffffffffffffffffffffffffffffffffffff163373ffffffffffffffffffffffffffffffffffffffff1614155b15610f6e577f0489f2369368f4688acd012107ac5a7d98ca739b913449d852f35d871e433cc3600f6040518082601e811115610f5257fe5b60ff16815260200191505060405180910390a1600091506110ba565b600090505b82518110156110b557600073ffffffffffffffffffffffffffffffffffffffff168382815181101515610fa257fe5b9060200190602002015173ffffffffffffffffffffffffffffffffffffffff1614151515610fcf57600080fd5b6001600360008584815181101515610fe357fe5b9060200190602002015173ffffffffffffffffffffffffffffffffffffffff1673ffffffffffffffffffffffffffffffffffffffff16815260200190815260200160002060006101000a81548160ff021916908315150217905550828181518110151561104c57fe5b9060200190602002015173ffffffffffffffffffffffffffffffffffffffff167f9b3b880c67f4fab4215412179771cffd326a045e6016a7e363eb38460f7e91766001604051808215151515815260200191505060405180910390a28080600101915050610f73565b600191505b50919050565b6000809054906101000a900473ffffffffffffffffffffffffffffffffffffffff1673ffffffffffffffffffffffffffffffffffffffff163373ffffffffffffffffffffffffffffffffffffffff1614806111685750600260009054906101000a900473ffffffffffffffffffffffffffffffffffffffff1673ffffffffffffffffffffffffffffffffffffffff163373ffffffffffffffffffffffffffffffffffffffff16145b151561117357600080fd5b8073ffffffffffffffffffffffffffffffffffffffff16600260009054906101000a900473ffffffffffffffffffffffffffffffffffffffff1673ffffffffffffffffffffffffffffffffffffffff167ff73aa4459d935dbacd9313fffe485016147551d99ef401461704cd39e6e9028760405160405180910390a380600260006101000a81548173ffffffffffffffffffffffffffffffffffffffff021916908373ffffffffffffffffffffffffffffffffffffffff16021790555050565b60008060009054906101000a900473ffffffffffffffffffffffffffffffffffffffff1673ffffffffffffffffffffffffffffffffffffffff163373ffffffffffffffffffffffffffffffffffffffff16141580156112e05750600260009054906101000a900473ffffffffffffffffffffffffffffffffffffffff1673ffffffffffffffffffffffffffffffffffffffff163373ffffffffffffffffffffffffffffffffffffffff1614155b15611334577f0489f2369368f4688acd012107ac5a7d98ca739b913449d852f35d871e433cc3600f6040518082601e81111561131857fe5b60ff16815260200191505060405180910390a16000905061157a565b600073ffffffffffffffffffffffffffffffffffffffff1660046000856fffffffffffffffffffffffffffffffff19166fffffffffffffffffffffffffffffffff1916815260200190815260200160002060030160009054906101000a900473ffffffffffffffffffffffffffffffffffffffff1673ffffffffffffffffffffffffffffffffffffffff161415611414577f0489f2369368f4688acd012107ac5a7d98ca739b913449d852f35d871e433cc360096040518082601e8111156113f857fe5b60ff16815260200191505060405180910390a16000905061157a565b81151560046000856fffffffffffffffffffffffffffffffff19166fffffffffffffffffffffffffffffffff1916815260200190815260200160002060030160169054906101000a900460ff16151514156114b8577f0489f2369368f4688acd012107ac5a7d98ca739b913449d852f35d871e433cc360116040518082601e81111561149c57fe5b60ff16815260200191505060405180910390a16000905061157a565b7fa7403bf420bc21921afd2c34304326fbbea8ed6d859906a015241eab84efaddb838360405180836fffffffffffffffffffffffffffffffff19166fffffffffffffffffffffffffffffffff19168152602001821515151581526020019250505060405180910390a18160046000856fffffffffffffffffffffffffffffffff19166fffffffffffffffffffffffffffffffff1916815260200190815260200160002060030160166101000a81548160ff021916908315150217905550600190505b92915050565b6000606060008060008060008073ffffffffffffffffffffffffffffffffffffffff16600460008a6fffffffffffffffffffffffffffffffff19166fffffffffffffffffffffffffffffffff1916815260200190815260200160002060030160009054906101000a900473ffffffffffffffffffffffffffffffffffffffff1673ffffffffffffffffffffffffffffffffffffffff161480611672575060001515600360003373ffffffffffffffffffffffffffffffffffffffff1673ffffffffffffffffffffffffffffffffffffffff16815260200190815260200160002060009054906101000a900460ff161515145b156116de57600080600080600160008595506040805190810160405280600481526020017f4e756c6c000000000000000000000000000000000000000000000000000000008152509493929190849450839350829250809050965096509650965096509650965061196d565b60046000896fffffffffffffffffffffffffffffffff19166fffffffffffffffffffffffffffffffff1916815260200190815260200160002060030160009054906101000a900473ffffffffffffffffffffffffffffffffffffffff16600460008a6fffffffffffffffffffffffffffffffff19166fffffffffffffffffffffffffffffffff19168152602001908152602001600020600401600460008b6fffffffffffffffffffffffffffffffff19166fffffffffffffffffffffffffffffffff1916815260200190815260200160002060000154600460008c6fffffffffffffffffffffffffffffffff19166fffffffffffffffffffffffffffffffff1916815260200190815260200160002060010154600460008d6fffffffffffffffffffffffffffffffff19166fffffffffffffffffffffffffffffffff1916815260200190815260200160002060020154600460008e6fffffffffffffffffffffffffffffffff19166fffffffffffffffffffffffffffffffff1916815260200190815260200160002060030160159054906101000a900460ff16600460008f6fffffffffffffffffffffffffffffffff19166fffffffffffffffffffffffffffffffff1916815260200190815260200160002060030160149054906101000a900460ff16858054600181600116156101000203166002900480601f0160208091040260200160405190810160405280929190818152602001828054600181600116156101000203166002900480156119575780601f1061192c57610100808354040283529160200191611957565b820191906000526020600020905b81548152906001019060200180831161193a57829003601f168201915b5050505050955096509650965096509650965096505b919395979092949650565b6000809054906101000a900473ffffffffffffffffffffffffffffffffffffffff1673ffffffffffffffffffffffffffffffffffffffff163373ffffffffffffffffffffffffffffffffffffffff161415156119d357600080fd5b6000809054906101000a900473ffffffffffffffffffffffffffffffffffffffff1673ffffffffffffffffffffffffffffffffffffffff167f2dde1bc8b58ef192e7df3e7a354521d958331021e450d544346b936936916ef460405160405180910390a260008060006101000a81548173ffffffffffffffffffffffffffffffffffffffff021916908373ffffffffffffffffffffffffffffffffffffffff160217905550565b600060011515600360003373ffffffffffffffffffffffffffffffffffffffff1673ffffffffffffffffffffffffffffffffffffffff16815260200190815260200160002060009054906101000a900460ff161515141515611b25577f0489f2369368f4688acd012107ac5a7d98ca739b913449d852f35d871e433cc3600e6040518082601e811115611b0957fe5b60ff16815260200191505060405180910390a160009050611d5a565b8273ffffffffffffffffffffffffffffffffffffffff1660046000866fffffffffffffffffffffffffffffffff19166fffffffffffffffffffffffffffffffff1916815260200190815260200160002060030160009054906101000a900473ffffffffffffffffffffffffffffffffffffffff1673ffffffffffffffffffffffffffffffffffffffff16141515611c05577f0489f2369368f4688acd012107ac5a7d98ca739b913449d852f35d871e433cc360106040518082601e811115611be957fe5b60ff16815260200191505060405180910390a160009050611d5a565b8160046000866fffffffffffffffffffffffffffffffff19166fffffffffffffffffffffffffffffffff19168152602001908152602001600020600201541415611c98577f0489f2369368f4688acd012107ac5a7d98ca739b913449d852f35d871e433cc360116040518082601e811115611c7c57fe5b60ff16815260200191505060405180910390a160009050611d5a565b8273ffffffffffffffffffffffffffffffffffffffff167f777fc5aece160ef7e201784e61220c38596fac4365dfad462979c813acd099ab858460405180836fffffffffffffffffffffffffffffffff19166fffffffffffffffffffffffffffffffff191681526020018281526020019250505060405180910390a28160046000866fffffffffffffffffffffffffffffffff19166fffffffffffffffffffffffffffffffff1916815260200190815260200160002060020181905550600190505b9392505050565b600160009054906101000a900473ffffffffffffffffffffffffffffffffffffffff1673ffffffffffffffffffffffffffffffffffffffff163373ffffffffffffffffffffffffffffffffffffffff16141515611dbd57600080fd5b600160009054906101000a900473ffffffffffffffffffffffffffffffffffffffff1673ffffffffffffffffffffffffffffffffffffffff166000809054906101000a900473ffffffffffffffffffffffffffffffffffffffff1673ffffffffffffffffffffffffffffffffffffffff167fdb6d05f3295cede580affa301a1eb5297528f3b3f6a56b075887ce6f61c45f2160405160405180910390a3600160009054906101000a900473ffffffffffffffffffffffffffffffffffffffff166000806101000a81548173ffffffffffffffffffffffffffffffffffffffff021916908373ffffffffffffffffffffffffffffffffffffffff1602179055506000600160006101000a81548173ffffffffffffffffffffffffffffffffffffffff021916908373ffffffffffffffffffffffffffffffffffffffff160217905550565b60008060046000846fffffffffffffffffffffffffffffffff19166fffffffffffffffffffffffffffffffff1916815260200190815260200160002060030160009054906101000a900473ffffffffffffffffffffffffffffffffffffffff1660046000856fffffffffffffffffffffffffffffffff19166fffffffffffffffffffffffffffffffff191681526020019081526020016000206002015491509150915091565b60008060009054906101000a900473ffffffffffffffffffffffffffffffffffffffff1673ffffffffffffffffffffffffffffffffffffffff163373ffffffffffffffffffffffffffffffffffffffff16141580156120535750600260009054906101000a900473ffffffffffffffffffffffffffffffffffffffff1673ffffffffffffffffffffffffffffffffffffffff163373ffffffffffffffffffffffffffffffffffffffff1614155b156120a7577f0489f2369368f4688acd012107ac5a7d98ca739b913449d852f35d871e433cc3600f6040518082601e81111561208b57fe5b60ff16815260200191505060405180910390a1600090506122b0565b600073ffffffffffffffffffffffffffffffffffffffff1660046000846fffffffffffffffffffffffffffffffff19166fffffffffffffffffffffffffffffffff1916815260200190815260200160002060030160009054906101000a900473ffffffffffffffffffffffffffffffffffffffff1673ffffffffffffffffffffffffffffffffffffffff161415612187577f0489f2369368f4688acd012107ac5a7d98ca739b913449d852f35d871e433cc360096040518082601e81111561216b57fe5b60ff16815260200191505060405180910390a1600090506122b0565b60046000836fffffffffffffffffffffffffffffffff19166fffffffffffffffffffffffffffffffff19168152602001908152602001600020600080820160009055600182016000905560028201600090556003820160006101000a81549073ffffffffffffffffffffffffffffffffffffffff02191690556003820160146101000a81549060ff02191690556003820160156101000a81549060ff02191690556003820160166101000a81549060ff021916905560048201600061224c9190613212565b50507f764a7c28cbfff30d38ca9641bdb90ae9589e815fcc6ee971ef6ed876e717b2238260405180826fffffffffffffffffffffffffffffffff19166fffffffffffffffffffffffffffffffff1916815260200191505060405180910390a1600190505b919050565b6000809054906101000a900473ffffffffffffffffffffffffffffffffffffffff1681565b60008073ffffffffffffffffffffffffffffffffffffffff1660046000846fffffffffffffffffffffffffffffffff19166fffffffffffffffffffffffffffffffff1916815260200190815260200160002060030160009054906101000a900473ffffffffffffffffffffffffffffffffffffffff1673ffffffffffffffffffffffffffffffffffffffff16141515612376576001905061237b565b600090505b919050565b60008073ffffffffffffffffffffffffffffffffffffffff1660046000846fffffffffffffffffffffffffffffffff19166fffffffffffffffffffffffffffffffff1916815260200190815260200160002060030160009054906101000a900473ffffffffffffffffffffffffffffffffffffffff1673ffffffffffffffffffffffffffffffffffffffff1614806124545750600060046000846fffffffffffffffffffffffffffffffff19166fffffffffffffffffffffffffffffffff1916815260200190815260200160002060020154145b806124ac57506001151560046000846fffffffffffffffffffffffffffffffff19166fffffffffffffffffffffffffffffffff1916815260200190815260200160002060030160159054906101000a900460ff161515145b156124ba57600090506124bf565b600190505b919050565b60008060009054906101000a900473ffffffffffffffffffffffffffffffffffffffff1673ffffffffffffffffffffffffffffffffffffffff163373ffffffffffffffffffffffffffffffffffffffff16141580156125715750600260009054906101000a900473ffffffffffffffffffffffffffffffffffffffff1673ffffffffffffffffffffffffffffffffffffffff163373ffffffffffffffffffffffffffffffffffffffff1614155b156125c5577f0489f2369368f4688acd012107ac5a7d98ca739b913449d852f35d871e433cc3600f6040518082601e8111156125a957fe5b60ff16815260200191505060405180910390a1600090506126f7565b600073ffffffffffffffffffffffffffffffffffffffff168373ffffffffffffffffffffffffffffffffffffffff161415612649577f0489f2369368f4688acd012107ac5a7d98ca739b913449d852f35d871e433cc360026040518082601e81111561262d57fe5b60ff16815260200191505060405180910390a1600090506126f7565b81600360008573ffffffffffffffffffffffffffffffffffffffff1673ffffffffffffffffffffffffffffffffffffffff16815260200190815260200160002060006101000a81548160ff0219169083151502179055508273ffffffffffffffffffffffffffffffffffffffff167f9b3b880c67f4fab4215412179771cffd326a045e6016a7e363eb38460f7e917683604051808215151515815260200191505060405180910390a2600190505b92915050565b600060011515600360003373ffffffffffffffffffffffffffffffffffffffff1673ffffffffffffffffffffffffffffffffffffffff16815260200190815260200160002060009054906101000a900460ff1615151415156127a8577f0489f2369368f4688acd012107ac5a7d98ca739b913449d852f35d871e433cc3600e6040518082601e81111561278c57fe5b60ff16815260200191505060405180910390a160009050612a05565b8273ffffffffffffffffffffffffffffffffffffffff1660046000866fffffffffffffffffffffffffffffffff19166fffffffffffffffffffffffffffffffff1916815260200190815260200160002060030160009054906101000a900473ffffffffffffffffffffffffffffffffffffffff1673ffffffffffffffffffffffffffffffffffffffff16141515612888577f0489f2369368f4688acd012107ac5a7d98ca739b913449d852f35d871e433cc360106040518082601e81111561286c57fe5b60ff16815260200191505060405180910390a160009050612a05565b81151560046000866fffffffffffffffffffffffffffffffff19166fffffffffffffffffffffffffffffffff1916815260200190815260200160002060030160159054906101000a900460ff161515141561292c577f0489f2369368f4688acd012107ac5a7d98ca739b913449d852f35d871e433cc360116040518082601e81111561291057fe5b60ff16815260200191505060405180910390a160009050612a05565b8273ffffffffffffffffffffffffffffffffffffffff167f8dc3a11079674c076f3730b7dc70e0aeacf6bee63471aca11ea1e19dfa076c1b858460405180836fffffffffffffffffffffffffffffffff19166fffffffffffffffffffffffffffffffff19168152602001821515151581526020019250505060405180910390a28160046000866fffffffffffffffffffffffffffffffff19166fffffffffffffffffffffffffffffffff1916815260200190815260200160002060030160156101000a81548160ff021916908315150217905550600190505b9392505050565b600160009054906101000a900473ffffffffffffffffffffffffffffffffffffffff1681565b60036020528060005260406000206000915054906101000a900460ff1681565b600060011515600360003373ffffffffffffffffffffffffffffffffffffffff1673ffffffffffffffffffffffffffffffffffffffff16815260200190815260200160002060009054906101000a900460ff161515141515612afd577f0489f2369368f4688acd012107ac5a7d98ca739b913449d852f35d871e433cc3600e6040518082601e811115612ae157fe5b60ff16815260200191505060405180910390a160009050612e61565b612b06876122da565b15612b5a577f0489f2369368f4688acd012107ac5a7d98ca739b913449d852f35d871e433cc3600a6040518082601e811115612b3e57fe5b60ff16815260200191505060405180910390a160009050612e61565b8460046000896fffffffffffffffffffffffffffffffff19166fffffffffffffffffffffffffffffffff1916815260200190815260200160002060030160006101000a81548173ffffffffffffffffffffffffffffffffffffffff021916908373ffffffffffffffffffffffffffffffffffffffff1602179055508560046000896fffffffffffffffffffffffffffffffff19166fffffffffffffffffffffffffffffffff191681526020019081526020016000206004019080519060200190612c2592919061325a565b504260046000896fffffffffffffffffffffffffffffffff19166fffffffffffffffffffffffffffffffff19168152602001908152602001600020600001819055508260046000896fffffffffffffffffffffffffffffffff19166fffffffffffffffffffffffffffffffff19168152602001908152602001600020600101819055508360046000896fffffffffffffffffffffffffffffffff19166fffffffffffffffffffffffffffffffff1916815260200190815260200160002060020181905550600060046000896fffffffffffffffffffffffffffffffff19166fffffffffffffffffffffffffffffffff1916815260200190815260200160002060030160156101000a81548160ff021916908315150217905550600060046000896fffffffffffffffffffffffffffffffff19166fffffffffffffffffffffffffffffffff1916815260200190815260200160002060030160166101000a81548160ff0219169083151502179055508160046000896fffffffffffffffffffffffffffffffff19166fffffffffffffffffffffffffffffffff1916815260200190815260200160002060030160146101000a81548160ff021916908360ff1602179055508473ffffffffffffffffffffffffffffffffffffffff167f275e740d4f976e07c5fa36650f24fac7c75e7793994b188e35d3dbae717a2d588860405180826fffffffffffffffffffffffffffffffff19166fffffffffffffffffffffffffffffffff1916815260200191505060405180910390a2600190505b9695505050505050565b6000809054906101000a900473ffffffffffffffffffffffffffffffffffffffff1673ffffffffffffffffffffffffffffffffffffffff163373ffffffffffffffffffffffffffffffffffffffff16141515612ec657600080fd5b600073ffffffffffffffffffffffffffffffffffffffff168173ffffffffffffffffffffffffffffffffffffffff1614151515612f0257600080fd5b80600160006101000a81548173ffffffffffffffffffffffffffffffffffffffff021916908373ffffffffffffffffffffffffffffffffffffffff16021790555050565b600260009054906101000a900473ffffffffffffffffffffffffffffffffffffffff1681565b600060011515600360003373ffffffffffffffffffffffffffffffffffffffff1673ffffffffffffffffffffffffffffffffffffffff16815260200190815260200160002060009054906101000a900460ff161515141515613017577f0489f2369368f4688acd012107ac5a7d98ca739b913449d852f35d871e433cc3600e6040518082601e811115612ffb57fe5b60ff16815260200191505060405180910390a16000905061320a565b8373ffffffffffffffffffffffffffffffffffffffff1660046000876fffffffffffffffffffffffffffffffff19166fffffffffffffffffffffffffffffffff1916815260200190815260200160002060030160009054906101000a900473ffffffffffffffffffffffffffffffffffffffff1673ffffffffffffffffffffffffffffffffffffffff161415156130f7577f0489f2369368f4688acd012107ac5a7d98ca739b913449d852f35d871e433cc360106040518082601e8111156130db57fe5b60ff16815260200191505060405180910390a16000905061320a565b8260046000876fffffffffffffffffffffffffffffffff19166fffffffffffffffffffffffffffffffff19168152602001908152602001600020600401908051906020019061314792919061325a565b508160046000876fffffffffffffffffffffffffffffffff19166fffffffffffffffffffffffffffffffff19168152602001908152602001600020600201819055508373ffffffffffffffffffffffffffffffffffffffff167f8fbda8d8c575a16d0a4260d8f5036924910260bded2cfb19b020237f3514b487868460405180836fffffffffffffffffffffffffffffffff19166fffffffffffffffffffffffffffffffff191681526020018281526020019250505060405180910390a2600190505b949350505050565b50805460018160011615610100020316600290046000825580601f106132385750613257565b601f01602090049060005260206000209081019061325691906132da565b5b50565b828054600181600116156101000203166002900490600052602060002090601f016020900481019282601f1061329b57805160ff19168380011785556132c9565b828001600101855582156132c9579182015b828111156132c85782518255916020019190600101906132ad565b5b5090506132d691906132da565b5090565b6132fc91905b808211156132f85760008160009055506001016132e0565b5090565b905600a165627a7a7230582069a1d92510dba6b1076b498c9789977f8786dacea53c0e5da4366023428beb830029608060405234801561001057600080fd5b50604051602080611a3083398101806040528101908080519060200190929190505050336000806101000a81548173ffffffffffffffffffffffffffffffffffffffff021916908373ffffffffffffffffffffffffffffffffffffffff16021790555033600260006101000a81548173ffffffffffffffffffffffffffffffffffffffff021916908373ffffffffffffffffffffffffffffffffffffffff160217905550806000806101000a81548173ffffffffffffffffffffffffffffffffffffffff021916908373ffffffffffffffffffffffffffffffffffffffff1602179055505061192c806101046000396000f3006080604052600436106100db576000357c0100000000000000000000000000000000000000000000000000000000900463ffffffff168063224447eb146100e057806335e60e89146101c65780635be7cc16146102445780635d1d1e6714610287578063715018a61461036d578063762fee181461038457806379ba5097146103cd5780637fd9786e146103e45780638da5cb5b1461049e57806395bc2673146104f5578063a8e1fba31461053e578063d4ee1d90146105a5578063e56a7c5d146105fc578063f2fde38b14610657578063f851a4401461069a575b600080fd5b3480156100ec57600080fd5b5061010f60048036038101908080356000191690602001909291905050506106f1565b604051808781526020018681526020018581526020018473ffffffffffffffffffffffffffffffffffffffff1673ffffffffffffffffffffffffffffffffffffffff1681526020018373ffffffffffffffffffffffffffffffffffffffff1673ffffffffffffffffffffffffffffffffffffffff168152602001826fffffffffffffffffffffffffffffffff19166fffffffffffffffffffffffffffffffff19168152602001965050505050505060405180910390f35b3480156101d257600080fd5b5061022a6004803603810190808035906020019082018035906020019080806020026020016040519081016040528093929190818152602001838360200280828437820191505050505050919291929050505061078a565b604051808215151515815260200191505060405180910390f35b34801561025057600080fd5b50610285600480360381019080803573ffffffffffffffffffffffffffffffffffffffff1690602001909291905050506109de565b005b34801561029357600080fd5b506102b66004803603810190808035600019169060200190929190505050610b51565b604051808781526020018681526020018581526020018473ffffffffffffffffffffffffffffffffffffffff1673ffffffffffffffffffffffffffffffffffffffff1681526020018373ffffffffffffffffffffffffffffffffffffffff1673ffffffffffffffffffffffffffffffffffffffff168152602001826fffffffffffffffffffffffffffffffff19166fffffffffffffffffffffffffffffffff19168152602001965050505050505060405180910390f35b34801561037957600080fd5b50610382610ced565b005b34801561039057600080fd5b506103b36004803603810190808035600019169060200190929190505050610def565b604051808215151515815260200191505060405180910390f35b3480156103d957600080fd5b506103e2610e2b565b005b3480156103f057600080fd5b506104846004803603810190808035600019169060200190929190803573ffffffffffffffffffffffffffffffffffffffff16906020019092919080356fffffffffffffffffffffffffffffffff1916906020019092919080359060200190929190803573ffffffffffffffffffffffffffffffffffffffff16906020019092919080359060200190929190505050610fca565b604051808215151515815260200191505060405180910390f35b3480156104aa57600080fd5b506104b36112f4565b604051808273ffffffffffffffffffffffffffffffffffffffff1673ffffffffffffffffffffffffffffffffffffffff16815260200191505060405180910390f35b34801561050157600080fd5b506105246004803603810190808035600019169060200190929190505050611319565b604051808215151515815260200191505060405180910390f35b34801561054a57600080fd5b5061058b600480360381019080803573ffffffffffffffffffffffffffffffffffffffff169060200190929190803515159060200190929190505050611580565b604051808215151515815260200191505060405180910390f35b3480156105b157600080fd5b506105ba6117b9565b604051808273ffffffffffffffffffffffffffffffffffffffff1673ffffffffffffffffffffffffffffffffffffffff16815260200191505060405180910390f35b34801561060857600080fd5b5061063d600480360381019080803573ffffffffffffffffffffffffffffffffffffffff1690602001909291905050506117df565b604051808215151515815260200191505060405180910390f35b34801561066357600080fd5b50610698600480360381019080803573ffffffffffffffffffffffffffffffffffffffff1690602001909291905050506117ff565b005b3480156106a657600080fd5b506106af6118da565b604051808273ffffffffffffffffffffffffffffffffffffffff1673ffffffffffffffffffffffffffffffffffffffff16815260200191505060405180910390f35b60046020528060005260406000206000915090508060000154908060010154908060020154908060030160009054906101000a900473ffffffffffffffffffffffffffffffffffffffff16908060040160009054906101000a900473ffffffffffffffffffffffffffffffffffffffff16908060050160009054906101000a900470010000000000000000000000000000000002905086565b6000806000809054906101000a900473ffffffffffffffffffffffffffffffffffffffff1673ffffffffffffffffffffffffffffffffffffffff163373ffffffffffffffffffffffffffffffffffffffff16141580156108385750600260009054906101000a900473ffffffffffffffffffffffffffffffffffffffff1673ffffffffffffffffffffffffffffffffffffffff163373ffffffffffffffffffffffffffffffffffffffff1614155b1561088c577f0489f2369368f4688acd012107ac5a7d98ca739b913449d852f35d871e433cc3600f6040518082601e81111561087057fe5b60ff16815260200191505060405180910390a1600091506109d8565b600090505b82518110156109d357600073ffffffffffffffffffffffffffffffffffffffff1683828151811015156108c057fe5b9060200190602002015173ffffffffffffffffffffffffffffffffffffffff16141515156108ed57600080fd5b600160036000858481518110151561090157fe5b9060200190602002015173ffffffffffffffffffffffffffffffffffffffff1673ffffffffffffffffffffffffffffffffffffffff16815260200190815260200160002060006101000a81548160ff021916908315150217905550828181518110151561096a57fe5b9060200190602002015173ffffffffffffffffffffffffffffffffffffffff167f9b3b880c67f4fab4215412179771cffd326a045e6016a7e363eb38460f7e91766001604051808215151515815260200191505060405180910390a28080600101915050610891565b600191505b50919050565b6000809054906101000a900473ffffffffffffffffffffffffffffffffffffffff1673ffffffffffffffffffffffffffffffffffffffff163373ffffffffffffffffffffffffffffffffffffffff161480610a865750600260009054906101000a900473ffffffffffffffffffffffffffffffffffffffff1673ffffffffffffffffffffffffffffffffffffffff163373ffffffffffffffffffffffffffffffffffffffff16145b1515610a9157600080fd5b8073ffffffffffffffffffffffffffffffffffffffff16600260009054906101000a900473ffffffffffffffffffffffffffffffffffffffff1673ffffffffffffffffffffffffffffffffffffffff167ff73aa4459d935dbacd9313fffe485016147551d99ef401461704cd39e6e9028760405160405180910390a380600260006101000a81548173ffffffffffffffffffffffffffffffffffffffff021916908373ffffffffffffffffffffffffffffffffffffffff16021790555050565b6000806000806000806000600460008960001916600019168152602001908152602001600020600001541415610bc05760008060008060008085955084945083935082925081915080700100000000000000000000000000000000029050955095509550955095509550610ce4565b6004600088600019166000191681526020019081526020016000206000015460046000896000191660001916815260200190815260200160002060010154600460008a6000191660001916815260200190815260200160002060020154600460008b6000191660001916815260200190815260200160002060030160009054906101000a900473ffffffffffffffffffffffffffffffffffffffff16600460008c6000191660001916815260200190815260200160002060040160009054906101000a900473ffffffffffffffffffffffffffffffffffffffff16600460008d6000191660001916815260200190815260200160002060050160009054906101000a9004700100000000000000000000000000000000029550955095509550955095505b91939550919395565b6000809054906101000a900473ffffffffffffffffffffffffffffffffffffffff1673ffffffffffffffffffffffffffffffffffffffff163373ffffffffffffffffffffffffffffffffffffffff16141515610d4857600080fd5b6000809054906101000a900473ffffffffffffffffffffffffffffffffffffffff1673ffffffffffffffffffffffffffffffffffffffff167f2dde1bc8b58ef192e7df3e7a354521d958331021e450d544346b936936916ef460405160405180910390a260008060006101000a81548173ffffffffffffffffffffffffffffffffffffffff021916908373ffffffffffffffffffffffffffffffffffffffff160217905550565b60008060046000846000191660001916815260200190815260200160002060000154141515610e215760009050610e26565b600190505b919050565b600160009054906101000a900473ffffffffffffffffffffffffffffffffffffffff1673ffffffffffffffffffffffffffffffffffffffff163373ffffffffffffffffffffffffffffffffffffffff16141515610e8757600080fd5b600160009054906101000a900473ffffffffffffffffffffffffffffffffffffffff1673ffffffffffffffffffffffffffffffffffffffff166000809054906101000a900473ffffffffffffffffffffffffffffffffffffffff1673ffffffffffffffffffffffffffffffffffffffff167fdb6d05f3295cede580affa301a1eb5297528f3b3f6a56b075887ce6f61c45f2160405160405180910390a3600160009054906101000a900473ffffffffffffffffffffffffffffffffffffffff166000806101000a81548173ffffffffffffffffffffffffffffffffffffffff021916908373ffffffffffffffffffffffffffffffffffffffff1602179055506000600160006101000a81548173ffffffffffffffffffffffffffffffffffffffff021916908373ffffffffffffffffffffffffffffffffffffffff160217905550565b600060011515600360003373ffffffffffffffffffffffffffffffffffffffff1673ffffffffffffffffffffffffffffffffffffffff16815260200190815260200160002060009054906101000a900460ff161515141515611075577f0489f2369368f4688acd012107ac5a7d98ca739b913449d852f35d871e433cc3600e6040518082601e81111561105957fe5b60ff16815260200191505060405180910390a1600090506112ea565b61107e87610def565b156110d2577f0489f2369368f4688acd012107ac5a7d98ca739b913449d852f35d871e433cc3600a6040518082601e8111156110b657fe5b60ff16815260200191505060405180910390a1600090506112ea565b60c0604051908101604052804281526020018581526020018381526020018773ffffffffffffffffffffffffffffffffffffffff1681526020018473ffffffffffffffffffffffffffffffffffffffff168152602001866fffffffffffffffffffffffffffffffff191681525060046000896000191660001916815260200190815260200160002060008201518160000155602082015181600101556040820151816002015560608201518160030160006101000a81548173ffffffffffffffffffffffffffffffffffffffff021916908373ffffffffffffffffffffffffffffffffffffffff16021790555060808201518160040160006101000a81548173ffffffffffffffffffffffffffffffffffffffff021916908373ffffffffffffffffffffffffffffffffffffffff16021790555060a08201518160050160006101000a8154816fffffffffffffffffffffffffffffffff0219169083700100000000000000000000000000000000900402179055509050508273ffffffffffffffffffffffffffffffffffffffff168673ffffffffffffffffffffffffffffffffffffffff167f4a5538e4a86f10263ccb3fb5a5445ad4f99c65a0831b348d110c95b230d362c58988604051808360001916600019168152602001826fffffffffffffffffffffffffffffffff19166fffffffffffffffffffffffffffffffff191681526020019250505060405180910390a3600190505b9695505050505050565b6000809054906101000a900473ffffffffffffffffffffffffffffffffffffffff1681565b60008060009054906101000a900473ffffffffffffffffffffffffffffffffffffffff1673ffffffffffffffffffffffffffffffffffffffff163373ffffffffffffffffffffffffffffffffffffffff16141580156113c65750600260009054906101000a900473ffffffffffffffffffffffffffffffffffffffff1673ffffffffffffffffffffffffffffffffffffffff163373ffffffffffffffffffffffffffffffffffffffff1614155b1561141a577f0489f2369368f4688acd012107ac5a7d98ca739b913449d852f35d871e433cc3600f6040518082601e8111156113fe57fe5b60ff16815260200191505060405180910390a16000905061157b565b6000600460008460001916600019168152602001908152602001600020600001541415611490577f0489f2369368f4688acd012107ac5a7d98ca739b913449d852f35d871e433cc360096040518082601e81111561147457fe5b60ff16815260200191505060405180910390a16000905061157b565b600460008360001916600019168152602001908152602001600020600080820160009055600182016000905560028201600090556003820160006101000a81549073ffffffffffffffffffffffffffffffffffffffff02191690556004820160006101000a81549073ffffffffffffffffffffffffffffffffffffffff02191690556005820160006101000a8154906fffffffffffffffffffffffffffffffff021916905550507f996eb95035696d46910fbd9cd1d5c01347adedb018480f8f038a2c59241d255f8260405180826000191660001916815260200191505060405180910390a1600190505b919050565b60008060009054906101000a900473ffffffffffffffffffffffffffffffffffffffff1673ffffffffffffffffffffffffffffffffffffffff163373ffffffffffffffffffffffffffffffffffffffff161415801561162d5750600260009054906101000a900473ffffffffffffffffffffffffffffffffffffffff1673ffffffffffffffffffffffffffffffffffffffff163373ffffffffffffffffffffffffffffffffffffffff1614155b15611681577f0489f2369368f4688acd012107ac5a7d98ca739b913449d852f35d871e433cc3600f6040518082601e81111561166557fe5b60ff16815260200191505060405180910390a1600090506117b3565b600073ffffffffffffffffffffffffffffffffffffffff168373ffffffffffffffffffffffffffffffffffffffff161415611705577f0489f2369368f4688acd012107ac5a7d98ca739b913449d852f35d871e433cc360026040518082601e8111156116e957fe5b60ff16815260200191505060405180910390a1600090506117b3565b81600360008573ffffffffffffffffffffffffffffffffffffffff1673ffffffffffffffffffffffffffffffffffffffff16815260200190815260200160002060006101000a81548160ff0219169083151502179055508273ffffffffffffffffffffffffffffffffffffffff167f9b3b880c67f4fab4215412179771cffd326a045e6016a7e363eb38460f7e917683604051808215151515815260200191505060405180910390a2600190505b92915050565b600160009054906101000a900473ffffffffffffffffffffffffffffffffffffffff1681565b60036020528060005260406000206000915054906101000a900460ff1681565b6000809054906101000a900473ffffffffffffffffffffffffffffffffffffffff1673ffffffffffffffffffffffffffffffffffffffff163373ffffffffffffffffffffffffffffffffffffffff1614151561185a57600080fd5b600073ffffffffffffffffffffffffffffffffffffffff168173ffffffffffffffffffffffffffffffffffffffff161415151561189657600080fd5b80600160006101000a81548173ffffffffffffffffffffffffffffffffffffffff021916908373ffffffffffffffffffffffffffffffffffffffff16021790555050565b600260009054906101000a900473ffffffffffffffffffffffffffffffffffffffff16815600a165627a7a72305820c9182ecb99c9a4671a2ae16ec7dd10689229a875338c03539ec4e89ed81b61410029608060405234801561001057600080fd5b50604051602080611b1c83398101806040528101908080519060200190929190505050336000806101000a81548173ffffffffffffffffffffffffffffffffffffffff021916908373ffffffffffffffffffffffffffffffffffffffff16021790555033600260006101000a81548173ffffffffffffffffffffffffffffffffffffffff021916908373ffffffffffffffffffffffffffffffffffffffff160217905550806000806101000a81548173ffffffffffffffffffffffffffffffffffffffff021916908373ffffffffffffffffffffffffffffffffffffffff16021790555050611a18806101046000396000f3006080604052600436106100f1576000357c0100000000000000000000000000000000000000000000000000000000900463ffffffff16806318f1c709146100f6578063256e980e1461018e57806335e60e89146102065780635be7cc1614610284578063715018a6146102c757806379ba5097146102de5780638da5cb5b146102f5578063981274b11461034c578063a8e1fba3146103e4578063b98f92991461044b578063d4ee1d90146104c3578063e56a7c5d1461051a578063ee9a455014610575578063f2fde38b146105fb578063f4dbfc971461063e578063f851a440146106d3578063faf7216f1461072a575b600080fd5b34801561010257600080fd5b50610137600480360381019080803573ffffffffffffffffffffffffffffffffffffffff1690602001909291905050506107c2565b6040518080602001828103825283818151815260200191508051906020019060200280838360005b8381101561017a57808201518184015260208101905061015f565b505050509050019250505060405180910390f35b34801561019a57600080fd5b506101ec60048036038101908080356fffffffffffffffffffffffffffffffff19169060200190929190803573ffffffffffffffffffffffffffffffffffffffff169060200190929190505050610860565b604051808215151515815260200191505060405180910390f35b34801561021257600080fd5b5061026a600480360381019080803590602001908201803590602001908080602002602001604051908101604052809392919081815260200183836020028082843782019150505050505091929192905050506109c1565b604051808215151515815260200191505060405180910390f35b34801561029057600080fd5b506102c5600480360381019080803573ffffffffffffffffffffffffffffffffffffffff169060200190929190505050610c15565b005b3480156102d357600080fd5b506102dc610d88565b005b3480156102ea57600080fd5b506102f3610e8a565b005b34801561030157600080fd5b5061030a611029565b604051808273ffffffffffffffffffffffffffffffffffffffff1673ffffffffffffffffffffffffffffffffffffffff16815260200191505060405180910390f35b34801561035857600080fd5b5061038d600480360381019080803573ffffffffffffffffffffffffffffffffffffffff16906020019092919050505061104e565b6040518080602001828103825283818151815260200191508051906020019060200280838360005b838110156103d05780820151818401526020810190506103b5565b505050509050019250505060405180910390f35b3480156103f057600080fd5b50610431600480360381019080803573ffffffffffffffffffffffffffffffffffffffff16906020019092919080351515906020019092919050505061112e565b604051808215151515815260200191505060405180910390f35b34801561045757600080fd5b506104a9600480360381019080803573ffffffffffffffffffffffffffffffffffffffff16906020019092919080356fffffffffffffffffffffffffffffffff19169060200190929190505050611367565b604051808215151515815260200191505060405180910390f35b3480156104cf57600080fd5b506104d8611405565b604051808273ffffffffffffffffffffffffffffffffffffffff1673ffffffffffffffffffffffffffffffffffffffff16815260200191505060405180910390f35b34801561052657600080fd5b5061055b600480360381019080803573ffffffffffffffffffffffffffffffffffffffff16906020019092919050505061142b565b604051808215151515815260200191505060405180910390f35b34801561058157600080fd5b506105e1600480360381019080803560001916906020019092919080356fffffffffffffffffffffffffffffffff19169060200190929190803573ffffffffffffffffffffffffffffffffffffffff16906020019092919050505061144b565b604051808215151515815260200191505060405180910390f35b34801561060757600080fd5b5061063c600480360381019080803573ffffffffffffffffffffffffffffffffffffffff169060200190929190505050611741565b005b34801561064a57600080fd5b5061067c60048036038101908080356fffffffffffffffffffffffffffffffff1916906020019092919050505061181c565b6040518080602001828103825283818151815260200191508051906020019060200280838360005b838110156106bf5780820151818401526020810190506106a4565b505050509050019250505060405180910390f35b3480156106df57600080fd5b506106e86118e6565b604051808273ffffffffffffffffffffffffffffffffffffffff1673ffffffffffffffffffffffffffffffffffffffff16815260200191505060405180910390f35b34801561073657600080fd5b5061076b600480360381019080803573ffffffffffffffffffffffffffffffffffffffff16906020019092919050505061190c565b6040518080602001828103825283818151815260200191508051906020019060200280838360005b838110156107ae578082015181840152602081019050610793565b505050509050019250505060405180910390f35b6060600460008373ffffffffffffffffffffffffffffffffffffffff1673ffffffffffffffffffffffffffffffffffffffff16815260200190815260200160002060000180548060200260200160405190810160405280929190818152602001828054801561085457602002820191906000526020600020905b8154600019168152602001906001019080831161083c575b50505050509050919050565b600060011515600360003373ffffffffffffffffffffffffffffffffffffffff1673ffffffffffffffffffffffffffffffffffffffff16815260200190815260200160002060009054906101000a900460ff16151514151561090b577f0489f2369368f4688acd012107ac5a7d98ca739b913449d852f35d871e433cc3600e6040518082601e8111156108ef57fe5b60ff16815260200191505060405180910390a1600090506109bb565b600660008373ffffffffffffffffffffffffffffffffffffffff1673ffffffffffffffffffffffffffffffffffffffff16815260200190815260200160002060000183908060018154018082558091505090600182039060005260206000209060029182820401919006601002909192909190916101000a8154816fffffffffffffffffffffffffffffffff02191690837001000000000000000000000000000000009004021790555050600190505b92915050565b6000806000809054906101000a900473ffffffffffffffffffffffffffffffffffffffff1673ffffffffffffffffffffffffffffffffffffffff163373ffffffffffffffffffffffffffffffffffffffff1614158015610a6f5750600260009054906101000a900473ffffffffffffffffffffffffffffffffffffffff1673ffffffffffffffffffffffffffffffffffffffff163373ffffffffffffffffffffffffffffffffffffffff1614155b15610ac3577f0489f2369368f4688acd012107ac5a7d98ca739b913449d852f35d871e433cc3600f6040518082601e811115610aa757fe5b60ff16815260200191505060405180910390a160009150610c0f565b600090505b8251811015610c0a57600073ffffffffffffffffffffffffffffffffffffffff168382815181101515610af757fe5b9060200190602002015173ffffffffffffffffffffffffffffffffffffffff1614151515610b2457600080fd5b6001600360008584815181101515610b3857fe5b9060200190602002015173ffffffffffffffffffffffffffffffffffffffff1673ffffffffffffffffffffffffffffffffffffffff16815260200190815260200160002060006101000a81548160ff0219169083151502179055508281815181101515610ba157fe5b9060200190602002015173ffffffffffffffffffffffffffffffffffffffff167f9b3b880c67f4fab4215412179771cffd326a045e6016a7e363eb38460f7e91766001604051808215151515815260200191505060405180910390a28080600101915050610ac8565b600191505b50919050565b6000809054906101000a900473ffffffffffffffffffffffffffffffffffffffff1673ffffffffffffffffffffffffffffffffffffffff163373ffffffffffffffffffffffffffffffffffffffff161480610cbd5750600260009054906101000a900473ffffffffffffffffffffffffffffffffffffffff1673ffffffffffffffffffffffffffffffffffffffff163373ffffffffffffffffffffffffffffffffffffffff16145b1515610cc857600080fd5b8073ffffffffffffffffffffffffffffffffffffffff16600260009054906101000a900473ffffffffffffffffffffffffffffffffffffffff1673ffffffffffffffffffffffffffffffffffffffff167ff73aa4459d935dbacd9313fffe485016147551d99ef401461704cd39e6e9028760405160405180910390a380600260006101000a81548173ffffffffffffffffffffffffffffffffffffffff021916908373ffffffffffffffffffffffffffffffffffffffff16021790555050565b6000809054906101000a900473ffffffffffffffffffffffffffffffffffffffff1673ffffffffffffffffffffffffffffffffffffffff163373ffffffffffffffffffffffffffffffffffffffff16141515610de357600080fd5b6000809054906101000a900473ffffffffffffffffffffffffffffffffffffffff1673ffffffffffffffffffffffffffffffffffffffff167f2dde1bc8b58ef192e7df3e7a354521d958331021e450d544346b936936916ef460405160405180910390a260008060006101000a81548173ffffffffffffffffffffffffffffffffffffffff021916908373ffffffffffffffffffffffffffffffffffffffff160217905550565b600160009054906101000a900473ffffffffffffffffffffffffffffffffffffffff1673ffffffffffffffffffffffffffffffffffffffff163373ffffffffffffffffffffffffffffffffffffffff16141515610ee657600080fd5b600160009054906101000a900473ffffffffffffffffffffffffffffffffffffffff1673ffffffffffffffffffffffffffffffffffffffff166000809054906101000a900473ffffffffffffffffffffffffffffffffffffffff1673ffffffffffffffffffffffffffffffffffffffff167fdb6d05f3295cede580affa301a1eb5297528f3b3f6a56b075887ce6f61c45f2160405160405180910390a3600160009054906101000a900473ffffffffffffffffffffffffffffffffffffffff166000806101000a81548173ffffffffffffffffffffffffffffffffffffffff021916908373ffffffffffffffffffffffffffffffffffffffff1602179055506000600160006101000a81548173ffffffffffffffffffffffffffffffffffffffff021916908373ffffffffffffffffffffffffffffffffffffffff160217905550565b6000809054906101000a900473ffffffffffffffffffffffffffffffffffffffff1681565b6060600460008373ffffffffffffffffffffffffffffffffffffffff1673ffffffffffffffffffffffffffffffffffffffff16815260200190815260200160002060010180548060200260200160405190810160405280929190818152602001828054801561112257602002820191906000526020600020906000905b82829054906101000a9004700100000000000000000000000000000000026fffffffffffffffffffffffffffffffff191681526020019060100190602082600f010492830192600103820291508084116110cb5790505b50505050509050919050565b60008060009054906101000a900473ffffffffffffffffffffffffffffffffffffffff1673ffffffffffffffffffffffffffffffffffffffff163373ffffffffffffffffffffffffffffffffffffffff16141580156111db5750600260009054906101000a900473ffffffffffffffffffffffffffffffffffffffff1673ffffffffffffffffffffffffffffffffffffffff163373ffffffffffffffffffffffffffffffffffffffff1614155b1561122f577f0489f2369368f4688acd012107ac5a7d98ca739b913449d852f35d871e433cc3600f6040518082601e81111561121357fe5b60ff16815260200191505060405180910390a160009050611361565b600073ffffffffffffffffffffffffffffffffffffffff168373ffffffffffffffffffffffffffffffffffffffff1614156112b3577f0489f2369368f4688acd012107ac5a7d98ca739b913449d852f35d871e433cc360026040518082601e81111561129757fe5b60ff16815260200191505060405180910390a160009050611361565b81600360008573ffffffffffffffffffffffffffffffffffffffff1673ffffffffffffffffffffffffffffffffffffffff16815260200190815260200160002060006101000a81548160ff0219169083151502179055508273ffffffffffffffffffffffffffffffffffffffff167f9b3b880c67f4fab4215412179771cffd326a045e6016a7e363eb38460f7e917683604051808215151515815260200191505060405180910390a2600190505b92915050565b60008060010260056000846fffffffffffffffffffffffffffffffff19166fffffffffffffffffffffffffffffffff1916815260200190815260200160002060000160008573ffffffffffffffffffffffffffffffffffffffff1673ffffffffffffffffffffffffffffffffffffffff168152602001908152602001600020546000191614156113fa57600090506113ff565b600190505b92915050565b600160009054906101000a900473ffffffffffffffffffffffffffffffffffffffff1681565b60036020528060005260406000206000915054906101000a900460ff1681565b600060011515600360003373ffffffffffffffffffffffffffffffffffffffff1673ffffffffffffffffffffffffffffffffffffffff16815260200190815260200160002060009054906101000a900460ff1615151415156114f6577f0489f2369368f4688acd012107ac5a7d98ca739b913449d852f35d871e433cc3600e6040518082601e8111156114da57fe5b60ff16815260200191505060405180910390a16000905061173a565b600460008373ffffffffffffffffffffffffffffffffffffffff1673ffffffffffffffffffffffffffffffffffffffff168152602001908152602001600020600001849080600181540180825580915050906001820390600052602060002001600090919290919091509060001916905550600460008373ffffffffffffffffffffffffffffffffffffffff1673ffffffffffffffffffffffffffffffffffffffff16815260200190815260200160002060010183908060018154018082558091505090600182039060005260206000209060029182820401919006601002909192909190916101000a8154816fffffffffffffffffffffffffffffffff0219169083700100000000000000000000000000000000900402179055505060056000846fffffffffffffffffffffffffffffffff19166fffffffffffffffffffffffffffffffff191681526020019081526020016000206001018290806001815401808255809150509060018203906000526020600020016000909192909190916101000a81548173ffffffffffffffffffffffffffffffffffffffff021916908373ffffffffffffffffffffffffffffffffffffffff160217905550508360056000856fffffffffffffffffffffffffffffffff19166fffffffffffffffffffffffffffffffff1916815260200190815260200160002060000160008473ffffffffffffffffffffffffffffffffffffffff1673ffffffffffffffffffffffffffffffffffffffff1681526020019081526020016000208160001916905550600190505b9392505050565b6000809054906101000a900473ffffffffffffffffffffffffffffffffffffffff1673ffffffffffffffffffffffffffffffffffffffff163373ffffffffffffffffffffffffffffffffffffffff1614151561179c57600080fd5b600073ffffffffffffffffffffffffffffffffffffffff168173ffffffffffffffffffffffffffffffffffffffff16141515156117d857600080fd5b80600160006101000a81548173ffffffffffffffffffffffffffffffffffffffff021916908373ffffffffffffffffffffffffffffffffffffffff16021790555050565b606060056000836fffffffffffffffffffffffffffffffff19166fffffffffffffffffffffffffffffffff191681526020019081526020016000206001018054806020026020016040519081016040528092919081815260200182805480156118da57602002820191906000526020600020905b8160009054906101000a900473ffffffffffffffffffffffffffffffffffffffff1673ffffffffffffffffffffffffffffffffffffffff1681526020019060010190808311611890575b50505050509050919050565b600260009054906101000a900473ffffffffffffffffffffffffffffffffffffffff1681565b6060600660008373ffffffffffffffffffffffffffffffffffffffff1673ffffffffffffffffffffffffffffffffffffffff1681526020019081526020016000206000018054806020026020016040519081016040528092919081815260200182805480156119e057602002820191906000526020600020906000905b82829054906101000a9004700100000000000000000000000000000000026fffffffffffffffffffffffffffffffff191681526020019060100190602082600f010492830192600103820291508084116119895790505b505050505090509190505600a165627a7a7230582076b656a19f895d7a4bda89f1cfca1ffee8f51e35bf00314c1c1cfe1f7d9303fb0029",
  "source": "pragma solidity ^0.4.24;\n\nimport \"./ClaimDB.sol\";\nimport \"./OrderDB.sol\";\nimport \"./InfoDB.sol\";\n\n\nimport \"./CenterControl.sol\";\nimport \"./AuthorModule.sol\";\nimport \"./UserModule.sol\";\nimport \"./AdminModule.sol\";\n\n/*\n    vm address list:\n        0xCA35b7d915458EF540aDe6068dFe2F44E8fa733c\n        0x14723A09ACff6D2A60DcdF7aA4AFf308FDDC160C\n        0x4B0897b0513fdC7C541B6d9D7E929C4e5364D2dB\n        0x583031D1113aD414F02576BD6afaBfb302140225\n        0xdD870fA1b7C4700F2BD7f44238821C26f7392148\n\n        0xb49B5ab11b80aD4aE92EFb9E0Bf4a612335129d3\n*/\n\ncontract DeployDB is OwnPlus{\n\n    address public ClaimDB_;\n    address public OrderDB_;\n    address public InfoDB_;\n\n    address public OwnerAddr_;\n\n    constructor() public{\n        OwnerAddr_ = msg.sender;\n        _deployDB();\n    }\n\n    function _deployDB()\n         internal\n    {\n        ClaimDB_ = new ClaimDB(OwnerAddr_);\n        OrderDB_ = new OrderDB(OwnerAddr_);\n        InfoDB_  = new InfoDB(OwnerAddr_);\n     }\n\n    bool public initFlag_ = false;\n    function init() public{\n        require(!initFlag_);\n        admin = msg.sender;\n        initFlag_ = true;\n    }\n\n    function claimWhite(address _target, bool _allow) onlyAdmin public returns(bool){\n        require(ClaimDB(ClaimDB_).mangeWhiteList(_target, _allow));\n        return true;\n    }\n\n    function orderWhite(address _target, bool _allow) onlyAdmin public returns(bool){\n        require(OrderDB(OrderDB_).mangeWhiteList(_target, _allow));\n        return true;\n    }\n\n    function infoWhite(address _target, bool _allow) onlyAdmin public returns(bool){\n        require(InfoDB(InfoDB_).mangeWhiteList(_target, _allow));\n        return true;\n    }\n\n    function end(address _newAdmin) public onlyAdmin returns(bool){\n        ClaimDB(ClaimDB_).transferAdminship(_newAdmin);\n        OrderDB(OrderDB_).transferAdminship(_newAdmin);\n        InfoDB(InfoDB_).transferAdminship(_newAdmin);\n        return true;\n    }\n}\n\ncontract DeployUser is OwnPlus{\n    DeployDB public DeployDB_;\n\n    address  _claimPool = 0x9C301D8b430952565aa4233E1B27c5ee50E890bf;\n\n    address public claimDB_;\n    address public orderDB_;\n    address public infoDB_;\n\n    address public CenterPublish_;\n    address public AuthorModule_;\n    address public AdminModule_;\n    address public UserModule_;\n\n    address public mulTransfer_;\n\n    address public OwnerAddr_;\n\n    constructor(address _db) public{\n        OwnerAddr_ = msg.sender;\n\n        DeployDB_ = DeployDB(_db);\n\n        _getContractAddress();\n        _deploy();\n        //_deployModule();\n    }\n\n    bool public initFlag_ = false;\n    function init() public{\n        require(!initFlag_);\n        admin = msg.sender;\n        initFlag_ = true;\n\n        DeployDB_.init();\n        _init();\n    }\n\n    function _getContractAddress() internal{\n        claimDB_ = DeployDB_.ClaimDB_();\n        orderDB_ = DeployDB_.OrderDB_();\n        infoDB_  = DeployDB_.InfoDB_();\n    }\n\n\n    function _deploy()\n        internal\n    {\n        CenterPublish_ = new CenterControl(_claimPool, OwnerAddr_);\n        AuthorModule_ = new AuthorModule(CenterPublish_, infoDB_);\n        UserModule_ = new UserModule(CenterPublish_, infoDB_);\n        AdminModule_ = new AdminModule(claimDB_, orderDB_, OwnerAddr_);\n    }\n\n\n    function _init() internal{\n        CenterControl(CenterPublish_).initialize(claimDB_, orderDB_, infoDB_);\n\n\n        // 1. claim center\n        DeployDB_.claimWhite(CenterPublish_, true);\n        // 1. claimadmin\n        DeployDB_.claimWhite(AdminModule_, true);\n        // 1. order center\n        DeployDB_.orderWhite(CenterPublish_, true);\n        // 1. info center\n        DeployDB_.infoWhite(CenterPublish_, true);\n\n        // 1. center author\n        centerWhite(AuthorModule_, true);\n        // 1. center user\n        centerWhite(UserModule_, true);\n\n    }\n\n    function centerWhite(address _target, bool _allow) onlyAdmin public returns(bool){\n        require(CenterControl(CenterPublish_).mangeWhiteList(_target, _allow));\n        return true;\n    }\n\n    function _end(address _newAdmin) internal {\n        CenterControl(CenterPublish_).transferAdminship(_newAdmin);\n        AdminModule(AdminModule_).transferAdminship(_newAdmin);\n    }\n\n    function end(address _newAdmin) public onlyAdmin returns(bool){\n        DeployDB_.end(_newAdmin);\n        _end(_newAdmin);\n        return true;\n    }\n\n//    function addminWhite(address _target, bool _allow) onlyAdmin public returns(bool){\n//        require(AdminModule_.mangeWhiteList(_target, _allow));\n//        return true;\n//    }\n\n//    function infoWhite(address _target, bool _allow) onlyAdmin public returns(bool){\n//        require(InfoDB_.mangeWhiteList(_target, _allow));\n//        return true;\n//    }\n}\n\n",
  "sourcePath": "E:\\sol\\blog\\contracts\\DeployHelper.sol",
  "compiler": {
    "name": "solc",
    "version": "0.4.24+commit.e67f0147.Emscripten.clang"
  },
  "schemaVersion": "2.0.1",
  "updatedAt": "2018-08-27T09:46:48.205Z"
}