{
  "contractName": "DeployUser",
  "abi": [
    {
      "constant": true,
      "inputs": [],
      "name": "orderDB_",
      "outputs": [
        {
          "name": "",
          "type": "address"
        }
      ],
      "payable": false,
      "stateMutability": "view",
      "type": "function"
    },
    {
      "constant": true,
      "inputs": [],
      "name": "AuthorModule_",
      "outputs": [
        {
          "name": "",
          "type": "address"
        }
      ],
      "payable": false,
      "stateMutability": "view",
      "type": "function"
    },
    {
      "constant": true,
      "inputs": [],
      "name": "AdminModule_",
      "outputs": [
        {
          "name": "",
          "type": "address"
        }
      ],
      "payable": false,
      "stateMutability": "view",
      "type": "function"
    },
    {
      "constant": true,
      "inputs": [],
      "name": "CenterPublish_",
      "outputs": [
        {
          "name": "",
          "type": "address"
        }
      ],
      "payable": false,
      "stateMutability": "view",
      "type": "function"
    },
    {
      "constant": false,
      "inputs": [
        {
          "name": "_newAdmin",
          "type": "address"
        }
      ],
      "name": "transferAdminship",
      "outputs": [],
      "payable": false,
      "stateMutability": "nonpayable",
      "type": "function"
    },
    {
      "constant": true,
      "inputs": [],
      "name": "claimDB_",
      "outputs": [
        {
          "name": "",
          "type": "address"
        }
      ],
      "payable": false,
      "stateMutability": "view",
      "type": "function"
    },
    {
      "constant": true,
      "inputs": [],
      "name": "OwnerAddr_",
      "outputs": [
        {
          "name": "",
          "type": "address"
        }
      ],
      "payable": false,
      "stateMutability": "view",
      "type": "function"
    },
    {
      "constant": true,
      "inputs": [],
      "name": "mulTransfer_",
      "outputs": [
        {
          "name": "",
          "type": "address"
        }
      ],
      "payable": false,
      "stateMutability": "view",
      "type": "function"
    },
    {
      "constant": false,
      "inputs": [],
      "name": "renounceOwnership",
      "outputs": [],
      "payable": false,
      "stateMutability": "nonpayable",
      "type": "function"
    },
    {
      "constant": false,
      "inputs": [],
      "name": "acceptOwnership",
      "outputs": [],
      "payable": false,
      "stateMutability": "nonpayable",
      "type": "function"
    },
    {
      "constant": true,
      "inputs": [],
      "name": "owner",
      "outputs": [
        {
          "name": "",
          "type": "address"
        }
      ],
      "payable": false,
      "stateMutability": "view",
      "type": "function"
    },
    {
      "constant": true,
      "inputs": [],
      "name": "infoDB_",
      "outputs": [
        {
          "name": "",
          "type": "address"
        }
      ],
      "payable": false,
      "stateMutability": "view",
      "type": "function"
    },
    {
      "constant": true,
      "inputs": [],
      "name": "UserModule_",
      "outputs": [
        {
          "name": "",
          "type": "address"
        }
      ],
      "payable": false,
      "stateMutability": "view",
      "type": "function"
    },
    {
      "constant": true,
      "inputs": [],
      "name": "DeployDB_",
      "outputs": [
        {
          "name": "",
          "type": "address"
        }
      ],
      "payable": false,
      "stateMutability": "view",
      "type": "function"
    },
    {
      "constant": true,
      "inputs": [],
      "name": "initFlag_",
      "outputs": [
        {
          "name": "",
          "type": "bool"
        }
      ],
      "payable": false,
      "stateMutability": "view",
      "type": "function"
    },
    {
      "constant": true,
      "inputs": [],
      "name": "newOwner",
      "outputs": [
        {
          "name": "",
          "type": "address"
        }
      ],
      "payable": false,
      "stateMutability": "view",
      "type": "function"
    },
    {
      "constant": false,
      "inputs": [
        {
          "name": "_newOwner",
          "type": "address"
        }
      ],
      "name": "transferOwnership",
      "outputs": [],
      "payable": false,
      "stateMutability": "nonpayable",
      "type": "function"
    },
    {
      "constant": true,
      "inputs": [],
      "name": "admin",
      "outputs": [
        {
          "name": "",
          "type": "address"
        }
      ],
      "payable": false,
      "stateMutability": "view",
      "type": "function"
    },
    {
      "inputs": [
        {
          "name": "_db",
          "type": "address"
        }
      ],
      "payable": false,
      "stateMutability": "nonpayable",
      "type": "constructor"
    },
    {
      "anonymous": false,
      "inputs": [
        {
          "indexed": true,
          "name": "_old",
          "type": "address"
        },
        {
          "indexed": true,
          "name": "_new",
          "type": "address"
        }
      ],
      "name": "LogAdminshipTransferred",
      "type": "event"
    },
    {
      "anonymous": false,
      "inputs": [
        {
          "indexed": true,
          "name": "previousOwner",
          "type": "address"
        }
      ],
      "name": "LogOwnershipRenounced",
      "type": "event"
    },
    {
      "anonymous": false,
      "inputs": [
        {
          "indexed": true,
          "name": "previousOwner",
          "type": "address"
        },
        {
          "indexed": true,
          "name": "newOwner",
          "type": "address"
        }
      ],
      "name": "LogOwnershipTransferred",
      "type": "event"
    },
    {
      "constant": false,
      "inputs": [],
      "name": "init",
      "outputs": [],
      "payable": false,
      "stateMutability": "nonpayable",
      "type": "function"
    },
    {
      "constant": false,
      "inputs": [
        {
          "name": "_target",
          "type": "address"
        },
        {
          "name": "_allow",
          "type": "bool"
        }
      ],
      "name": "centerWhite",
      "outputs": [
        {
          "name": "",
          "type": "bool"
        }
      ],
      "payable": false,
      "stateMutability": "nonpayable",
      "type": "function"
    },
    {
      "constant": false,
      "inputs": [
        {
          "name": "_newAdmin",
          "type": "address"
        }
      ],
      "name": "end",
      "outputs": [
        {
          "name": "",
          "type": "bool"
        }
      ],
      "payable": false,
      "stateMutability": "nonpayable",
      "type": "function"
    }
  ],
  "bytecode": "0x6080604052739c301d8b430952565aa4233e1b27c5ee50e890bf600460006101000a81548173ffffffffffffffffffffffffffffffffffffffff021916908373ffffffffffffffffffffffffffffffffffffffff1602179055506000600d60146101000a81548160ff0219169083151502179055503480156200008157600080fd5b506040516020806200a90483398101806040528101908080519060200190929190505050336000806101000a81548173ffffffffffffffffffffffffffffffffffffffff021916908373ffffffffffffffffffffffffffffffffffffffff16021790555033600260006101000a81548173ffffffffffffffffffffffffffffffffffffffff021916908373ffffffffffffffffffffffffffffffffffffffff16021790555033600d60006101000a81548173ffffffffffffffffffffffffffffffffffffffff021916908373ffffffffffffffffffffffffffffffffffffffff16021790555080600360006101000a81548173ffffffffffffffffffffffffffffffffffffffff021916908373ffffffffffffffffffffffffffffffffffffffff160217905550620001c1620001e1640100000000026401000000009004565b620001da620004ef640100000000026401000000009004565b50620009e7565b600360009054906101000a900473ffffffffffffffffffffffffffffffffffffffff1673ffffffffffffffffffffffffffffffffffffffff1663174a65d56040518163ffffffff167c0100000000000000000000000000000000000000000000000000000000028152600401602060405180830381600087803b1580156200026857600080fd5b505af11580156200027d573d6000803e3d6000fd5b505050506040513d60208110156200029457600080fd5b8101908080519060200190929190505050600560006101000a81548173ffffffffffffffffffffffffffffffffffffffff021916908373ffffffffffffffffffffffffffffffffffffffff160217905550600360009054906101000a900473ffffffffffffffffffffffffffffffffffffffff1673ffffffffffffffffffffffffffffffffffffffff16637053c4506040518163ffffffff167c0100000000000000000000000000000000000000000000000000000000028152600401602060405180830381600087803b1580156200036c57600080fd5b505af115801562000381573d6000803e3d6000fd5b505050506040513d60208110156200039857600080fd5b8101908080519060200190929190505050600660006101000a81548173ffffffffffffffffffffffffffffffffffffffff021916908373ffffffffffffffffffffffffffffffffffffffff160217905550600360009054906101000a900473ffffffffffffffffffffffffffffffffffffffff1673ffffffffffffffffffffffffffffffffffffffff166388f9c3aa6040518163ffffffff167c0100000000000000000000000000000000000000000000000000000000028152600401602060405180830381600087803b1580156200047057600080fd5b505af115801562000485573d6000803e3d6000fd5b505050506040513d60208110156200049c57600080fd5b8101908080519060200190929190505050600760006101000a81548173ffffffffffffffffffffffffffffffffffffffff021916908373ffffffffffffffffffffffffffffffffffffffff160217905550565b600460009054906101000a900473ffffffffffffffffffffffffffffffffffffffff16600d60009054906101000a900473ffffffffffffffffffffffffffffffffffffffff166200053f620009a3565b808373ffffffffffffffffffffffffffffffffffffffff1673ffffffffffffffffffffffffffffffffffffffff1681526020018273ffffffffffffffffffffffffffffffffffffffff1673ffffffffffffffffffffffffffffffffffffffff16815260200192505050604051809103906000f080158015620005c5573d6000803e3d6000fd5b50600860006101000a81548173ffffffffffffffffffffffffffffffffffffffff021916908373ffffffffffffffffffffffffffffffffffffffff160217905550600860009054906101000a900473ffffffffffffffffffffffffffffffffffffffff16600760009054906101000a900473ffffffffffffffffffffffffffffffffffffffff1662000656620009b4565b808373ffffffffffffffffffffffffffffffffffffffff1673ffffffffffffffffffffffffffffffffffffffff1681526020018273ffffffffffffffffffffffffffffffffffffffff1673ffffffffffffffffffffffffffffffffffffffff16815260200192505050604051809103906000f080158015620006dc573d6000803e3d6000fd5b50600960006101000a81548173ffffffffffffffffffffffffffffffffffffffff021916908373ffffffffffffffffffffffffffffffffffffffff160217905550600860009054906101000a900473ffffffffffffffffffffffffffffffffffffffff16600760009054906101000a900473ffffffffffffffffffffffffffffffffffffffff166200076d620009c5565b808373ffffffffffffffffffffffffffffffffffffffff1673ffffffffffffffffffffffffffffffffffffffff1681526020018273ffffffffffffffffffffffffffffffffffffffff1673ffffffffffffffffffffffffffffffffffffffff16815260200192505050604051809103906000f080158015620007f3573d6000803e3d6000fd5b50600b60006101000a81548173ffffffffffffffffffffffffffffffffffffffff021916908373ffffffffffffffffffffffffffffffffffffffff160217905550600560009054906101000a900473ffffffffffffffffffffffffffffffffffffffff16600660009054906101000a900473ffffffffffffffffffffffffffffffffffffffff16600d60009054906101000a900473ffffffffffffffffffffffffffffffffffffffff16620008a7620009d6565b808473ffffffffffffffffffffffffffffffffffffffff1673ffffffffffffffffffffffffffffffffffffffff1681526020018373ffffffffffffffffffffffffffffffffffffffff1673ffffffffffffffffffffffffffffffffffffffff1681526020018273ffffffffffffffffffffffffffffffffffffffff1673ffffffffffffffffffffffffffffffffffffffff1681526020019350505050604051809103906000f08015801562000960573d6000803e3d6000fd5b50600a60006101000a81548173ffffffffffffffffffffffffffffffffffffffff021916908373ffffffffffffffffffffffffffffffffffffffff160217905550565b6040516136e6806200257b83390190565b6040516119e18062005c6183390190565b604051610c78806200764283390190565b60405161264a80620082ba83390190565b611b8480620009f76000396000f30060806040526004361061011d576000357c0100000000000000000000000000000000000000000000000000000000900463ffffffff1680630fb8d454146101225780631d021f0b146101795780631f6891bd146101e0578063537a2db51461023757806357a0aa871461028e5780635be7cc16146102e55780635e67e239146103285780636199c91d1461037f5780636272e353146103d6578063715018a61461042d57806379ba5097146104445780638c4dd39d1461045b5780638da5cb5b146104b6578063993aa7f61461050d578063a097b32914610564578063b862bd61146105bb578063c7d6225714610612578063d4ee1d9014610641578063e1c7392a14610698578063f2fde38b146106af578063f851a440146106f2575b600080fd5b34801561012e57600080fd5b50610137610749565b604051808273ffffffffffffffffffffffffffffffffffffffff1673ffffffffffffffffffffffffffffffffffffffff16815260200191505060405180910390f35b34801561018557600080fd5b506101c6600480360381019080803573ffffffffffffffffffffffffffffffffffffffff16906020019092919080351515906020019092919050505061076f565b604051808215151515815260200191505060405180910390f35b3480156101ec57600080fd5b506101f561093d565b604051808273ffffffffffffffffffffffffffffffffffffffff1673ffffffffffffffffffffffffffffffffffffffff16815260200191505060405180910390f35b34801561024357600080fd5b5061024c610963565b604051808273ffffffffffffffffffffffffffffffffffffffff1673ffffffffffffffffffffffffffffffffffffffff16815260200191505060405180910390f35b34801561029a57600080fd5b506102a3610989565b604051808273ffffffffffffffffffffffffffffffffffffffff1673ffffffffffffffffffffffffffffffffffffffff16815260200191505060405180910390f35b3480156102f157600080fd5b50610326600480360381019080803573ffffffffffffffffffffffffffffffffffffffff1690602001909291905050506109af565b005b34801561033457600080fd5b5061033d610b22565b604051808273ffffffffffffffffffffffffffffffffffffffff1673ffffffffffffffffffffffffffffffffffffffff16815260200191505060405180910390f35b34801561038b57600080fd5b50610394610b48565b604051808273ffffffffffffffffffffffffffffffffffffffff1673ffffffffffffffffffffffffffffffffffffffff16815260200191505060405180910390f35b3480156103e257600080fd5b506103eb610b6e565b604051808273ffffffffffffffffffffffffffffffffffffffff1673ffffffffffffffffffffffffffffffffffffffff16815260200191505060405180910390f35b34801561043957600080fd5b50610442610b94565b005b34801561045057600080fd5b50610459610c96565b005b34801561046757600080fd5b5061049c600480360381019080803573ffffffffffffffffffffffffffffffffffffffff169060200190929190505050610e35565b604051808215151515815260200191505060405180910390f35b3480156104c257600080fd5b506104cb610ff5565b604051808273ffffffffffffffffffffffffffffffffffffffff1673ffffffffffffffffffffffffffffffffffffffff16815260200191505060405180910390f35b34801561051957600080fd5b5061052261101a565b604051808273ffffffffffffffffffffffffffffffffffffffff1673ffffffffffffffffffffffffffffffffffffffff16815260200191505060405180910390f35b34801561057057600080fd5b50610579611040565b604051808273ffffffffffffffffffffffffffffffffffffffff1673ffffffffffffffffffffffffffffffffffffffff16815260200191505060405180910390f35b3480156105c757600080fd5b506105d0611066565b604051808273ffffffffffffffffffffffffffffffffffffffff1673ffffffffffffffffffffffffffffffffffffffff16815260200191505060405180910390f35b34801561061e57600080fd5b5061062761108c565b604051808215151515815260200191505060405180910390f35b34801561064d57600080fd5b5061065661109f565b604051808273ffffffffffffffffffffffffffffffffffffffff1673ffffffffffffffffffffffffffffffffffffffff16815260200191505060405180910390f35b3480156106a457600080fd5b506106ad6110c5565b005b3480156106bb57600080fd5b506106f0600480360381019080803573ffffffffffffffffffffffffffffffffffffffff1690602001909291905050506111e5565b005b3480156106fe57600080fd5b506107076112c0565b604051808273ffffffffffffffffffffffffffffffffffffffff1673ffffffffffffffffffffffffffffffffffffffff16815260200191505060405180910390f35b600660009054906101000a900473ffffffffffffffffffffffffffffffffffffffff1681565b60008060009054906101000a900473ffffffffffffffffffffffffffffffffffffffff1673ffffffffffffffffffffffffffffffffffffffff163373ffffffffffffffffffffffffffffffffffffffff1614806108195750600260009054906101000a900473ffffffffffffffffffffffffffffffffffffffff1673ffffffffffffffffffffffffffffffffffffffff163373ffffffffffffffffffffffffffffffffffffffff16145b151561082457600080fd5b600860009054906101000a900473ffffffffffffffffffffffffffffffffffffffff1673ffffffffffffffffffffffffffffffffffffffff1663a8e1fba384846040518363ffffffff167c0100000000000000000000000000000000000000000000000000000000028152600401808373ffffffffffffffffffffffffffffffffffffffff1673ffffffffffffffffffffffffffffffffffffffff1681526020018215151515815260200192505050602060405180830381600087803b1580156108ed57600080fd5b505af1158015610901573d6000803e3d6000fd5b505050506040513d602081101561091757600080fd5b8101908080519060200190929190505050151561093357600080fd5b6001905092915050565b600960009054906101000a900473ffffffffffffffffffffffffffffffffffffffff1681565b600a60009054906101000a900473ffffffffffffffffffffffffffffffffffffffff1681565b600860009054906101000a900473ffffffffffffffffffffffffffffffffffffffff1681565b6000809054906101000a900473ffffffffffffffffffffffffffffffffffffffff1673ffffffffffffffffffffffffffffffffffffffff163373ffffffffffffffffffffffffffffffffffffffff161480610a575750600260009054906101000a900473ffffffffffffffffffffffffffffffffffffffff1673ffffffffffffffffffffffffffffffffffffffff163373ffffffffffffffffffffffffffffffffffffffff16145b1515610a6257600080fd5b8073ffffffffffffffffffffffffffffffffffffffff16600260009054906101000a900473ffffffffffffffffffffffffffffffffffffffff1673ffffffffffffffffffffffffffffffffffffffff167ff73aa4459d935dbacd9313fffe485016147551d99ef401461704cd39e6e9028760405160405180910390a380600260006101000a81548173ffffffffffffffffffffffffffffffffffffffff021916908373ffffffffffffffffffffffffffffffffffffffff16021790555050565b600560009054906101000a900473ffffffffffffffffffffffffffffffffffffffff1681565b600d60009054906101000a900473ffffffffffffffffffffffffffffffffffffffff1681565b600c60009054906101000a900473ffffffffffffffffffffffffffffffffffffffff1681565b6000809054906101000a900473ffffffffffffffffffffffffffffffffffffffff1673ffffffffffffffffffffffffffffffffffffffff163373ffffffffffffffffffffffffffffffffffffffff16141515610bef57600080fd5b6000809054906101000a900473ffffffffffffffffffffffffffffffffffffffff1673ffffffffffffffffffffffffffffffffffffffff167f2dde1bc8b58ef192e7df3e7a354521d958331021e450d544346b936936916ef460405160405180910390a260008060006101000a81548173ffffffffffffffffffffffffffffffffffffffff021916908373ffffffffffffffffffffffffffffffffffffffff160217905550565b600160009054906101000a900473ffffffffffffffffffffffffffffffffffffffff1673ffffffffffffffffffffffffffffffffffffffff163373ffffffffffffffffffffffffffffffffffffffff16141515610cf257600080fd5b600160009054906101000a900473ffffffffffffffffffffffffffffffffffffffff1673ffffffffffffffffffffffffffffffffffffffff166000809054906101000a900473ffffffffffffffffffffffffffffffffffffffff1673ffffffffffffffffffffffffffffffffffffffff167fdb6d05f3295cede580affa301a1eb5297528f3b3f6a56b075887ce6f61c45f2160405160405180910390a3600160009054906101000a900473ffffffffffffffffffffffffffffffffffffffff166000806101000a81548173ffffffffffffffffffffffffffffffffffffffff021916908373ffffffffffffffffffffffffffffffffffffffff1602179055506000600160006101000a81548173ffffffffffffffffffffffffffffffffffffffff021916908373ffffffffffffffffffffffffffffffffffffffff160217905550565b60008060009054906101000a900473ffffffffffffffffffffffffffffffffffffffff1673ffffffffffffffffffffffffffffffffffffffff163373ffffffffffffffffffffffffffffffffffffffff161480610edf5750600260009054906101000a900473ffffffffffffffffffffffffffffffffffffffff1673ffffffffffffffffffffffffffffffffffffffff163373ffffffffffffffffffffffffffffffffffffffff16145b1515610eea57600080fd5b600360009054906101000a900473ffffffffffffffffffffffffffffffffffffffff1673ffffffffffffffffffffffffffffffffffffffff16638c4dd39d836040518263ffffffff167c0100000000000000000000000000000000000000000000000000000000028152600401808273ffffffffffffffffffffffffffffffffffffffff1673ffffffffffffffffffffffffffffffffffffffff168152602001915050602060405180830381600087803b158015610fa757600080fd5b505af1158015610fbb573d6000803e3d6000fd5b505050506040513d6020811015610fd157600080fd5b810190808051906020019092919050505050610fec826112e6565b60019050919050565b6000809054906101000a900473ffffffffffffffffffffffffffffffffffffffff1681565b600760009054906101000a900473ffffffffffffffffffffffffffffffffffffffff1681565b600b60009054906101000a900473ffffffffffffffffffffffffffffffffffffffff1681565b600360009054906101000a900473ffffffffffffffffffffffffffffffffffffffff1681565b600d60149054906101000a900460ff1681565b600160009054906101000a900473ffffffffffffffffffffffffffffffffffffffff1681565b600d60149054906101000a900460ff161515156110e157600080fd5b33600260006101000a81548173ffffffffffffffffffffffffffffffffffffffff021916908373ffffffffffffffffffffffffffffffffffffffff1602179055506001600d60146101000a81548160ff021916908315150217905550600360009054906101000a900473ffffffffffffffffffffffffffffffffffffffff1673ffffffffffffffffffffffffffffffffffffffff1663e1c7392a6040518163ffffffff167c0100000000000000000000000000000000000000000000000000000000028152600401600060405180830381600087803b1580156111c357600080fd5b505af11580156111d7573d6000803e3d6000fd5b505050506111e3611493565b565b6000809054906101000a900473ffffffffffffffffffffffffffffffffffffffff1673ffffffffffffffffffffffffffffffffffffffff163373ffffffffffffffffffffffffffffffffffffffff1614151561124057600080fd5b600073ffffffffffffffffffffffffffffffffffffffff168173ffffffffffffffffffffffffffffffffffffffff161415151561127c57600080fd5b80600160006101000a81548173ffffffffffffffffffffffffffffffffffffffff021916908373ffffffffffffffffffffffffffffffffffffffff16021790555050565b600260009054906101000a900473ffffffffffffffffffffffffffffffffffffffff1681565b600860009054906101000a900473ffffffffffffffffffffffffffffffffffffffff1673ffffffffffffffffffffffffffffffffffffffff16635be7cc16826040518263ffffffff167c0100000000000000000000000000000000000000000000000000000000028152600401808273ffffffffffffffffffffffffffffffffffffffff1673ffffffffffffffffffffffffffffffffffffffff168152602001915050600060405180830381600087803b1580156113a357600080fd5b505af11580156113b7573d6000803e3d6000fd5b50505050600a60009054906101000a900473ffffffffffffffffffffffffffffffffffffffff1673ffffffffffffffffffffffffffffffffffffffff16635be7cc16826040518263ffffffff167c0100000000000000000000000000000000000000000000000000000000028152600401808273ffffffffffffffffffffffffffffffffffffffff1673ffffffffffffffffffffffffffffffffffffffff168152602001915050600060405180830381600087803b15801561147857600080fd5b505af115801561148c573d6000803e3d6000fd5b5050505050565b600860009054906101000a900473ffffffffffffffffffffffffffffffffffffffff1673ffffffffffffffffffffffffffffffffffffffff1663c0c53b8b600560009054906101000a900473ffffffffffffffffffffffffffffffffffffffff16600660009054906101000a900473ffffffffffffffffffffffffffffffffffffffff16600760009054906101000a900473ffffffffffffffffffffffffffffffffffffffff166040518463ffffffff167c0100000000000000000000000000000000000000000000000000000000028152600401808473ffffffffffffffffffffffffffffffffffffffff1673ffffffffffffffffffffffffffffffffffffffff1681526020018373ffffffffffffffffffffffffffffffffffffffff1673ffffffffffffffffffffffffffffffffffffffff1681526020018273ffffffffffffffffffffffffffffffffffffffff1673ffffffffffffffffffffffffffffffffffffffff1681526020019350505050602060405180830381600087803b15801561161e57600080fd5b505af1158015611632573d6000803e3d6000fd5b505050506040513d602081101561164857600080fd5b810190808051906020019092919050505050600360009054906101000a900473ffffffffffffffffffffffffffffffffffffffff1673ffffffffffffffffffffffffffffffffffffffff16636c4824e4600860009054906101000a900473ffffffffffffffffffffffffffffffffffffffff1660016040518363ffffffff167c0100000000000000000000000000000000000000000000000000000000028152600401808373ffffffffffffffffffffffffffffffffffffffff1673ffffffffffffffffffffffffffffffffffffffff1681526020018215151515815260200192505050602060405180830381600087803b15801561174657600080fd5b505af115801561175a573d6000803e3d6000fd5b505050506040513d602081101561177057600080fd5b810190808051906020019092919050505050600360009054906101000a900473ffffffffffffffffffffffffffffffffffffffff1673ffffffffffffffffffffffffffffffffffffffff16636c4824e4600a60009054906101000a900473ffffffffffffffffffffffffffffffffffffffff1660016040518363ffffffff167c0100000000000000000000000000000000000000000000000000000000028152600401808373ffffffffffffffffffffffffffffffffffffffff1673ffffffffffffffffffffffffffffffffffffffff1681526020018215151515815260200192505050602060405180830381600087803b15801561186e57600080fd5b505af1158015611882573d6000803e3d6000fd5b505050506040513d602081101561189857600080fd5b810190808051906020019092919050505050600360009054906101000a900473ffffffffffffffffffffffffffffffffffffffff1673ffffffffffffffffffffffffffffffffffffffff1663e4597085600860009054906101000a900473ffffffffffffffffffffffffffffffffffffffff1660016040518363ffffffff167c0100000000000000000000000000000000000000000000000000000000028152600401808373ffffffffffffffffffffffffffffffffffffffff1673ffffffffffffffffffffffffffffffffffffffff1681526020018215151515815260200192505050602060405180830381600087803b15801561199657600080fd5b505af11580156119aa573d6000803e3d6000fd5b505050506040513d60208110156119c057600080fd5b810190808051906020019092919050505050600360009054906101000a900473ffffffffffffffffffffffffffffffffffffffff1673ffffffffffffffffffffffffffffffffffffffff1663b42910e5600860009054906101000a900473ffffffffffffffffffffffffffffffffffffffff1660016040518363ffffffff167c0100000000000000000000000000000000000000000000000000000000028152600401808373ffffffffffffffffffffffffffffffffffffffff1673ffffffffffffffffffffffffffffffffffffffff1681526020018215151515815260200192505050602060405180830381600087803b158015611abe57600080fd5b505af1158015611ad2573d6000803e3d6000fd5b505050506040513d6020811015611ae857600080fd5b810190808051906020019092919050505050611b27600960009054906101000a900473ffffffffffffffffffffffffffffffffffffffff16600161076f565b50611b55600b60009054906101000a900473ffffffffffffffffffffffffffffffffffffffff16600161076f565b505600a165627a7a72305820b781086846fabe021fd718966539df45d2f32dd8c1e1138901c1a191cb8686fe00296080604052600060075534801561001557600080fd5b506040516040806136e68339810180604052810190808051906020019092919080519060200190929190505050336000806101000a81548173ffffffffffffffffffffffffffffffffffffffff021916908373ffffffffffffffffffffffffffffffffffffffff16021790555033600260006101000a81548173ffffffffffffffffffffffffffffffffffffffff021916908373ffffffffffffffffffffffffffffffffffffffff160217905550806000806101000a81548173ffffffffffffffffffffffffffffffffffffffff021916908373ffffffffffffffffffffffffffffffffffffffff16021790555081600860006101000a81548173ffffffffffffffffffffffffffffffffffffffff021916908373ffffffffffffffffffffffffffffffffffffffff1602179055505050613591806101556000396000f300608060405260043610610154576000357c0100000000000000000000000000000000000000000000000000000000900463ffffffff168063024663f7146101565780630f2b5e111461023c57806315f478fe1461029357806316be9cfe146103ac578063173fff82146104035780632cc576bb1461048557806335e60e891461051d5780635be7cc161461059b5780636c153348146105de5780636df56608146106a2578063715018a6146106f957806379ba50971461071057806384e972eb146107275780638da5cb5b146107ae5780639262db3f14610805578063a8e1fba314610830578063b4a2e0d614610897578063bc43b865146108ee578063c05465d714610933578063c0c53b8b146109b7578063d4ee1d9014610a52578063e56a7c5d14610aa9578063f2fde38b14610b04578063f693db9414610b47578063f851a44014610bf3578063fa86de4114610c4a575b005b34801561016257600080fd5b506101856004803603810190808035600019169060200190929190505050610d12565b604051808781526020018681526020018581526020018473ffffffffffffffffffffffffffffffffffffffff1673ffffffffffffffffffffffffffffffffffffffff1681526020018373ffffffffffffffffffffffffffffffffffffffff1673ffffffffffffffffffffffffffffffffffffffff168152602001826fffffffffffffffffffffffffffffffff19166fffffffffffffffffffffffffffffffff19168152602001965050505050505060405180910390f35b34801561024857600080fd5b50610251610e36565b604051808273ffffffffffffffffffffffffffffffffffffffff1673ffffffffffffffffffffffffffffffffffffffff16815260200191505060405180910390f35b34801561029f57600080fd5b506102d160048036038101908080356fffffffffffffffffffffffffffffffff19169060200190929190505050610e5c565b604051808873ffffffffffffffffffffffffffffffffffffffff1673ffffffffffffffffffffffffffffffffffffffff16815260200180602001878152602001868152602001858152602001841515151581526020018360ff1660ff168152602001828103825288818151815260200191508051906020019080838360005b8381101561036b578082015181840152602081019050610350565b50505050905090810190601f1680156103985780820380516001836020036101000a031916815260200191505b509850505050505050505060405180910390f35b3480156103b857600080fd5b506103c1611008565b604051808273ffffffffffffffffffffffffffffffffffffffff1673ffffffffffffffffffffffffffffffffffffffff16815260200191505060405180910390f35b34801561040f57600080fd5b5061046b60048036038101908080356fffffffffffffffffffffffffffffffff19169060200190929190803573ffffffffffffffffffffffffffffffffffffffff1690602001909291908035906020019092919050505061102e565b604051808215151515815260200191505060405180910390f35b34801561049157600080fd5b5061050360048036038101908080356fffffffffffffffffffffffffffffffff19169060200190929190803573ffffffffffffffffffffffffffffffffffffffff169060200190929190803573ffffffffffffffffffffffffffffffffffffffff169060200190929190505050611211565b604051808215151515815260200191505060405180910390f35b34801561052957600080fd5b5061058160048036038101908080359060200190820180359060200190808060200260200160405190810160405280939291908181526020018383602002808284378201915050505050509192919290505050611420565b604051808215151515815260200191505060405180910390f35b3480156105a757600080fd5b506105dc600480360381019080803573ffffffffffffffffffffffffffffffffffffffff169060200190929190505050611674565b005b3480156105ea57600080fd5b50610688600480360381019080803590602001908201803590602001908080601f0160208091040260200160405190810160405280939291908181526020018383808284378201915050505050509192919290803573ffffffffffffffffffffffffffffffffffffffff16906020019092919080359060200190929190803560ff1690602001909291908035151590602001909291905050506117e7565b604051808215151515815260200191505060405180910390f35b3480156106ae57600080fd5b506106b7611eb4565b604051808273ffffffffffffffffffffffffffffffffffffffff1673ffffffffffffffffffffffffffffffffffffffff16815260200191505060405180910390f35b34801561070557600080fd5b5061070e611eda565b005b34801561071c57600080fd5b50610725611fdc565b005b34801561073357600080fd5b5061076560048036038101908080356fffffffffffffffffffffffffffffffff1916906020019092919050505061217b565b604051808373ffffffffffffffffffffffffffffffffffffffff1673ffffffffffffffffffffffffffffffffffffffff1681526020018281526020019250505060405180910390f35b3480156107ba57600080fd5b506107c3612282565b604051808273ffffffffffffffffffffffffffffffffffffffff1673ffffffffffffffffffffffffffffffffffffffff16815260200191505060405180910390f35b34801561081157600080fd5b5061081a6122a7565b6040518082815260200191505060405180910390f35b34801561083c57600080fd5b5061087d600480360381019080803573ffffffffffffffffffffffffffffffffffffffff1690602001909291908035151590602001909291905050506122ad565b604051808215151515815260200191505060405180910390f35b3480156108a357600080fd5b506108ac6124e6565b604051808273ffffffffffffffffffffffffffffffffffffffff1673ffffffffffffffffffffffffffffffffffffffff16815260200191505060405180910390f35b3480156108fa57600080fd5b506109196004803603810190808035906020019092919050505061250c565b604051808215151515815260200191505060405180910390f35b34801561093f57600080fd5b5061099d60048036038101908080356fffffffffffffffffffffffffffffffff19169060200190929190803573ffffffffffffffffffffffffffffffffffffffff169060200190929190803515159060200190929190505050612677565b604051808215151515815260200191505060405180910390f35b3480156109c357600080fd5b50610a38600480360381019080803573ffffffffffffffffffffffffffffffffffffffff169060200190929190803573ffffffffffffffffffffffffffffffffffffffff169060200190929190803573ffffffffffffffffffffffffffffffffffffffff16906020019092919050505061285e565b604051808215151515815260200191505060405180910390f35b348015610a5e57600080fd5b50610a67612bbe565b604051808273ffffffffffffffffffffffffffffffffffffffff1673ffffffffffffffffffffffffffffffffffffffff16815260200191505060405180910390f35b348015610ab557600080fd5b50610aea600480360381019080803573ffffffffffffffffffffffffffffffffffffffff169060200190929190505050612be4565b604051808215151515815260200191505060405180910390f35b348015610b1057600080fd5b50610b45600480360381019080803573ffffffffffffffffffffffffffffffffffffffff169060200190929190505050612c04565b005b348015610b5357600080fd5b50610bd9600480360381019080803573ffffffffffffffffffffffffffffffffffffffff16906020019092919080356fffffffffffffffffffffffffffffffff1916906020019092919080359060200190929190803573ffffffffffffffffffffffffffffffffffffffff16906020019092919080359060200190929190505050612cdf565b604051808215151515815260200191505060405180910390f35b348015610bff57600080fd5b50610c086132ee565b604051808273ffffffffffffffffffffffffffffffffffffffff1673ffffffffffffffffffffffffffffffffffffffff16815260200191505060405180910390f35b348015610c5657600080fd5b50610cf860048036038101908080356fffffffffffffffffffffffffffffffff19169060200190929190803573ffffffffffffffffffffffffffffffffffffffff169060200190929190803590602001908201803590602001908080601f016020809104026020016040519081016040528093929190818152602001838380828437820191505050505050919291929080359060200190929190505050613314565b604051808215151515815260200191505060405180910390f35b600080600080600080600560009054906101000a900473ffffffffffffffffffffffffffffffffffffffff1673ffffffffffffffffffffffffffffffffffffffff16635d1d1e67886040518263ffffffff167c010000000000000000000000000000000000000000000000000000000002815260040180826000191660001916815260200191505060c060405180830381600087803b158015610db457600080fd5b505af1158015610dc8573d6000803e3d6000fd5b505050506040513d60c0811015610dde57600080fd5b8101908080519060200190929190805190602001909291908051906020019092919080519060200190929190805190602001909291908051906020019092919050505095509550955095509550955091939550919395565b600860009054906101000a900473ffffffffffffffffffffffffffffffffffffffff1681565b600060606000806000806000600460009054906101000a900473ffffffffffffffffffffffffffffffffffffffff1673ffffffffffffffffffffffffffffffffffffffff16635ee16472896040518263ffffffff167c010000000000000000000000000000000000000000000000000000000002815260040180826fffffffffffffffffffffffffffffffff19166fffffffffffffffffffffffffffffffff19168152602001915050600060405180830381600087803b158015610f1f57600080fd5b505af1158015610f33573d6000803e3d6000fd5b505050506040513d6000823e3d601f19601f8201168201806040525060e0811015610f5d57600080fd5b81019080805190602001909291908051640100000000811115610f7f57600080fd5b82810190506020810184811115610f9557600080fd5b8151856001820283011164010000000082111715610fb257600080fd5b505092919060200180519060200190929190805190602001909291908051906020019092919080519060200190929190805190602001909291905050509650965096509650965096509650919395979092949650565b600660009054906101000a900473ffffffffffffffffffffffffffffffffffffffff1681565b600060011515600360003373ffffffffffffffffffffffffffffffffffffffff1673ffffffffffffffffffffffffffffffffffffffff16815260200190815260200160002060009054906101000a900460ff1615151415156110d9577f0489f2369368f4688acd012107ac5a7d98ca739b913449d852f35d871e433cc3600e6040518082601e8111156110bd57fe5b60ff16815260200191505060405180910390a16000905061120a565b600460009054906101000a900473ffffffffffffffffffffffffffffffffffffffff1673ffffffffffffffffffffffffffffffffffffffff1663787b4f098585856040518463ffffffff167c010000000000000000000000000000000000000000000000000000000002815260040180846fffffffffffffffffffffffffffffffff19166fffffffffffffffffffffffffffffffff191681526020018373ffffffffffffffffffffffffffffffffffffffff1673ffffffffffffffffffffffffffffffffffffffff1681526020018281526020019350505050602060405180830381600087803b1580156111cc57600080fd5b505af11580156111e0573d6000803e3d6000fd5b505050506040513d60208110156111f657600080fd5b810190808051906020019092919050505090505b9392505050565b600060011515600360003373ffffffffffffffffffffffffffffffffffffffff1673ffffffffffffffffffffffffffffffffffffffff16815260200190815260200160002060009054906101000a900460ff1615151415156112bc577f0489f2369368f4688acd012107ac5a7d98ca739b913449d852f35d871e433cc3600e6040518082601e8111156112a057fe5b60ff16815260200191505060405180910390a160009050611419565b600460009054906101000a900473ffffffffffffffffffffffffffffffffffffffff1673ffffffffffffffffffffffffffffffffffffffff16632cc576bb8585856040518463ffffffff167c010000000000000000000000000000000000000000000000000000000002815260040180846fffffffffffffffffffffffffffffffff19166fffffffffffffffffffffffffffffffff191681526020018373ffffffffffffffffffffffffffffffffffffffff1673ffffffffffffffffffffffffffffffffffffffff1681526020018273ffffffffffffffffffffffffffffffffffffffff1673ffffffffffffffffffffffffffffffffffffffff1681526020019350505050602060405180830381600087803b1580156113db57600080fd5b505af11580156113ef573d6000803e3d6000fd5b505050506040513d602081101561140557600080fd5b810190808051906020019092919050505090505b9392505050565b6000806000809054906101000a900473ffffffffffffffffffffffffffffffffffffffff1673ffffffffffffffffffffffffffffffffffffffff163373ffffffffffffffffffffffffffffffffffffffff16141580156114ce5750600260009054906101000a900473ffffffffffffffffffffffffffffffffffffffff1673ffffffffffffffffffffffffffffffffffffffff163373ffffffffffffffffffffffffffffffffffffffff1614155b15611522577f0489f2369368f4688acd012107ac5a7d98ca739b913449d852f35d871e433cc3600f6040518082601e81111561150657fe5b60ff16815260200191505060405180910390a16000915061166e565b600090505b825181101561166957600073ffffffffffffffffffffffffffffffffffffffff16838281518110151561155657fe5b9060200190602002015173ffffffffffffffffffffffffffffffffffffffff161415151561158357600080fd5b600160036000858481518110151561159757fe5b9060200190602002015173ffffffffffffffffffffffffffffffffffffffff1673ffffffffffffffffffffffffffffffffffffffff16815260200190815260200160002060006101000a81548160ff021916908315150217905550828181518110151561160057fe5b9060200190602002015173ffffffffffffffffffffffffffffffffffffffff167f9b3b880c67f4fab4215412179771cffd326a045e6016a7e363eb38460f7e91766001604051808215151515815260200191505060405180910390a28080600101915050611527565b600191505b50919050565b6000809054906101000a900473ffffffffffffffffffffffffffffffffffffffff1673ffffffffffffffffffffffffffffffffffffffff163373ffffffffffffffffffffffffffffffffffffffff16148061171c5750600260009054906101000a900473ffffffffffffffffffffffffffffffffffffffff1673ffffffffffffffffffffffffffffffffffffffff163373ffffffffffffffffffffffffffffffffffffffff16145b151561172757600080fd5b8073ffffffffffffffffffffffffffffffffffffffff16600260009054906101000a900473ffffffffffffffffffffffffffffffffffffffff1673ffffffffffffffffffffffffffffffffffffffff167ff73aa4459d935dbacd9313fffe485016147551d99ef401461704cd39e6e9028760405160405180910390a380600260006101000a81548173ffffffffffffffffffffffffffffffffffffffff021916908373ffffffffffffffffffffffffffffffffffffffff16021790555050565b60008060011515600360003373ffffffffffffffffffffffffffffffffffffffff1673ffffffffffffffffffffffffffffffffffffffff16815260200190815260200160002060009054906101000a900460ff161515141515611893577f0489f2369368f4688acd012107ac5a7d98ca739b913449d852f35d871e433cc3600e6040518082601e81111561187757fe5b60ff16815260200191505060405180910390a160009150611eaa565b60001515831515141561195c578573ffffffffffffffffffffffffffffffffffffffff167f334a1a0d3a871733a383cbd43ae22ca86bd71fa41dcaecfea8cf442ac6b96fcc886040518080602001828103825283818151815260200191508051906020019080838360005b838110156119195780820151818401526020810190506118fe565b50505050905090810190601f1680156119465780820380516001836020036101000a031916815260200191505b509250505060405180910390a260009150611eaa565b86866040516020018083805190602001908083835b6020831015156119965780518252602082019150602081019050602083039250611971565b6001836020036101000a0380198251168184511680821785525050505050509050018273ffffffffffffffffffffffffffffffffffffffff1673ffffffffffffffffffffffffffffffffffffffff166c01000000000000000000000000028152601401925050506040516020818303038152906040526040518082805190602001908083835b602083101515611a415780518252602082019150602081019050602083039250611a1c565b6001836020036101000a03801982511681845116808217855250505050505090500191505060405180910390209050600460009054906101000a900473ffffffffffffffffffffffffffffffffffffffff1673ffffffffffffffffffffffffffffffffffffffff16639b03ced2826040518263ffffffff167c010000000000000000000000000000000000000000000000000000000002815260040180826fffffffffffffffffffffffffffffffff19166fffffffffffffffffffffffffffffffff19168152602001915050602060405180830381600087803b158015611b2757600080fd5b505af1158015611b3b573d6000803e3d6000fd5b505050506040513d6020811015611b5157600080fd5b810190808051906020019092919050505015611bb6577f0489f2369368f4688acd012107ac5a7d98ca739b913449d852f35d871e433cc3600a6040518082601e811115611b9a57fe5b60ff16815260200191505060405180910390a160009150611eaa565b600460009054906101000a900473ffffffffffffffffffffffffffffffffffffffff1673ffffffffffffffffffffffffffffffffffffffff1663eb16ea6d828989896007548a6040518763ffffffff167c010000000000000000000000000000000000000000000000000000000002815260040180876fffffffffffffffffffffffffffffffff19166fffffffffffffffffffffffffffffffff19168152602001806020018673ffffffffffffffffffffffffffffffffffffffff1673ffffffffffffffffffffffffffffffffffffffff1681526020018581526020018481526020018360ff1660ff168152602001828103825287818151815260200191508051906020019080838360005b83811015611cdd578082015181840152602081019050611cc2565b50505050905090810190601f168015611d0a5780820380516001836020036101000a031916815260200191505b50975050505050505050602060405180830381600087803b158015611d2e57600080fd5b505af1158015611d42573d6000803e3d6000fd5b505050506040513d6020811015611d5857600080fd5b81019080805190602001909291905050501515611d7457600080fd5b600660009054906101000a900473ffffffffffffffffffffffffffffffffffffffff1673ffffffffffffffffffffffffffffffffffffffff1663256e980e82886040518363ffffffff167c010000000000000000000000000000000000000000000000000000000002815260040180836fffffffffffffffffffffffffffffffff19166fffffffffffffffffffffffffffffffff191681526020018273ffffffffffffffffffffffffffffffffffffffff1673ffffffffffffffffffffffffffffffffffffffff16815260200192505050602060405180830381600087803b158015611e5f57600080fd5b505af1158015611e73573d6000803e3d6000fd5b505050506040513d6020811015611e8957600080fd5b81019080805190602001909291905050501515611ea557600080fd5b600091505b5095945050505050565b600560009054906101000a900473ffffffffffffffffffffffffffffffffffffffff1681565b6000809054906101000a900473ffffffffffffffffffffffffffffffffffffffff1673ffffffffffffffffffffffffffffffffffffffff163373ffffffffffffffffffffffffffffffffffffffff16141515611f3557600080fd5b6000809054906101000a900473ffffffffffffffffffffffffffffffffffffffff1673ffffffffffffffffffffffffffffffffffffffff167f2dde1bc8b58ef192e7df3e7a354521d958331021e450d544346b936936916ef460405160405180910390a260008060006101000a81548173ffffffffffffffffffffffffffffffffffffffff021916908373ffffffffffffffffffffffffffffffffffffffff160217905550565b600160009054906101000a900473ffffffffffffffffffffffffffffffffffffffff1673ffffffffffffffffffffffffffffffffffffffff163373ffffffffffffffffffffffffffffffffffffffff1614151561203857600080fd5b600160009054906101000a900473ffffffffffffffffffffffffffffffffffffffff1673ffffffffffffffffffffffffffffffffffffffff166000809054906101000a900473ffffffffffffffffffffffffffffffffffffffff1673ffffffffffffffffffffffffffffffffffffffff167fdb6d05f3295cede580affa301a1eb5297528f3b3f6a56b075887ce6f61c45f2160405160405180910390a3600160009054906101000a900473ffffffffffffffffffffffffffffffffffffffff166000806101000a81548173ffffffffffffffffffffffffffffffffffffffff021916908373ffffffffffffffffffffffffffffffffffffffff1602179055506000600160006101000a81548173ffffffffffffffffffffffffffffffffffffffff021916908373ffffffffffffffffffffffffffffffffffffffff160217905550565b600080600460009054906101000a900473ffffffffffffffffffffffffffffffffffffffff1673ffffffffffffffffffffffffffffffffffffffff166384e972eb846040518263ffffffff167c010000000000000000000000000000000000000000000000000000000002815260040180826fffffffffffffffffffffffffffffffff19166fffffffffffffffffffffffffffffffff191681526020019150506040805180830381600087803b15801561223457600080fd5b505af1158015612248573d6000803e3d6000fd5b505050506040513d604081101561225e57600080fd5b81019080805190602001909291908051906020019092919050505091509150915091565b6000809054906101000a900473ffffffffffffffffffffffffffffffffffffffff1681565b60075481565b60008060009054906101000a900473ffffffffffffffffffffffffffffffffffffffff1673ffffffffffffffffffffffffffffffffffffffff163373ffffffffffffffffffffffffffffffffffffffff161415801561235a5750600260009054906101000a900473ffffffffffffffffffffffffffffffffffffffff1673ffffffffffffffffffffffffffffffffffffffff163373ffffffffffffffffffffffffffffffffffffffff1614155b156123ae577f0489f2369368f4688acd012107ac5a7d98ca739b913449d852f35d871e433cc3600f6040518082601e81111561239257fe5b60ff16815260200191505060405180910390a1600090506124e0565b600073ffffffffffffffffffffffffffffffffffffffff168373ffffffffffffffffffffffffffffffffffffffff161415612432577f0489f2369368f4688acd012107ac5a7d98ca739b913449d852f35d871e433cc360026040518082601e81111561241657fe5b60ff16815260200191505060405180910390a1600090506124e0565b81600360008573ffffffffffffffffffffffffffffffffffffffff1673ffffffffffffffffffffffffffffffffffffffff16815260200190815260200160002060006101000a81548160ff0219169083151502179055508273ffffffffffffffffffffffffffffffffffffffff167f9b3b880c67f4fab4215412179771cffd326a045e6016a7e363eb38460f7e917683604051808215151515815260200191505060405180910390a2600190505b92915050565b600460009054906101000a900473ffffffffffffffffffffffffffffffffffffffff1681565b60008060009054906101000a900473ffffffffffffffffffffffffffffffffffffffff1673ffffffffffffffffffffffffffffffffffffffff163373ffffffffffffffffffffffffffffffffffffffff16141580156125b95750600260009054906101000a900473ffffffffffffffffffffffffffffffffffffffff1673ffffffffffffffffffffffffffffffffffffffff163373ffffffffffffffffffffffffffffffffffffffff1614155b1561260d577f0489f2369368f4688acd012107ac5a7d98ca739b913449d852f35d871e433cc3600f6040518082601e8111156125f157fe5b60ff16815260200191505060405180910390a160009050612672565b600754821415612666577f0489f2369368f4688acd012107ac5a7d98ca739b913449d852f35d871e433cc360116040518082601e81111561264a57fe5b60ff16815260200191505060405180910390a160009050612672565b81600781905550600190505b919050565b600060011515600360003373ffffffffffffffffffffffffffffffffffffffff1673ffffffffffffffffffffffffffffffffffffffff16815260200190815260200160002060009054906101000a900460ff161515141515612722577f0489f2369368f4688acd012107ac5a7d98ca739b913449d852f35d871e433cc3600e6040518082601e81111561270657fe5b60ff16815260200191505060405180910390a160009050612857565b600460009054906101000a900473ffffffffffffffffffffffffffffffffffffffff1673ffffffffffffffffffffffffffffffffffffffff1663c05465d78585856040518463ffffffff167c010000000000000000000000000000000000000000000000000000000002815260040180846fffffffffffffffffffffffffffffffff19166fffffffffffffffffffffffffffffffff191681526020018373ffffffffffffffffffffffffffffffffffffffff1673ffffffffffffffffffffffffffffffffffffffff168152602001821515151581526020019350505050602060405180830381600087803b15801561281957600080fd5b505af115801561282d573d6000803e3d6000fd5b505050506040513d602081101561284357600080fd5b810190808051906020019092919050505090505b9392505050565b60008060009054906101000a900473ffffffffffffffffffffffffffffffffffffffff1673ffffffffffffffffffffffffffffffffffffffff163373ffffffffffffffffffffffffffffffffffffffff1614806129085750600260009054906101000a900473ffffffffffffffffffffffffffffffffffffffff1673ffffffffffffffffffffffffffffffffffffffff163373ffffffffffffffffffffffffffffffffffffffff16145b151561291357600080fd5b600073ffffffffffffffffffffffffffffffffffffffff16600460009054906101000a900473ffffffffffffffffffffffffffffffffffffffff1673ffffffffffffffffffffffffffffffffffffffff161415156129d9576040517f08c379a00000000000000000000000000000000000000000000000000000000081526004018080602001828103825260198152602001807f596f752063616e206f6e6c792063616c6c206974206f6e63650000000000000081525060200191505060405180910390fd5b600073ffffffffffffffffffffffffffffffffffffffff168473ffffffffffffffffffffffffffffffffffffffff1614158015612a435750600073ffffffffffffffffffffffffffffffffffffffff168373ffffffffffffffffffffffffffffffffffffffff1614155b8015612a7c5750600073ffffffffffffffffffffffffffffffffffffffff168273ffffffffffffffffffffffffffffffffffffffff1614155b1515612af0576040517f08c379a000000000000000000000000000000000000000000000000000000000815260040180806020018281038252601d8152602001807f636f6e747261637420616464726573732063616e6e6f7420626520302e00000081525060200191505060405180910390fd5b83600460006101000a81548173ffffffffffffffffffffffffffffffffffffffff021916908373ffffffffffffffffffffffffffffffffffffffff16021790555082600560006101000a81548173ffffffffffffffffffffffffffffffffffffffff021916908373ffffffffffffffffffffffffffffffffffffffff16021790555081600660006101000a81548173ffffffffffffffffffffffffffffffffffffffff021916908373ffffffffffffffffffffffffffffffffffffffff160217905550600190509392505050565b600160009054906101000a900473ffffffffffffffffffffffffffffffffffffffff1681565b60036020528060005260406000206000915054906101000a900460ff1681565b6000809054906101000a900473ffffffffffffffffffffffffffffffffffffffff1673ffffffffffffffffffffffffffffffffffffffff163373ffffffffffffffffffffffffffffffffffffffff16141515612c5f57600080fd5b600073ffffffffffffffffffffffffffffffffffffffff168173ffffffffffffffffffffffffffffffffffffffff1614151515612c9b57600080fd5b80600160006101000a81548173ffffffffffffffffffffffffffffffffffffffff021916908373ffffffffffffffffffffffffffffffffffffffff16021790555050565b60008060011515600360003373ffffffffffffffffffffffffffffffffffffffff1673ffffffffffffffffffffffffffffffffffffffff16815260200190815260200160002060009054906101000a900460ff161515141515612d8b577f0489f2369368f4688acd012107ac5a7d98ca739b913449d852f35d871e433cc3600e6040518082601e811115612d6f57fe5b60ff16815260200191505060405180910390a1600091506132e4565b600460009054906101000a900473ffffffffffffffffffffffffffffffffffffffff1673ffffffffffffffffffffffffffffffffffffffff1663a146be7c876040518263ffffffff167c010000000000000000000000000000000000000000000000000000000002815260040180826fffffffffffffffffffffffffffffffff19166fffffffffffffffffffffffffffffffff19168152602001915050602060405180830381600087803b158015612e4257600080fd5b505af1158015612e56573d6000803e3d6000fd5b505050506040513d6020811015612e6c57600080fd5b81019080805190602001909291905050501515612ed2577f0489f2369368f4688acd012107ac5a7d98ca739b913449d852f35d871e433cc360066040518082601e811115612eb657fe5b60ff16815260200191505060405180910390a1600091506132e4565b82851015612f29577f0489f2369368f4688acd012107ac5a7d98ca739b913449d852f35d871e433cc3600d6040518082601e811115612f0d57fe5b60ff16815260200191505060405180910390a1600091506132e4565b8686604051602001808373ffffffffffffffffffffffffffffffffffffffff1673ffffffffffffffffffffffffffffffffffffffff166c01000000000000000000000000028152601401826fffffffffffffffffffffffffffffffff19166fffffffffffffffffffffffffffffffff19168152601001925050506040516020818303038152906040526040518082805190602001908083835b602083101515612fe75780518252602082019150602081019050602083039250612fc2565b6001836020036101000a03801982511681845116808217855250505050505090500191505060405180910390209050600560009054906101000a900473ffffffffffffffffffffffffffffffffffffffff1673ffffffffffffffffffffffffffffffffffffffff16637fd9786e8289898789896040518763ffffffff167c01000000000000000000000000000000000000000000000000000000000281526004018087600019166000191681526020018673ffffffffffffffffffffffffffffffffffffffff1673ffffffffffffffffffffffffffffffffffffffff168152602001856fffffffffffffffffffffffffffffffff19166fffffffffffffffffffffffffffffffff191681526020018481526020018373ffffffffffffffffffffffffffffffffffffffff1673ffffffffffffffffffffffffffffffffffffffff1681526020018281526020019650505050505050602060405180830381600087803b15801561315557600080fd5b505af1158015613169573d6000803e3d6000fd5b505050506040513d602081101561317f57600080fd5b8101908080519060200190929190505050156132df57600660009054906101000a900473ffffffffffffffffffffffffffffffffffffffff1673ffffffffffffffffffffffffffffffffffffffff1663ee9a45508288876040518463ffffffff167c0100000000000000000000000000000000000000000000000000000000028152600401808460001916600019168152602001836fffffffffffffffffffffffffffffffff19166fffffffffffffffffffffffffffffffff191681526020018273ffffffffffffffffffffffffffffffffffffffff1673ffffffffffffffffffffffffffffffffffffffff1681526020019350505050602060405180830381600087803b15801561329057600080fd5b505af11580156132a4573d6000803e3d6000fd5b505050506040513d60208110156132ba57600080fd5b810190808051906020019092919050505015156132d657600080fd5b600191506132e4565b600091505b5095945050505050565b600260009054906101000a900473ffffffffffffffffffffffffffffffffffffffff1681565b600060011515600360003373ffffffffffffffffffffffffffffffffffffffff1673ffffffffffffffffffffffffffffffffffffffff16815260200190815260200160002060009054906101000a900460ff1615151415156133bf577f0489f2369368f4688acd012107ac5a7d98ca739b913449d852f35d871e433cc3600e6040518082601e8111156133a357fe5b60ff16815260200191505060405180910390a16000905061355d565b600460009054906101000a900473ffffffffffffffffffffffffffffffffffffffff1673ffffffffffffffffffffffffffffffffffffffff1663fa86de41868686866040518563ffffffff167c010000000000000000000000000000000000000000000000000000000002815260040180856fffffffffffffffffffffffffffffffff19166fffffffffffffffffffffffffffffffff191681526020018473ffffffffffffffffffffffffffffffffffffffff1673ffffffffffffffffffffffffffffffffffffffff16815260200180602001838152602001828103825284818151815260200191508051906020019080838360005b838110156134d05780820151818401526020810190506134b5565b50505050905090810190601f1680156134fd5780820380516001836020036101000a031916815260200191505b5095505050505050602060405180830381600087803b15801561351f57600080fd5b505af1158015613533573d6000803e3d6000fd5b505050506040513d602081101561354957600080fd5b810190808051906020019092919050505090505b9493505050505600a165627a7a72305820923d9c9746ea3295e938bd2ddf21efb49f0f9ece295e49797ac611e7a2603bdd0029608060405234801561001057600080fd5b506040516040806119e18339810180604052810190808051906020019092919080519060200190929190505050816000806101000a81548173ffffffffffffffffffffffffffffffffffffffff021916908373ffffffffffffffffffffffffffffffffffffffff16021790555080600160006101000a81548173ffffffffffffffffffffffffffffffffffffffff021916908373ffffffffffffffffffffffffffffffffffffffff1602179055505050611912806100cf6000396000f3006080604052600436106100c5576000357c0100000000000000000000000000000000000000000000000000000000900463ffffffff1680632e090f28146100ca5780633d1ad1e11461012157806344314bd2146101b657806352fda08c1461020e578063555ef0d41461032757806355e416981461037e5780637355a44e146104645780639fef17c1146104d0578063af68f457146104fb578063b6e7561c146105a3578063b71747c514610605578063c1a881551461067d578063d7a54dca14610708575b600080fd5b3480156100d657600080fd5b506100df6107a0565b604051808273ffffffffffffffffffffffffffffffffffffffff1673ffffffffffffffffffffffffffffffffffffffff16815260200191505060405180910390f35b34801561012d57600080fd5b5061015f60048036038101908080356fffffffffffffffffffffffffffffffff191690602001909291905050506107c5565b6040518080602001828103825283818151815260200191508051906020019060200280838360005b838110156101a2578082015181840152602081019050610187565b505050509050019250505060405180910390f35b3480156101c257600080fd5b506101f460048036038101908080356fffffffffffffffffffffffffffffffff19169060200190929190505050610916565b604051808215151515815260200191505060405180910390f35b34801561021a57600080fd5b5061024c60048036038101908080356fffffffffffffffffffffffffffffffff19169060200190929190505050610a51565b604051808873ffffffffffffffffffffffffffffffffffffffff1673ffffffffffffffffffffffffffffffffffffffff16815260200180602001878152602001868152602001858152602001841515151581526020018360ff1660ff168152602001828103825288818151815260200191508051906020019080838360005b838110156102e65780820151818401526020810190506102cb565b50505050905090810190601f1680156103135780820380516001836020036101000a031916815260200191505b509850505050505050505060405180910390f35b34801561033357600080fd5b5061033c610bfc565b604051808273ffffffffffffffffffffffffffffffffffffffff1673ffffffffffffffffffffffffffffffffffffffff16815260200191505060405180910390f35b34801561038a57600080fd5b506103ad6004803603810190808035600019169060200190929190505050610c22565b604051808781526020018681526020018581526020018473ffffffffffffffffffffffffffffffffffffffff1673ffffffffffffffffffffffffffffffffffffffff1681526020018373ffffffffffffffffffffffffffffffffffffffff1673ffffffffffffffffffffffffffffffffffffffff168152602001826fffffffffffffffffffffffffffffffff19166fffffffffffffffffffffffffffffffff19168152602001965050505050505060405180910390f35b34801561047057600080fd5b50610479610d45565b6040518080602001828103825283818151815260200191508051906020019060200280838360005b838110156104bc5780820151818401526020810190506104a1565b505050509050019250505060405180910390f35b3480156104dc57600080fd5b506104e5610d55565b6040518082815260200191505060405180910390f35b34801561050757600080fd5b5061058960048036038101908080356fffffffffffffffffffffffffffffffff19169060200190929190803590602001908201803590602001908080601f016020809104026020016040519081016040528093929190818152602001838380828437820191505050505050919291929080359060200190929190505050610e1c565b604051808215151515815260200191505060405180910390f35b3480156105af57600080fd5b506105eb60048036038101908080356fffffffffffffffffffffffffffffffff1916906020019092919080359060200190929190505050611024565b604051808215151515815260200191505060405180910390f35b34801561061157600080fd5b5061066360048036038101908080356fffffffffffffffffffffffffffffffff19169060200190929190803573ffffffffffffffffffffffffffffffffffffffff16906020019092919050505061115b565b604051808215151515815260200191505060405180910390f35b6106ee600480360381019080803590602001908201803590602001908080601f016020809104026020016040519081016040528093929190818152602001838380828437820191505050505050919291929080359060200190929190803560ff1690602001909291905050506112be565b604051808215151515815260200191505060405180910390f35b34801561071457600080fd5b50610749600480360381019080803573ffffffffffffffffffffffffffffffffffffffff1690602001909291905050506115ff565b6040518080602001828103825283818151815260200191508051906020019060200280838360005b8381101561078c578082015181840152602081019050610771565b505050509050019250505060405180910390f35b6000809054906101000a900473ffffffffffffffffffffffffffffffffffffffff1681565b6060600160009054906101000a900473ffffffffffffffffffffffffffffffffffffffff1673ffffffffffffffffffffffffffffffffffffffff1663f4dbfc97836040518263ffffffff167c010000000000000000000000000000000000000000000000000000000002815260040180826fffffffffffffffffffffffffffffffff19166fffffffffffffffffffffffffffffffff19168152602001915050600060405180830381600087803b15801561087e57600080fd5b505af1158015610892573d6000803e3d6000fd5b505050506040513d6000823e3d601f19601f8201168201806040525060208110156108bc57600080fd5b8101908080516401000000008111156108d457600080fd5b828101905060208101848111156108ea57600080fd5b815185602082028301116401000000008211171561090757600080fd5b50509291905050509050919050565b60008060009054906101000a900473ffffffffffffffffffffffffffffffffffffffff1673ffffffffffffffffffffffffffffffffffffffff1663c05465d7833360016040518463ffffffff167c010000000000000000000000000000000000000000000000000000000002815260040180846fffffffffffffffffffffffffffffffff19166fffffffffffffffffffffffffffffffff191681526020018373ffffffffffffffffffffffffffffffffffffffff1673ffffffffffffffffffffffffffffffffffffffff168152602001821515151581526020019350505050602060405180830381600087803b158015610a0f57600080fd5b505af1158015610a23573d6000803e3d6000fd5b505050506040513d6020811015610a3957600080fd5b81019080805190602001909291905050509050919050565b6000606060008060008060008060009054906101000a900473ffffffffffffffffffffffffffffffffffffffff1673ffffffffffffffffffffffffffffffffffffffff166315f478fe896040518263ffffffff167c010000000000000000000000000000000000000000000000000000000002815260040180826fffffffffffffffffffffffffffffffff19166fffffffffffffffffffffffffffffffff19168152602001915050600060405180830381600087803b158015610b1357600080fd5b505af1158015610b27573d6000803e3d6000fd5b505050506040513d6000823e3d601f19601f8201168201806040525060e0811015610b5157600080fd5b81019080805190602001909291908051640100000000811115610b7357600080fd5b82810190506020810184811115610b8957600080fd5b8151856001820283011164010000000082111715610ba657600080fd5b505092919060200180519060200190929190805190602001909291908051906020019092919080519060200190929190805190602001909291905050509650965096509650965096509650919395979092949650565b600160009054906101000a900473ffffffffffffffffffffffffffffffffffffffff1681565b6000806000806000806000809054906101000a900473ffffffffffffffffffffffffffffffffffffffff1673ffffffffffffffffffffffffffffffffffffffff1663024663f7886040518263ffffffff167c010000000000000000000000000000000000000000000000000000000002815260040180826000191660001916815260200191505060c060405180830381600087803b158015610cc357600080fd5b505af1158015610cd7573d6000803e3d6000fd5b505050506040513d60c0811015610ced57600080fd5b8101908080519060200190929190805190602001909291908051906020019092919080519060200190929190805190602001909291908051906020019092919050505095509550955095509550955091939550919395565b6060610d50336115ff565b905090565b60008060009054906101000a900473ffffffffffffffffffffffffffffffffffffffff1673ffffffffffffffffffffffffffffffffffffffff16639262db3f6040518163ffffffff167c0100000000000000000000000000000000000000000000000000000000028152600401602060405180830381600087803b158015610ddc57600080fd5b505af1158015610df0573d6000803e3d6000fd5b505050506040513d6020811015610e0657600080fd5b8101908080519060200190929190505050905090565b6000801515610e2a84611756565b15151415610e81577f0489f2369368f4688acd012107ac5a7d98ca739b913449d852f35d871e433cc360056040518082601e811115610e6557fe5b60ff16815260200191505060405180910390a16000905061101d565b6000809054906101000a900473ffffffffffffffffffffffffffffffffffffffff1673ffffffffffffffffffffffffffffffffffffffff1663fa86de41853386866040518563ffffffff167c010000000000000000000000000000000000000000000000000000000002815260040180856fffffffffffffffffffffffffffffffff19166fffffffffffffffffffffffffffffffff191681526020018473ffffffffffffffffffffffffffffffffffffffff1673ffffffffffffffffffffffffffffffffffffffff16815260200180602001838152602001828103825284818151815260200191508051906020019080838360005b83811015610f91578082015181840152602081019050610f76565b50505050905090810190601f168015610fbe5780820380516001836020036101000a031916815260200191505b5095505050505050602060405180830381600087803b158015610fe057600080fd5b505af1158015610ff4573d6000803e3d6000fd5b505050506040513d602081101561100a57600080fd5b8101908080519060200190929190505050505b9392505050565b60008060009054906101000a900473ffffffffffffffffffffffffffffffffffffffff1673ffffffffffffffffffffffffffffffffffffffff1663173fff828433856040518463ffffffff167c010000000000000000000000000000000000000000000000000000000002815260040180846fffffffffffffffffffffffffffffffff19166fffffffffffffffffffffffffffffffff191681526020018373ffffffffffffffffffffffffffffffffffffffff1673ffffffffffffffffffffffffffffffffffffffff1681526020018281526020019350505050602060405180830381600087803b15801561111857600080fd5b505af115801561112c573d6000803e3d6000fd5b505050506040513d602081101561114257600080fd5b8101908080519060200190929190505050905092915050565b60008060009054906101000a900473ffffffffffffffffffffffffffffffffffffffff1673ffffffffffffffffffffffffffffffffffffffff16632cc576bb8433856040518463ffffffff167c010000000000000000000000000000000000000000000000000000000002815260040180846fffffffffffffffffffffffffffffffff19166fffffffffffffffffffffffffffffffff191681526020018373ffffffffffffffffffffffffffffffffffffffff1673ffffffffffffffffffffffffffffffffffffffff1681526020018273ffffffffffffffffffffffffffffffffffffffff1673ffffffffffffffffffffffffffffffffffffffff1681526020019350505050602060405180830381600087803b15801561127b57600080fd5b505af115801561128f573d6000803e3d6000fd5b505050506040513d60208110156112a557600080fd5b8101908080519060200190929190505050905092915050565b600080600015156112ce86611756565b15151415611325577f0489f2369368f4688acd012107ac5a7d98ca739b913449d852f35d871e433cc360056040518082601e81111561130957fe5b60ff16815260200191505060405180910390a1600091506115f7565b61132d610d55565b90506000811415156113915780341015611390577f0489f2369368f4688acd012107ac5a7d98ca739b913449d852f35d871e433cc3600d6040518082601e81111561137457fe5b60ff16815260200191505060405180910390a1600091506115f7565b5b6000809054906101000a900473ffffffffffffffffffffffffffffffffffffffff1673ffffffffffffffffffffffffffffffffffffffff16636c1533488633878760016040518663ffffffff167c010000000000000000000000000000000000000000000000000000000002815260040180806020018673ffffffffffffffffffffffffffffffffffffffff1673ffffffffffffffffffffffffffffffffffffffff1681526020018581526020018460ff1660ff16815260200183151515158152602001828103825287818151815260200191508051906020019080838360005b8381101561148d578082015181840152602081019050611472565b50505050905090810190601f1680156114ba5780820380516001836020036101000a031916815260200191505b509650505050505050602060405180830381600087803b1580156114dd57600080fd5b505af11580156114f1573d6000803e3d6000fd5b505050506040513d602081101561150757600080fd5b8101908080519060200190929190505050156115f2576000811415156115e9576000809054906101000a900473ffffffffffffffffffffffffffffffffffffffff1673ffffffffffffffffffffffffffffffffffffffff166108fc829081150290604051600060405180830381858888f1935050505015801561158e573d6000803e3d6000fd5b503373ffffffffffffffffffffffffffffffffffffffff166108fc6115bc83346118cd90919063ffffffff16565b9081150290604051600060405180830381858888f193505050501580156115e7573d6000803e3d6000fd5b505b600191506115f7565b600091505b509392505050565b6060600160009054906101000a900473ffffffffffffffffffffffffffffffffffffffff1673ffffffffffffffffffffffffffffffffffffffff1663faf7216f836040518263ffffffff167c0100000000000000000000000000000000000000000000000000000000028152600401808273ffffffffffffffffffffffffffffffffffffffff1673ffffffffffffffffffffffffffffffffffffffff168152602001915050600060405180830381600087803b1580156116be57600080fd5b505af11580156116d2573d6000803e3d6000fd5b505050506040513d6000823e3d601f19601f8201168201806040525060208110156116fc57600080fd5b81019080805164010000000081111561171457600080fd5b8281019050602081018481111561172a57600080fd5b815185602082028301116401000000008211171561174757600080fd5b50509291905050509050919050565b60006060829050602e815114801561180b575060517f01000000000000000000000000000000000000000000000000000000000000000281600081518110151561179c57fe5b9060200101517f010000000000000000000000000000000000000000000000000000000000000090047f0100000000000000000000000000000000000000000000000000000000000000027effffffffffffffffffffffffffffffffffffffffffffffffffffffffffffff1916145b80156118b45750606d7f01000000000000000000000000000000000000000000000000000000000000000281600181518110151561184557fe5b9060200101517f010000000000000000000000000000000000000000000000000000000000000090047f0100000000000000000000000000000000000000000000000000000000000000027effffffffffffffffffffffffffffffffffffffffffffffffffffffffffffff1916145b156118c257600191506118c7565b600091505b50919050565b60008282111515156118db57fe5b8183039050929150505600a165627a7a72305820dd4cf5d45ce8ab2119858491c6cfbbd7da51a84fe8d765cf73890a549fa7c90a0029608060405234801561001057600080fd5b50604051604080610c788339810180604052810190808051906020019092919080519060200190929190505050816000806101000a81548173ffffffffffffffffffffffffffffffffffffffff021916908373ffffffffffffffffffffffffffffffffffffffff16021790555080600160006101000a81548173ffffffffffffffffffffffffffffffffffffffff021916908373ffffffffffffffffffffffffffffffffffffffff1602179055505050610ba9806100cf6000396000f300608060405260043610610083576000357c0100000000000000000000000000000000000000000000000000000000900463ffffffff168063105bc546146100885780632e090f28146100f4578063555ef0d41461014b57806355e41698146101a25780637a77b51f14610288578063f4959d06146102f3578063f8c467441461035f575b600080fd5b34801561009457600080fd5b5061009d6103aa565b6040518080602001828103825283818151815260200191508051906020019060200280838360005b838110156100e05780820151818401526020810190506100c5565b505050509050019250505060405180910390f35b34801561010057600080fd5b506101096104ff565b604051808273ffffffffffffffffffffffffffffffffffffffff1673ffffffffffffffffffffffffffffffffffffffff16815260200191505060405180910390f35b34801561015757600080fd5b50610160610524565b604051808273ffffffffffffffffffffffffffffffffffffffff1673ffffffffffffffffffffffffffffffffffffffff16815260200191505060405180910390f35b3480156101ae57600080fd5b506101d1600480360381019080803560001916906020019092919050505061054a565b604051808781526020018681526020018581526020018473ffffffffffffffffffffffffffffffffffffffff1673ffffffffffffffffffffffffffffffffffffffff1681526020018373ffffffffffffffffffffffffffffffffffffffff1673ffffffffffffffffffffffffffffffffffffffff168152602001826fffffffffffffffffffffffffffffffff19166fffffffffffffffffffffffffffffffff19168152602001965050505050505060405180910390f35b6102d960048036038101908080356fffffffffffffffffffffffffffffffff19169060200190929190803573ffffffffffffffffffffffffffffffffffffffff16906020019092919050505061066d565b604051808215151515815260200191505060405180910390f35b3480156102ff57600080fd5b50610308610683565b6040518080602001828103825283818151815260200191508051906020019060200280838360005b8381101561034b578082015181840152602081019050610330565b505050509050019250505060405180910390f35b61039060048036038101908080356fffffffffffffffffffffffffffffffff191690602001909291905050506107d8565b604051808215151515815260200191505060405180910390f35b6060600160009054906101000a900473ffffffffffffffffffffffffffffffffffffffff1673ffffffffffffffffffffffffffffffffffffffff166318f1c709336040518263ffffffff167c0100000000000000000000000000000000000000000000000000000000028152600401808273ffffffffffffffffffffffffffffffffffffffff1673ffffffffffffffffffffffffffffffffffffffff168152602001915050600060405180830381600087803b15801561046957600080fd5b505af115801561047d573d6000803e3d6000fd5b505050506040513d6000823e3d601f19601f8201168201806040525060208110156104a757600080fd5b8101908080516401000000008111156104bf57600080fd5b828101905060208101848111156104d557600080fd5b81518560208202830111640100000000821117156104f257600080fd5b5050929190505050905090565b6000809054906101000a900473ffffffffffffffffffffffffffffffffffffffff1681565b600160009054906101000a900473ffffffffffffffffffffffffffffffffffffffff1681565b6000806000806000806000809054906101000a900473ffffffffffffffffffffffffffffffffffffffff1673ffffffffffffffffffffffffffffffffffffffff1663024663f7886040518263ffffffff167c010000000000000000000000000000000000000000000000000000000002815260040180826000191660001916815260200191505060c060405180830381600087803b1580156105eb57600080fd5b505af11580156105ff573d6000803e3d6000fd5b505050506040513d60c081101561061557600080fd5b8101908080519060200190929190805190602001909291908051906020019092919080519060200190929190805190602001909291908051906020019092919050505095509550955095509550955091939550919395565b600061067b828433346107ed565b905092915050565b6060600160009054906101000a900473ffffffffffffffffffffffffffffffffffffffff1673ffffffffffffffffffffffffffffffffffffffff1663981274b1336040518263ffffffff167c0100000000000000000000000000000000000000000000000000000000028152600401808273ffffffffffffffffffffffffffffffffffffffff1673ffffffffffffffffffffffffffffffffffffffff168152602001915050600060405180830381600087803b15801561074257600080fd5b505af1158015610756573d6000803e3d6000fd5b505050506040513d6000823e3d601f19601f82011682018060405250602081101561078057600080fd5b81019080805164010000000081111561079857600080fd5b828101905060208101848111156107ae57600080fd5b81518560208202830111640100000000821117156107cb57600080fd5b5050929190505050905090565b60006107e6338333346107ed565b9050919050565b60008060008060009054906101000a900473ffffffffffffffffffffffffffffffffffffffff1673ffffffffffffffffffffffffffffffffffffffff166384e972eb876040518263ffffffff167c010000000000000000000000000000000000000000000000000000000002815260040180826fffffffffffffffffffffffffffffffff19166fffffffffffffffffffffffffffffffff191681526020019150506040805180830381600087803b1580156108a757600080fd5b505af11580156108bb573d6000803e3d6000fd5b505050506040513d60408110156108d157600080fd5b81019080805190602001909291908051906020019092919050505091509150600115156000809054906101000a900473ffffffffffffffffffffffffffffffffffffffff1673ffffffffffffffffffffffffffffffffffffffff1663f693db948989888a876040518663ffffffff167c0100000000000000000000000000000000000000000000000000000000028152600401808673ffffffffffffffffffffffffffffffffffffffff1673ffffffffffffffffffffffffffffffffffffffff168152602001856fffffffffffffffffffffffffffffffff19166fffffffffffffffffffffffffffffffff191681526020018481526020018373ffffffffffffffffffffffffffffffffffffffff1673ffffffffffffffffffffffffffffffffffffffff16815260200182815260200195505050505050602060405180830381600087803b158015610a2257600080fd5b505af1158015610a36573d6000803e3d6000fd5b505050506040513d6020811015610a4c57600080fd5b810190808051906020019092919050505015151415610b0e578173ffffffffffffffffffffffffffffffffffffffff166108fc829081150290604051600060405180830381858888f19350505050158015610aab573d6000803e3d6000fd5b508473ffffffffffffffffffffffffffffffffffffffff166108fc610ad98387610b6490919063ffffffff16565b9081150290604051600060405180830381858888f19350505050158015610b04573d6000803e3d6000fd5b5060019250610b5a565b8473ffffffffffffffffffffffffffffffffffffffff166108fc859081150290604051600060405180830381858888f19350505050158015610b54573d6000803e3d6000fd5b50600092505b5050949350505050565b6000828211151515610b7257fe5b8183039050929150505600a165627a7a723058206b669b6388159a8b6627c6678c50c2aa349b007225513ef0b5be0e7e784a83550029608060405234801561001057600080fd5b5060405160608061264a833981018060405281019080805190602001909291908051906020019092919080519060200190929190505050336000806101000a81548173ffffffffffffffffffffffffffffffffffffffff021916908373ffffffffffffffffffffffffffffffffffffffff16021790555033600260006101000a81548173ffffffffffffffffffffffffffffffffffffffff021916908373ffffffffffffffffffffffffffffffffffffffff160217905550806000806101000a81548173ffffffffffffffffffffffffffffffffffffffff021916908373ffffffffffffffffffffffffffffffffffffffff16021790555082600460006101000a81548173ffffffffffffffffffffffffffffffffffffffff021916908373ffffffffffffffffffffffffffffffffffffffff16021790555081600560006101000a81548173ffffffffffffffffffffffffffffffffffffffff021916908373ffffffffffffffffffffffffffffffffffffffff1602179055505050506124ae8061019c6000396000f300608060405260043610610128576000357c0100000000000000000000000000000000000000000000000000000000900463ffffffff168063047701e41461012d5780630afaf537146101cb5780631156439b1461023057806324d7806c1461028757806335e60e89146102e25780635be7cc16146103605780636c134462146103a3578063715018a61461040a5780637399915b1461042157806379ba50971461047c57806387a61cbd146104935780638b8c84b7146104dc5780638da5cb5b14610534578063a5b8adb81461058b578063a8e1fba3146105e2578063af2b86b114610649578063d4ee1d90146106a4578063e56a7c5d146106fb578063f152588314610756578063f2fde38b146107ba578063f62d0eb0146107fd578063f851a44014610884575b600080fd5b34801561013957600080fd5b506101b1600480360381019080803573ffffffffffffffffffffffffffffffffffffffff169060200190929190803590602001908201803590602001908080602002602001604051908101604052809392919081815260200183836020028082843782019150505050505091929192905050506108db565b604051808215151515815260200191505060405180910390f35b3480156101d757600080fd5b50610216600480360381019080803573ffffffffffffffffffffffffffffffffffffffff16906020019092919080359060200190929190505050610b97565b604051808215151515815260200191505060405180910390f35b34801561023c57600080fd5b50610245610d65565b604051808273ffffffffffffffffffffffffffffffffffffffff1673ffffffffffffffffffffffffffffffffffffffff16815260200191505060405180910390f35b34801561029357600080fd5b506102c8600480360381019080803573ffffffffffffffffffffffffffffffffffffffff169060200190929190505050610d8b565b604051808215151515815260200191505060405180910390f35b3480156102ee57600080fd5b5061034660048036038101908080359060200190820180359060200190808060200260200160405190810160405280939291908181526020018383602002808284378201915050505050509192919290505050610e72565b604051808215151515815260200191505060405180910390f35b34801561036c57600080fd5b506103a1600480360381019080803573ffffffffffffffffffffffffffffffffffffffff1690602001909291905050506110c6565b005b3480156103af57600080fd5b506103f0600480360381019080803573ffffffffffffffffffffffffffffffffffffffff169060200190929190803515159060200190929190505050611239565b604051808215151515815260200191505060405180910390f35b34801561041657600080fd5b5061041f61140b565b005b34801561042d57600080fd5b50610462600480360381019080803573ffffffffffffffffffffffffffffffffffffffff16906020019092919050505061150d565b604051808215151515815260200191505060405180910390f35b34801561048857600080fd5b50610491611632565b005b34801561049f57600080fd5b506104c260048036038101908080356000191690602001909291905050506117d1565b604051808215151515815260200191505060405180910390f35b3480156104e857600080fd5b5061051a60048036038101908080356fffffffffffffffffffffffffffffffff19169060200190929190505050611961565b604051808215151515815260200191505060405180910390f35b34801561054057600080fd5b50610549611b0f565b604051808273ffffffffffffffffffffffffffffffffffffffff1673ffffffffffffffffffffffffffffffffffffffff16815260200191505060405180910390f35b34801561059757600080fd5b506105a0611b34565b604051808273ffffffffffffffffffffffffffffffffffffffff1673ffffffffffffffffffffffffffffffffffffffff16815260200191505060405180910390f35b3480156105ee57600080fd5b5061062f600480360381019080803573ffffffffffffffffffffffffffffffffffffffff169060200190929190803515159060200190929190505050611b5a565b604051808215151515815260200191505060405180910390f35b34801561065557600080fd5b5061068a600480360381019080803573ffffffffffffffffffffffffffffffffffffffff169060200190929190505050611d93565b604051808215151515815260200191505060405180910390f35b3480156106b057600080fd5b506106b9611eb8565b604051808273ffffffffffffffffffffffffffffffffffffffff1673ffffffffffffffffffffffffffffffffffffffff16815260200191505060405180910390f35b34801561070757600080fd5b5061073c600480360381019080803573ffffffffffffffffffffffffffffffffffffffff169060200190929190505050611ede565b604051808215151515815260200191505060405180910390f35b34801561076257600080fd5b506107a060048036038101908080356fffffffffffffffffffffffffffffffff19169060200190929190803515159060200190929190505050611efe565b604051808215151515815260200191505060405180910390f35b3480156107c657600080fd5b506107fb600480360381019080803573ffffffffffffffffffffffffffffffffffffffff1690602001909291905050506120b9565b005b34801561080957600080fd5b5061086a600480360381019080803573ffffffffffffffffffffffffffffffffffffffff169060200190929190803573ffffffffffffffffffffffffffffffffffffffff169060200190929190803515159060200190929190505050612194565b604051808215151515815260200191505060405180910390f35b34801561089057600080fd5b5061089961245c565b604051808273ffffffffffffffffffffffffffffffffffffffff1673ffffffffffffffffffffffffffffffffffffffff16815260200191505060405180910390f35b6000806000806000809054906101000a900473ffffffffffffffffffffffffffffffffffffffff1673ffffffffffffffffffffffffffffffffffffffff163373ffffffffffffffffffffffffffffffffffffffff1614151561093c57600080fd5b84519250600091505b82821015610b8e57848281518110151561095b57fe5b9060200190602002015190503073ffffffffffffffffffffffffffffffffffffffff168173ffffffffffffffffffffffffffffffffffffffff1663f851a4406040518163ffffffff167c0100000000000000000000000000000000000000000000000000000000028152600401602060405180830381600087803b1580156109e257600080fd5b505af11580156109f6573d6000803e3d6000fd5b505050506040513d6020811015610a0c57600080fd5b810190808051906020019092919050505073ffffffffffffffffffffffffffffffffffffffff16141515610ace576040517f08c379a000000000000000000000000000000000000000000000000000000000815260040180806020018281038252602e8152602001807f536f7272792c20796f7520656e746572656420616e20696e76616c696420636f81526020017f6e7472616374206164647265737300000000000000000000000000000000000081525060400191505060405180910390fd5b8073ffffffffffffffffffffffffffffffffffffffff16635be7cc16876040518263ffffffff167c0100000000000000000000000000000000000000000000000000000000028152600401808273ffffffffffffffffffffffffffffffffffffffff1673ffffffffffffffffffffffffffffffffffffffff168152602001915050600060405180830381600087803b158015610b6957600080fd5b505af1158015610b7d573d6000803e3d6000fd5b505050508180600101925050610945565b50505092915050565b60008060009054906101000a900473ffffffffffffffffffffffffffffffffffffffff1673ffffffffffffffffffffffffffffffffffffffff163373ffffffffffffffffffffffffffffffffffffffff161480610c415750600260009054906101000a900473ffffffffffffffffffffffffffffffffffffffff1673ffffffffffffffffffffffffffffffffffffffff163373ffffffffffffffffffffffffffffffffffffffff16145b1515610c4c57600080fd5b610c5583610d8b565b15610d14578273ffffffffffffffffffffffffffffffffffffffff1663f5bade667c0100000000000000000000000000000000000000000000000000000000027c01000000000000000000000000000000000000000000000000000000009004836040518263ffffffff167c0100000000000000000000000000000000000000000000000000000000028152600401808281526020019150506000604051808303816000875af1925050501515610d0b57600080fd5b60019050610d5f565b7f0489f2369368f4688acd012107ac5a7d98ca739b913449d852f35d871e433cc3600f6040518082601e811115610d4757fe5b60ff16815260200191505060405180910390a1600090505b92915050565b600460009054906101000a900473ffffffffffffffffffffffffffffffffffffffff1681565b60003073ffffffffffffffffffffffffffffffffffffffff168273ffffffffffffffffffffffffffffffffffffffff1663f851a4406040518163ffffffff167c0100000000000000000000000000000000000000000000000000000000028152600401602060405180830381600087803b158015610e0857600080fd5b505af1158015610e1c573d6000803e3d6000fd5b505050506040513d6020811015610e3257600080fd5b810190808051906020019092919050505073ffffffffffffffffffffffffffffffffffffffff161415610e685760019050610e6d565b600090505b919050565b6000806000809054906101000a900473ffffffffffffffffffffffffffffffffffffffff1673ffffffffffffffffffffffffffffffffffffffff163373ffffffffffffffffffffffffffffffffffffffff1614158015610f205750600260009054906101000a900473ffffffffffffffffffffffffffffffffffffffff1673ffffffffffffffffffffffffffffffffffffffff163373ffffffffffffffffffffffffffffffffffffffff1614155b15610f74577f0489f2369368f4688acd012107ac5a7d98ca739b913449d852f35d871e433cc3600f6040518082601e811115610f5857fe5b60ff16815260200191505060405180910390a1600091506110c0565b600090505b82518110156110bb57600073ffffffffffffffffffffffffffffffffffffffff168382815181101515610fa857fe5b9060200190602002015173ffffffffffffffffffffffffffffffffffffffff1614151515610fd557600080fd5b6001600360008584815181101515610fe957fe5b9060200190602002015173ffffffffffffffffffffffffffffffffffffffff1673ffffffffffffffffffffffffffffffffffffffff16815260200190815260200160002060006101000a81548160ff021916908315150217905550828181518110151561105257fe5b9060200190602002015173ffffffffffffffffffffffffffffffffffffffff167f9b3b880c67f4fab4215412179771cffd326a045e6016a7e363eb38460f7e91766001604051808215151515815260200191505060405180910390a28080600101915050610f79565b600191505b50919050565b6000809054906101000a900473ffffffffffffffffffffffffffffffffffffffff1673ffffffffffffffffffffffffffffffffffffffff163373ffffffffffffffffffffffffffffffffffffffff16148061116e5750600260009054906101000a900473ffffffffffffffffffffffffffffffffffffffff1673ffffffffffffffffffffffffffffffffffffffff163373ffffffffffffffffffffffffffffffffffffffff16145b151561117957600080fd5b8073ffffffffffffffffffffffffffffffffffffffff16600260009054906101000a900473ffffffffffffffffffffffffffffffffffffffff1673ffffffffffffffffffffffffffffffffffffffff167ff73aa4459d935dbacd9313fffe485016147551d99ef401461704cd39e6e9028760405160405180910390a380600260006101000a81548173ffffffffffffffffffffffffffffffffffffffff021916908373ffffffffffffffffffffffffffffffffffffffff16021790555050565b60008060009054906101000a900473ffffffffffffffffffffffffffffffffffffffff1673ffffffffffffffffffffffffffffffffffffffff163373ffffffffffffffffffffffffffffffffffffffff1614806112e35750600260009054906101000a900473ffffffffffffffffffffffffffffffffffffffff1673ffffffffffffffffffffffffffffffffffffffff163373ffffffffffffffffffffffffffffffffffffffff16145b15156112ee57600080fd5b6112f783610d8b565b156113ba578273ffffffffffffffffffffffffffffffffffffffff166302329a297c0100000000000000000000000000000000000000000000000000000000027c01000000000000000000000000000000000000000000000000000000009004836040518263ffffffff167c010000000000000000000000000000000000000000000000000000000002815260040180821515151581526020019150506000604051808303816000875af19250505015156113b157600080fd5b60019050611405565b7f0489f2369368f4688acd012107ac5a7d98ca739b913449d852f35d871e433cc3600f6040518082601e8111156113ed57fe5b60ff16815260200191505060405180910390a1600090505b92915050565b6000809054906101000a900473ffffffffffffffffffffffffffffffffffffffff1673ffffffffffffffffffffffffffffffffffffffff163373ffffffffffffffffffffffffffffffffffffffff1614151561146657600080fd5b6000809054906101000a900473ffffffffffffffffffffffffffffffffffffffff1673ffffffffffffffffffffffffffffffffffffffff167f2dde1bc8b58ef192e7df3e7a354521d958331021e450d544346b936936916ef460405160405180910390a260008060006101000a81548173ffffffffffffffffffffffffffffffffffffffff021916908373ffffffffffffffffffffffffffffffffffffffff160217905550565b60008060009054906101000a900473ffffffffffffffffffffffffffffffffffffffff1673ffffffffffffffffffffffffffffffffffffffff163373ffffffffffffffffffffffffffffffffffffffff1614806115b75750600260009054906101000a900473ffffffffffffffffffffffffffffffffffffffff1673ffffffffffffffffffffffffffffffffffffffff163373ffffffffffffffffffffffffffffffffffffffff16145b15156115c257600080fd5b60008273ffffffffffffffffffffffffffffffffffffffff16141515156115e857600080fd5b81600460006101000a81548173ffffffffffffffffffffffffffffffffffffffff021916908373ffffffffffffffffffffffffffffffffffffffff16021790555060019050919050565b600160009054906101000a900473ffffffffffffffffffffffffffffffffffffffff1673ffffffffffffffffffffffffffffffffffffffff163373ffffffffffffffffffffffffffffffffffffffff1614151561168e57600080fd5b600160009054906101000a900473ffffffffffffffffffffffffffffffffffffffff1673ffffffffffffffffffffffffffffffffffffffff166000809054906101000a900473ffffffffffffffffffffffffffffffffffffffff1673ffffffffffffffffffffffffffffffffffffffff167fdb6d05f3295cede580affa301a1eb5297528f3b3f6a56b075887ce6f61c45f2160405160405180910390a3600160009054906101000a900473ffffffffffffffffffffffffffffffffffffffff166000806101000a81548173ffffffffffffffffffffffffffffffffffffffff021916908373ffffffffffffffffffffffffffffffffffffffff1602179055506000600160006101000a81548173ffffffffffffffffffffffffffffffffffffffff021916908373ffffffffffffffffffffffffffffffffffffffff160217905550565b60008060009054906101000a900473ffffffffffffffffffffffffffffffffffffffff1673ffffffffffffffffffffffffffffffffffffffff163373ffffffffffffffffffffffffffffffffffffffff16148061187b5750600260009054906101000a900473ffffffffffffffffffffffffffffffffffffffff1673ffffffffffffffffffffffffffffffffffffffff163373ffffffffffffffffffffffffffffffffffffffff16145b151561188657600080fd5b600560009054906101000a900473ffffffffffffffffffffffffffffffffffffffff1673ffffffffffffffffffffffffffffffffffffffff166395bc2673836040518263ffffffff167c0100000000000000000000000000000000000000000000000000000000028152600401808260001916600019168152602001915050602060405180830381600087803b15801561191f57600080fd5b505af1158015611933573d6000803e3d6000fd5b505050506040513d602081101561194957600080fd5b81019080805190602001909291905050509050919050565b60008060009054906101000a900473ffffffffffffffffffffffffffffffffffffffff1673ffffffffffffffffffffffffffffffffffffffff163373ffffffffffffffffffffffffffffffffffffffff161480611a0b5750600260009054906101000a900473ffffffffffffffffffffffffffffffffffffffff1673ffffffffffffffffffffffffffffffffffffffff163373ffffffffffffffffffffffffffffffffffffffff16145b1515611a1657600080fd5b600460009054906101000a900473ffffffffffffffffffffffffffffffffffffffff1673ffffffffffffffffffffffffffffffffffffffff16638b8c84b7836040518263ffffffff167c010000000000000000000000000000000000000000000000000000000002815260040180826fffffffffffffffffffffffffffffffff19166fffffffffffffffffffffffffffffffff19168152602001915050602060405180830381600087803b158015611acd57600080fd5b505af1158015611ae1573d6000803e3d6000fd5b505050506040513d6020811015611af757600080fd5b81019080805190602001909291905050509050919050565b6000809054906101000a900473ffffffffffffffffffffffffffffffffffffffff1681565b600560009054906101000a900473ffffffffffffffffffffffffffffffffffffffff1681565b60008060009054906101000a900473ffffffffffffffffffffffffffffffffffffffff1673ffffffffffffffffffffffffffffffffffffffff163373ffffffffffffffffffffffffffffffffffffffff1614158015611c075750600260009054906101000a900473ffffffffffffffffffffffffffffffffffffffff1673ffffffffffffffffffffffffffffffffffffffff163373ffffffffffffffffffffffffffffffffffffffff1614155b15611c5b577f0489f2369368f4688acd012107ac5a7d98ca739b913449d852f35d871e433cc3600f6040518082601e811115611c3f57fe5b60ff16815260200191505060405180910390a160009050611d8d565b600073ffffffffffffffffffffffffffffffffffffffff168373ffffffffffffffffffffffffffffffffffffffff161415611cdf577f0489f2369368f4688acd012107ac5a7d98ca739b913449d852f35d871e433cc360026040518082601e811115611cc357fe5b60ff16815260200191505060405180910390a160009050611d8d565b81600360008573ffffffffffffffffffffffffffffffffffffffff1673ffffffffffffffffffffffffffffffffffffffff16815260200190815260200160002060006101000a81548160ff0219169083151502179055508273ffffffffffffffffffffffffffffffffffffffff167f9b3b880c67f4fab4215412179771cffd326a045e6016a7e363eb38460f7e917683604051808215151515815260200191505060405180910390a2600190505b92915050565b60008060009054906101000a900473ffffffffffffffffffffffffffffffffffffffff1673ffffffffffffffffffffffffffffffffffffffff163373ffffffffffffffffffffffffffffffffffffffff161480611e3d5750600260009054906101000a900473ffffffffffffffffffffffffffffffffffffffff1673ffffffffffffffffffffffffffffffffffffffff163373ffffffffffffffffffffffffffffffffffffffff16145b1515611e4857600080fd5b60008273ffffffffffffffffffffffffffffffffffffffff1614151515611e6e57600080fd5b81600560006101000a81548173ffffffffffffffffffffffffffffffffffffffff021916908373ffffffffffffffffffffffffffffffffffffffff16021790555060019050919050565b600160009054906101000a900473ffffffffffffffffffffffffffffffffffffffff1681565b60036020528060005260406000206000915054906101000a900460ff1681565b60008060009054906101000a900473ffffffffffffffffffffffffffffffffffffffff1673ffffffffffffffffffffffffffffffffffffffff163373ffffffffffffffffffffffffffffffffffffffff161480611fa85750600260009054906101000a900473ffffffffffffffffffffffffffffffffffffffff1673ffffffffffffffffffffffffffffffffffffffff163373ffffffffffffffffffffffffffffffffffffffff16145b1515611fb357600080fd5b600460009054906101000a900473ffffffffffffffffffffffffffffffffffffffff1673ffffffffffffffffffffffffffffffffffffffff16635cdfd92e84846040518363ffffffff167c010000000000000000000000000000000000000000000000000000000002815260040180836fffffffffffffffffffffffffffffffff19166fffffffffffffffffffffffffffffffff191681526020018215151515815260200192505050602060405180830381600087803b15801561207657600080fd5b505af115801561208a573d6000803e3d6000fd5b505050506040513d60208110156120a057600080fd5b8101908080519060200190929190505050905092915050565b6000809054906101000a900473ffffffffffffffffffffffffffffffffffffffff1673ffffffffffffffffffffffffffffffffffffffff163373ffffffffffffffffffffffffffffffffffffffff1614151561211457600080fd5b600073ffffffffffffffffffffffffffffffffffffffff168173ffffffffffffffffffffffffffffffffffffffff161415151561215057600080fd5b80600160006101000a81548173ffffffffffffffffffffffffffffffffffffffff021916908373ffffffffffffffffffffffffffffffffffffffff16021790555050565b6000806000809054906101000a900473ffffffffffffffffffffffffffffffffffffffff1673ffffffffffffffffffffffffffffffffffffffff163373ffffffffffffffffffffffffffffffffffffffff16148061223f5750600260009054906101000a900473ffffffffffffffffffffffffffffffffffffffff1673ffffffffffffffffffffffffffffffffffffffff163373ffffffffffffffffffffffffffffffffffffffff16145b151561224a57600080fd5b8490503073ffffffffffffffffffffffffffffffffffffffff168173ffffffffffffffffffffffffffffffffffffffff1663f851a4406040518163ffffffff167c0100000000000000000000000000000000000000000000000000000000028152600401602060405180830381600087803b1580156122c857600080fd5b505af11580156122dc573d6000803e3d6000fd5b505050506040513d60208110156122f257600080fd5b810190808051906020019092919050505073ffffffffffffffffffffffffffffffffffffffff1614151561236f577f0489f2369368f4688acd012107ac5a7d98ca739b913449d852f35d871e433cc3600f6040518082601e81111561235357fe5b60ff16815260200191505060405180910390a160009150612454565b8073ffffffffffffffffffffffffffffffffffffffff1663a8e1fba385856040518363ffffffff167c0100000000000000000000000000000000000000000000000000000000028152600401808373ffffffffffffffffffffffffffffffffffffffff1673ffffffffffffffffffffffffffffffffffffffff1681526020018215151515815260200192505050602060405180830381600087803b15801561241657600080fd5b505af115801561242a573d6000803e3d6000fd5b505050506040513d602081101561244057600080fd5b810190808051906020019092919050505091505b509392505050565b600260009054906101000a900473ffffffffffffffffffffffffffffffffffffffff16815600a165627a7a723058201487cc54c81997eed3043b2a63c9e6713bbaf0d854251fa4744f9c9eb96043770029",
  "source": "pragma solidity ^0.4.24;\n\nimport \"./ClaimDB.sol\";\nimport \"./OrderDB.sol\";\nimport \"./InfoDB.sol\";\n\n\nimport \"./CenterControl.sol\";\nimport \"./AuthorModule.sol\";\nimport \"./UserModule.sol\";\nimport \"./AdminModule.sol\";\n\n/*\n    vm address list:\n        0xCA35b7d915458EF540aDe6068dFe2F44E8fa733c\n        0x14723A09ACff6D2A60DcdF7aA4AFf308FDDC160C\n        0x4B0897b0513fdC7C541B6d9D7E929C4e5364D2dB\n        0x583031D1113aD414F02576BD6afaBfb302140225\n        0xdD870fA1b7C4700F2BD7f44238821C26f7392148\n\n        0xb49B5ab11b80aD4aE92EFb9E0Bf4a612335129d3\n*/\n\ncontract DeployDB is OwnPlus{\n\n    address public ClaimDB_;\n    address public OrderDB_;\n    address public InfoDB_;\n\n    address public OwnerAddr_;\n\n    constructor() public{\n        OwnerAddr_ = msg.sender;\n        _deployDB();\n    }\n\n    function _deployDB()\n         internal\n    {\n        ClaimDB_ = new ClaimDB(OwnerAddr_);\n        OrderDB_ = new OrderDB(OwnerAddr_);\n        InfoDB_  = new InfoDB(OwnerAddr_);\n     }\n\n    bool public initFlag_ = false;\n    function init() public{\n        require(!initFlag_);\n        admin = msg.sender;\n        initFlag_ = true;\n    }\n\n    function claimWhite(address _target, bool _allow) onlyAdmin public returns(bool){\n        require(ClaimDB(ClaimDB_).mangeWhiteList(_target, _allow));\n        return true;\n    }\n\n    function orderWhite(address _target, bool _allow) onlyAdmin public returns(bool){\n        require(OrderDB(OrderDB_).mangeWhiteList(_target, _allow));\n        return true;\n    }\n\n    function infoWhite(address _target, bool _allow) onlyAdmin public returns(bool){\n        require(InfoDB(InfoDB_).mangeWhiteList(_target, _allow));\n        return true;\n    }\n\n    function end(address _newAdmin) public onlyAdmin returns(bool){\n        ClaimDB(ClaimDB_).transferAdminship(_newAdmin);\n        OrderDB(OrderDB_).transferAdminship(_newAdmin);\n        InfoDB(InfoDB_).transferAdminship(_newAdmin);\n        return true;\n    }\n}\n\ncontract DeployUser is OwnPlus{\n    DeployDB public DeployDB_;\n\n    address  _claimPool = 0x9C301D8b430952565aa4233E1B27c5ee50E890bf;\n\n    address public claimDB_;\n    address public orderDB_;\n    address public infoDB_;\n\n    address public CenterPublish_;\n    address public AuthorModule_;\n    address public AdminModule_;\n    address public UserModule_;\n\n    address public mulTransfer_;\n\n    address public OwnerAddr_;\n\n    constructor(address _db) public{\n        OwnerAddr_ = msg.sender;\n\n        DeployDB_ = DeployDB(_db);\n\n        _getContractAddress();\n        _deploy();\n        //_deployModule();\n    }\n\n    bool public initFlag_ = false;\n    function init() public{\n        require(!initFlag_);\n        admin = msg.sender;\n        initFlag_ = true;\n\n        DeployDB_.init();\n        _init();\n    }\n\n    function _getContractAddress() internal{\n        claimDB_ = DeployDB_.ClaimDB_();\n        orderDB_ = DeployDB_.OrderDB_();\n        infoDB_  = DeployDB_.InfoDB_();\n    }\n\n\n    function _deploy()\n        internal\n    {\n        CenterPublish_ = new CenterControl(_claimPool, OwnerAddr_);\n        AuthorModule_ = new AuthorModule(CenterPublish_, infoDB_);\n        UserModule_ = new UserModule(CenterPublish_, infoDB_);\n        AdminModule_ = new AdminModule(claimDB_, orderDB_, OwnerAddr_);\n    }\n\n\n    function _init() internal{\n        CenterControl(CenterPublish_).initialize(claimDB_, orderDB_, infoDB_);\n\n\n        // 1. claim center\n        DeployDB_.claimWhite(CenterPublish_, true);\n        // 1. claimadmin\n        DeployDB_.claimWhite(AdminModule_, true);\n        // 1. order center\n        DeployDB_.orderWhite(CenterPublish_, true);\n        // 1. info center\n        DeployDB_.infoWhite(CenterPublish_, true);\n\n        // 1. center author\n        centerWhite(AuthorModule_, true);\n        // 1. center user\n        centerWhite(UserModule_, true);\n\n    }\n\n    function centerWhite(address _target, bool _allow) onlyAdmin public returns(bool){\n        require(CenterControl(CenterPublish_).mangeWhiteList(_target, _allow));\n        return true;\n    }\n\n    function _end(address _newAdmin) internal {\n        CenterControl(CenterPublish_).transferAdminship(_newAdmin);\n        AdminModule(AdminModule_).transferAdminship(_newAdmin);\n    }\n\n    function end(address _newAdmin) public onlyAdmin returns(bool){\n        DeployDB_.end(_newAdmin);\n        _end(_newAdmin);\n        return true;\n    }\n\n//    function addminWhite(address _target, bool _allow) onlyAdmin public returns(bool){\n//        require(AdminModule_.mangeWhiteList(_target, _allow));\n//        return true;\n//    }\n\n//    function infoWhite(address _target, bool _allow) onlyAdmin public returns(bool){\n//        require(InfoDB_.mangeWhiteList(_target, _allow));\n//        return true;\n//    }\n}\n\n",
  "sourcePath": "E:\\sol\\blog\\contracts\\DeployHelper.sol",
  "compiler": {
    "name": "solc",
    "version": "0.4.24+commit.e67f0147.Emscripten.clang"
  },
  "schemaVersion": "2.0.1",
  "updatedAt": "2018-08-27T09:46:48.207Z"
}