{
  "contractName": "InfoDB",
  "abi": [
    {
      "constant": false,
      "inputs": [
        {
          "name": "_addresses",
          "type": "address[]"
        }
      ],
      "name": "mulInsertWhite",
      "outputs": [
        {
          "name": "",
          "type": "bool"
        }
      ],
      "payable": false,
      "stateMutability": "nonpayable",
      "type": "function"
    },
    {
      "constant": false,
      "inputs": [
        {
          "name": "_newAdmin",
          "type": "address"
        }
      ],
      "name": "transferAdminship",
      "outputs": [],
      "payable": false,
      "stateMutability": "nonpayable",
      "type": "function"
    },
    {
      "constant": false,
      "inputs": [],
      "name": "renounceOwnership",
      "outputs": [],
      "payable": false,
      "stateMutability": "nonpayable",
      "type": "function"
    },
    {
      "constant": false,
      "inputs": [],
      "name": "acceptOwnership",
      "outputs": [],
      "payable": false,
      "stateMutability": "nonpayable",
      "type": "function"
    },
    {
      "constant": true,
      "inputs": [],
      "name": "owner",
      "outputs": [
        {
          "name": "",
          "type": "address"
        }
      ],
      "payable": false,
      "stateMutability": "view",
      "type": "function"
    },
    {
      "constant": false,
      "inputs": [
        {
          "name": "_target",
          "type": "address"
        },
        {
          "name": "_allow",
          "type": "bool"
        }
      ],
      "name": "mangeWhiteList",
      "outputs": [
        {
          "name": "",
          "type": "bool"
        }
      ],
      "payable": false,
      "stateMutability": "nonpayable",
      "type": "function"
    },
    {
      "constant": true,
      "inputs": [],
      "name": "newOwner",
      "outputs": [
        {
          "name": "",
          "type": "address"
        }
      ],
      "payable": false,
      "stateMutability": "view",
      "type": "function"
    },
    {
      "constant": true,
      "inputs": [
        {
          "name": "",
          "type": "address"
        }
      ],
      "name": "whitelist_",
      "outputs": [
        {
          "name": "",
          "type": "bool"
        }
      ],
      "payable": false,
      "stateMutability": "view",
      "type": "function"
    },
    {
      "constant": false,
      "inputs": [
        {
          "name": "_newOwner",
          "type": "address"
        }
      ],
      "name": "transferOwnership",
      "outputs": [],
      "payable": false,
      "stateMutability": "nonpayable",
      "type": "function"
    },
    {
      "constant": true,
      "inputs": [],
      "name": "admin",
      "outputs": [
        {
          "name": "",
          "type": "address"
        }
      ],
      "payable": false,
      "stateMutability": "view",
      "type": "function"
    },
    {
      "inputs": [
        {
          "name": "_owner",
          "type": "address"
        }
      ],
      "payable": false,
      "stateMutability": "nonpayable",
      "type": "constructor"
    },
    {
      "anonymous": false,
      "inputs": [
        {
          "indexed": true,
          "name": "_target",
          "type": "address"
        },
        {
          "indexed": false,
          "name": "_allow",
          "type": "bool"
        }
      ],
      "name": "LogWhileChanged",
      "type": "event"
    },
    {
      "anonymous": false,
      "inputs": [
        {
          "indexed": false,
          "name": "_errorNumber",
          "type": "uint8"
        }
      ],
      "name": "LogError",
      "type": "event"
    },
    {
      "anonymous": false,
      "inputs": [
        {
          "indexed": true,
          "name": "_old",
          "type": "address"
        },
        {
          "indexed": true,
          "name": "_new",
          "type": "address"
        }
      ],
      "name": "LogAdminshipTransferred",
      "type": "event"
    },
    {
      "anonymous": false,
      "inputs": [
        {
          "indexed": true,
          "name": "previousOwner",
          "type": "address"
        }
      ],
      "name": "LogOwnershipRenounced",
      "type": "event"
    },
    {
      "anonymous": false,
      "inputs": [
        {
          "indexed": true,
          "name": "previousOwner",
          "type": "address"
        },
        {
          "indexed": true,
          "name": "newOwner",
          "type": "address"
        }
      ],
      "name": "LogOwnershipTransferred",
      "type": "event"
    },
    {
      "constant": false,
      "inputs": [
        {
          "name": "_oId",
          "type": "bytes32"
        },
        {
          "name": "_cid",
          "type": "bytes16"
        },
        {
          "name": "_buyer",
          "type": "address"
        }
      ],
      "name": "insertOrder",
      "outputs": [
        {
          "name": "",
          "type": "bool"
        }
      ],
      "payable": false,
      "stateMutability": "nonpayable",
      "type": "function"
    },
    {
      "constant": false,
      "inputs": [
        {
          "name": "_cid",
          "type": "bytes16"
        },
        {
          "name": "_author",
          "type": "address"
        }
      ],
      "name": "insertClaim",
      "outputs": [
        {
          "name": "",
          "type": "bool"
        }
      ],
      "payable": false,
      "stateMutability": "nonpayable",
      "type": "function"
    },
    {
      "constant": true,
      "inputs": [
        {
          "name": "_author",
          "type": "address"
        }
      ],
      "name": "getClaimsByAuthor",
      "outputs": [
        {
          "name": "",
          "type": "bytes16[]"
        }
      ],
      "payable": false,
      "stateMutability": "view",
      "type": "function"
    },
    {
      "constant": true,
      "inputs": [
        {
          "name": "_user",
          "type": "address"
        }
      ],
      "name": "getClaimsByUser",
      "outputs": [
        {
          "name": "",
          "type": "bytes16[]"
        }
      ],
      "payable": false,
      "stateMutability": "view",
      "type": "function"
    },
    {
      "constant": true,
      "inputs": [
        {
          "name": "_buyer",
          "type": "address"
        }
      ],
      "name": "getOrdersByUser",
      "outputs": [
        {
          "name": "",
          "type": "bytes32[]"
        }
      ],
      "payable": false,
      "stateMutability": "view",
      "type": "function"
    },
    {
      "constant": true,
      "inputs": [
        {
          "name": "_cid",
          "type": "bytes16"
        }
      ],
      "name": "getConsumerByClaim",
      "outputs": [
        {
          "name": "",
          "type": "address[]"
        }
      ],
      "payable": false,
      "stateMutability": "view",
      "type": "function"
    },
    {
      "constant": true,
      "inputs": [
        {
          "name": "_buyer",
          "type": "address"
        },
        {
          "name": "_cid",
          "type": "bytes16"
        }
      ],
      "name": "isBought",
      "outputs": [
        {
          "name": "",
          "type": "bool"
        }
      ],
      "payable": false,
      "stateMutability": "view",
      "type": "function"
    }
  ],
  "bytecode": "0x608060405234801561001057600080fd5b50604051602080611b1c83398101806040528101908080519060200190929190505050336000806101000a81548173ffffffffffffffffffffffffffffffffffffffff021916908373ffffffffffffffffffffffffffffffffffffffff16021790555033600260006101000a81548173ffffffffffffffffffffffffffffffffffffffff021916908373ffffffffffffffffffffffffffffffffffffffff160217905550806000806101000a81548173ffffffffffffffffffffffffffffffffffffffff021916908373ffffffffffffffffffffffffffffffffffffffff16021790555050611a18806101046000396000f3006080604052600436106100f1576000357c0100000000000000000000000000000000000000000000000000000000900463ffffffff16806318f1c709146100f6578063256e980e1461018e57806335e60e89146102065780635be7cc1614610284578063715018a6146102c757806379ba5097146102de5780638da5cb5b146102f5578063981274b11461034c578063a8e1fba3146103e4578063b98f92991461044b578063d4ee1d90146104c3578063e56a7c5d1461051a578063ee9a455014610575578063f2fde38b146105fb578063f4dbfc971461063e578063f851a440146106d3578063faf7216f1461072a575b600080fd5b34801561010257600080fd5b50610137600480360381019080803573ffffffffffffffffffffffffffffffffffffffff1690602001909291905050506107c2565b6040518080602001828103825283818151815260200191508051906020019060200280838360005b8381101561017a57808201518184015260208101905061015f565b505050509050019250505060405180910390f35b34801561019a57600080fd5b506101ec60048036038101908080356fffffffffffffffffffffffffffffffff19169060200190929190803573ffffffffffffffffffffffffffffffffffffffff169060200190929190505050610860565b604051808215151515815260200191505060405180910390f35b34801561021257600080fd5b5061026a600480360381019080803590602001908201803590602001908080602002602001604051908101604052809392919081815260200183836020028082843782019150505050505091929192905050506109c1565b604051808215151515815260200191505060405180910390f35b34801561029057600080fd5b506102c5600480360381019080803573ffffffffffffffffffffffffffffffffffffffff169060200190929190505050610c15565b005b3480156102d357600080fd5b506102dc610d88565b005b3480156102ea57600080fd5b506102f3610e8a565b005b34801561030157600080fd5b5061030a611029565b604051808273ffffffffffffffffffffffffffffffffffffffff1673ffffffffffffffffffffffffffffffffffffffff16815260200191505060405180910390f35b34801561035857600080fd5b5061038d600480360381019080803573ffffffffffffffffffffffffffffffffffffffff16906020019092919050505061104e565b6040518080602001828103825283818151815260200191508051906020019060200280838360005b838110156103d05780820151818401526020810190506103b5565b505050509050019250505060405180910390f35b3480156103f057600080fd5b50610431600480360381019080803573ffffffffffffffffffffffffffffffffffffffff16906020019092919080351515906020019092919050505061112e565b604051808215151515815260200191505060405180910390f35b34801561045757600080fd5b506104a9600480360381019080803573ffffffffffffffffffffffffffffffffffffffff16906020019092919080356fffffffffffffffffffffffffffffffff19169060200190929190505050611367565b604051808215151515815260200191505060405180910390f35b3480156104cf57600080fd5b506104d8611405565b604051808273ffffffffffffffffffffffffffffffffffffffff1673ffffffffffffffffffffffffffffffffffffffff16815260200191505060405180910390f35b34801561052657600080fd5b5061055b600480360381019080803573ffffffffffffffffffffffffffffffffffffffff16906020019092919050505061142b565b604051808215151515815260200191505060405180910390f35b34801561058157600080fd5b506105e1600480360381019080803560001916906020019092919080356fffffffffffffffffffffffffffffffff19169060200190929190803573ffffffffffffffffffffffffffffffffffffffff16906020019092919050505061144b565b604051808215151515815260200191505060405180910390f35b34801561060757600080fd5b5061063c600480360381019080803573ffffffffffffffffffffffffffffffffffffffff169060200190929190505050611741565b005b34801561064a57600080fd5b5061067c60048036038101908080356fffffffffffffffffffffffffffffffff1916906020019092919050505061181c565b6040518080602001828103825283818151815260200191508051906020019060200280838360005b838110156106bf5780820151818401526020810190506106a4565b505050509050019250505060405180910390f35b3480156106df57600080fd5b506106e86118e6565b604051808273ffffffffffffffffffffffffffffffffffffffff1673ffffffffffffffffffffffffffffffffffffffff16815260200191505060405180910390f35b34801561073657600080fd5b5061076b600480360381019080803573ffffffffffffffffffffffffffffffffffffffff16906020019092919050505061190c565b6040518080602001828103825283818151815260200191508051906020019060200280838360005b838110156107ae578082015181840152602081019050610793565b505050509050019250505060405180910390f35b6060600460008373ffffffffffffffffffffffffffffffffffffffff1673ffffffffffffffffffffffffffffffffffffffff16815260200190815260200160002060000180548060200260200160405190810160405280929190818152602001828054801561085457602002820191906000526020600020905b8154600019168152602001906001019080831161083c575b50505050509050919050565b600060011515600360003373ffffffffffffffffffffffffffffffffffffffff1673ffffffffffffffffffffffffffffffffffffffff16815260200190815260200160002060009054906101000a900460ff16151514151561090b577f0489f2369368f4688acd012107ac5a7d98ca739b913449d852f35d871e433cc3600e6040518082601e8111156108ef57fe5b60ff16815260200191505060405180910390a1600090506109bb565b600660008373ffffffffffffffffffffffffffffffffffffffff1673ffffffffffffffffffffffffffffffffffffffff16815260200190815260200160002060000183908060018154018082558091505090600182039060005260206000209060029182820401919006601002909192909190916101000a8154816fffffffffffffffffffffffffffffffff02191690837001000000000000000000000000000000009004021790555050600190505b92915050565b6000806000809054906101000a900473ffffffffffffffffffffffffffffffffffffffff1673ffffffffffffffffffffffffffffffffffffffff163373ffffffffffffffffffffffffffffffffffffffff1614158015610a6f5750600260009054906101000a900473ffffffffffffffffffffffffffffffffffffffff1673ffffffffffffffffffffffffffffffffffffffff163373ffffffffffffffffffffffffffffffffffffffff1614155b15610ac3577f0489f2369368f4688acd012107ac5a7d98ca739b913449d852f35d871e433cc3600f6040518082601e811115610aa757fe5b60ff16815260200191505060405180910390a160009150610c0f565b600090505b8251811015610c0a57600073ffffffffffffffffffffffffffffffffffffffff168382815181101515610af757fe5b9060200190602002015173ffffffffffffffffffffffffffffffffffffffff1614151515610b2457600080fd5b6001600360008584815181101515610b3857fe5b9060200190602002015173ffffffffffffffffffffffffffffffffffffffff1673ffffffffffffffffffffffffffffffffffffffff16815260200190815260200160002060006101000a81548160ff0219169083151502179055508281815181101515610ba157fe5b9060200190602002015173ffffffffffffffffffffffffffffffffffffffff167f9b3b880c67f4fab4215412179771cffd326a045e6016a7e363eb38460f7e91766001604051808215151515815260200191505060405180910390a28080600101915050610ac8565b600191505b50919050565b6000809054906101000a900473ffffffffffffffffffffffffffffffffffffffff1673ffffffffffffffffffffffffffffffffffffffff163373ffffffffffffffffffffffffffffffffffffffff161480610cbd5750600260009054906101000a900473ffffffffffffffffffffffffffffffffffffffff1673ffffffffffffffffffffffffffffffffffffffff163373ffffffffffffffffffffffffffffffffffffffff16145b1515610cc857600080fd5b8073ffffffffffffffffffffffffffffffffffffffff16600260009054906101000a900473ffffffffffffffffffffffffffffffffffffffff1673ffffffffffffffffffffffffffffffffffffffff167ff73aa4459d935dbacd9313fffe485016147551d99ef401461704cd39e6e9028760405160405180910390a380600260006101000a81548173ffffffffffffffffffffffffffffffffffffffff021916908373ffffffffffffffffffffffffffffffffffffffff16021790555050565b6000809054906101000a900473ffffffffffffffffffffffffffffffffffffffff1673ffffffffffffffffffffffffffffffffffffffff163373ffffffffffffffffffffffffffffffffffffffff16141515610de357600080fd5b6000809054906101000a900473ffffffffffffffffffffffffffffffffffffffff1673ffffffffffffffffffffffffffffffffffffffff167f2dde1bc8b58ef192e7df3e7a354521d958331021e450d544346b936936916ef460405160405180910390a260008060006101000a81548173ffffffffffffffffffffffffffffffffffffffff021916908373ffffffffffffffffffffffffffffffffffffffff160217905550565b600160009054906101000a900473ffffffffffffffffffffffffffffffffffffffff1673ffffffffffffffffffffffffffffffffffffffff163373ffffffffffffffffffffffffffffffffffffffff16141515610ee657600080fd5b600160009054906101000a900473ffffffffffffffffffffffffffffffffffffffff1673ffffffffffffffffffffffffffffffffffffffff166000809054906101000a900473ffffffffffffffffffffffffffffffffffffffff1673ffffffffffffffffffffffffffffffffffffffff167fdb6d05f3295cede580affa301a1eb5297528f3b3f6a56b075887ce6f61c45f2160405160405180910390a3600160009054906101000a900473ffffffffffffffffffffffffffffffffffffffff166000806101000a81548173ffffffffffffffffffffffffffffffffffffffff021916908373ffffffffffffffffffffffffffffffffffffffff1602179055506000600160006101000a81548173ffffffffffffffffffffffffffffffffffffffff021916908373ffffffffffffffffffffffffffffffffffffffff160217905550565b6000809054906101000a900473ffffffffffffffffffffffffffffffffffffffff1681565b6060600460008373ffffffffffffffffffffffffffffffffffffffff1673ffffffffffffffffffffffffffffffffffffffff16815260200190815260200160002060010180548060200260200160405190810160405280929190818152602001828054801561112257602002820191906000526020600020906000905b82829054906101000a9004700100000000000000000000000000000000026fffffffffffffffffffffffffffffffff191681526020019060100190602082600f010492830192600103820291508084116110cb5790505b50505050509050919050565b60008060009054906101000a900473ffffffffffffffffffffffffffffffffffffffff1673ffffffffffffffffffffffffffffffffffffffff163373ffffffffffffffffffffffffffffffffffffffff16141580156111db5750600260009054906101000a900473ffffffffffffffffffffffffffffffffffffffff1673ffffffffffffffffffffffffffffffffffffffff163373ffffffffffffffffffffffffffffffffffffffff1614155b1561122f577f0489f2369368f4688acd012107ac5a7d98ca739b913449d852f35d871e433cc3600f6040518082601e81111561121357fe5b60ff16815260200191505060405180910390a160009050611361565b600073ffffffffffffffffffffffffffffffffffffffff168373ffffffffffffffffffffffffffffffffffffffff1614156112b3577f0489f2369368f4688acd012107ac5a7d98ca739b913449d852f35d871e433cc360026040518082601e81111561129757fe5b60ff16815260200191505060405180910390a160009050611361565b81600360008573ffffffffffffffffffffffffffffffffffffffff1673ffffffffffffffffffffffffffffffffffffffff16815260200190815260200160002060006101000a81548160ff0219169083151502179055508273ffffffffffffffffffffffffffffffffffffffff167f9b3b880c67f4fab4215412179771cffd326a045e6016a7e363eb38460f7e917683604051808215151515815260200191505060405180910390a2600190505b92915050565b60008060010260056000846fffffffffffffffffffffffffffffffff19166fffffffffffffffffffffffffffffffff1916815260200190815260200160002060000160008573ffffffffffffffffffffffffffffffffffffffff1673ffffffffffffffffffffffffffffffffffffffff168152602001908152602001600020546000191614156113fa57600090506113ff565b600190505b92915050565b600160009054906101000a900473ffffffffffffffffffffffffffffffffffffffff1681565b60036020528060005260406000206000915054906101000a900460ff1681565b600060011515600360003373ffffffffffffffffffffffffffffffffffffffff1673ffffffffffffffffffffffffffffffffffffffff16815260200190815260200160002060009054906101000a900460ff1615151415156114f6577f0489f2369368f4688acd012107ac5a7d98ca739b913449d852f35d871e433cc3600e6040518082601e8111156114da57fe5b60ff16815260200191505060405180910390a16000905061173a565b600460008373ffffffffffffffffffffffffffffffffffffffff1673ffffffffffffffffffffffffffffffffffffffff168152602001908152602001600020600001849080600181540180825580915050906001820390600052602060002001600090919290919091509060001916905550600460008373ffffffffffffffffffffffffffffffffffffffff1673ffffffffffffffffffffffffffffffffffffffff16815260200190815260200160002060010183908060018154018082558091505090600182039060005260206000209060029182820401919006601002909192909190916101000a8154816fffffffffffffffffffffffffffffffff0219169083700100000000000000000000000000000000900402179055505060056000846fffffffffffffffffffffffffffffffff19166fffffffffffffffffffffffffffffffff191681526020019081526020016000206001018290806001815401808255809150509060018203906000526020600020016000909192909190916101000a81548173ffffffffffffffffffffffffffffffffffffffff021916908373ffffffffffffffffffffffffffffffffffffffff160217905550508360056000856fffffffffffffffffffffffffffffffff19166fffffffffffffffffffffffffffffffff1916815260200190815260200160002060000160008473ffffffffffffffffffffffffffffffffffffffff1673ffffffffffffffffffffffffffffffffffffffff1681526020019081526020016000208160001916905550600190505b9392505050565b6000809054906101000a900473ffffffffffffffffffffffffffffffffffffffff1673ffffffffffffffffffffffffffffffffffffffff163373ffffffffffffffffffffffffffffffffffffffff1614151561179c57600080fd5b600073ffffffffffffffffffffffffffffffffffffffff168173ffffffffffffffffffffffffffffffffffffffff16141515156117d857600080fd5b80600160006101000a81548173ffffffffffffffffffffffffffffffffffffffff021916908373ffffffffffffffffffffffffffffffffffffffff16021790555050565b606060056000836fffffffffffffffffffffffffffffffff19166fffffffffffffffffffffffffffffffff191681526020019081526020016000206001018054806020026020016040519081016040528092919081815260200182805480156118da57602002820191906000526020600020905b8160009054906101000a900473ffffffffffffffffffffffffffffffffffffffff1673ffffffffffffffffffffffffffffffffffffffff1681526020019060010190808311611890575b50505050509050919050565b600260009054906101000a900473ffffffffffffffffffffffffffffffffffffffff1681565b6060600660008373ffffffffffffffffffffffffffffffffffffffff1673ffffffffffffffffffffffffffffffffffffffff1681526020019081526020016000206000018054806020026020016040519081016040528092919081815260200182805480156119e057602002820191906000526020600020906000905b82829054906101000a9004700100000000000000000000000000000000026fffffffffffffffffffffffffffffffff191681526020019060100190602082600f010492830192600103820291508084116119895790505b505050505090509190505600a165627a7a7230582076b656a19f895d7a4bda89f1cfca1ffee8f51e35bf00314c1c1cfe1f7d9303fb0029",
  "source": "pragma solidity ^0.4.24;\n\nimport \"./WhiteMange.sol\";\n\n/**\n * @title InfoDB\n * @dev Used to query.\n * @notice Whitelist permission is required for data writing\n */\ncontract InfoDB is WhiteMange{\n\n    // list最多存多少, 循环最多一次uint8=256\n    // list本身没限制，查询也没限制\n    // list分批查询问题，先不管这个问题\n    // TODO:当一个列表比较大的时候，怎么有效的查询（>10000）\n\n    struct stUserInfo{\n        //uint256 orderCnt;\n        bytes32[] orderList;   // All orders from user.\n        bytes16[] goodsList;   // Users have purchased all resources.\n    }\n\n    struct stAuthorInfo{\n        bytes16[] claims;       // All resources published by the author\n    }\n\n    struct stClaimInfo{\n        mapping(address => bytes32) bought; // Query the order by a user on this resource.\n        address[] buyers;                   // All users from resources.\n        bytes32[] orderList;                // All orders for this resource\n    }\n\n    mapping(address => stUserInfo) user_;\n    mapping(bytes16 => stClaimInfo) claim_;\n    mapping(address => stAuthorInfo) author_;\n\n    constructor (address _owner) public {\n        owner = _owner;\n    }\n\n    /**\n     * @dev Record an order.\n     * @param _oId   bytes32  : Orders index(OrderID).\n     * @param _cid   bytes16  : Resource index(ClaimID).\n     * @param _buyer address  : Buyer's address\n     * @return       bool     : The successful call returns true.\n     */\n    function insertOrder(bytes32 _oId, bytes16 _cid, address _buyer)\n        public\n        returns(bool)\n    {\n        if (whitelist_[msg.sender] != true){\n            emit LogError(RScorr.Insufficient);\n            return false;\n        } // Check the caller's whitelist permission.\n\n        user_[_buyer].orderList.push(_oId);\n        user_[_buyer].goodsList.push(_cid);\n        // 记录资源的购买者\n        claim_[_cid].buyers.push(_buyer);\n        // 建立购买索引\n        claim_[_cid].bought[_buyer] = _oId;\n\n        return true;\n    }\n\n    /**\n     * @dev Record a resource generation.\n     * @param _cid    bytes16  : Resource index(ClaimID).\n     * @param _author address  : Authors' address\n     * @return        bool     : The successful call returns true.\n     */\n    function insertClaim(bytes16 _cid, address _author)\n        public\n        returns(bool)\n    {\n        if (whitelist_[msg.sender] != true){\n            emit LogError(RScorr.Insufficient);\n            return false;\n        } // Check the caller's whitelist permission.\n\n        author_[_author].claims.push(_cid);\n        return true;\n    }\n\n    /////////////////////////\n    /// View\n    /////////////////////////\n\n    /**\n     * @dev Query all resources the author has published.\n     * @param _author  address   : Author's address\n     * @return         bytes16[] : claimID组成的bytes16的列表\n     */\n    function getClaimsByAuthor(address _author) view public returns(bytes16[]){\n        return author_[_author].claims;\n    }\n\n    /**\n     * @dev Query all resources that the user has purchased.\n     * @param _user    address   : Author's address\n     * @return         bytes16[] : claimID组成的bytes16的列表\n     */\n    function getClaimsByUser(address _user) view public returns(bytes16[]){\n        return user_[_user].goodsList;\n    }\n\n    /**\n     * @dev 查询用户的所有的订单\n     * @param _buyer   address   : User's address\n     * @return         bytes32[] : orderID组成的bytes32的列表\n     */\n    function getOrdersByUser(address _buyer) view public returns(bytes32[]){\n        return user_[_buyer].orderList;\n    }\n\n    /**\n     * @dev 查询资源的所有的购买者\n     * @param _cid     bytes16   : 资源索引 claimID\n     * @return         address[] : 地址组成的列表\n     */\n    function getConsumerByClaim(bytes16 _cid) view public returns(address[]){\n        return claim_[_cid].buyers;\n    }\n\n\n    //TODO:要不要这个查询\n    /// 查询资源的所有订单\n//    function getOrdersByClaim(bytes16 _cid) view public returns(){\n//        return claim_[_cid][orderList];\n//    }\n\n\n    /**\n     * @dev Query whether a particular user has purchased a resource\n     * @param _buyer address : User's address\n     * @param _cid bytes16   : 资源id\n     * @return bool          : 已购买返还true，未购买返回false;\n     */\n    function isBought(address _buyer, bytes16 _cid) view public returns(bool){\n        // 查询用户在此资源下是否存在订单\n        if (claim_[_cid].bought[_buyer] == 0 ){\n            return false;\n        }\n        return true;\n    }\n}\n",
  "sourcePath": "E:\\sol\\blog\\contracts\\InfoDB.sol",
  "compiler": {
    "name": "solc",
    "version": "0.4.24+commit.e67f0147.Emscripten.clang"
  },
  "schemaVersion": "2.0.1",
  "updatedAt": "2018-08-27T09:46:48.209Z"
}