{
  "contractName": "OrderDB",
  "abi": [
    {
      "constant": true,
      "inputs": [
        {
          "name": "",
          "type": "bytes32"
        }
      ],
      "name": "store_",
      "outputs": [
        {
          "name": "time",
          "type": "uint256"
        },
        {
          "name": "price",
          "type": "uint256"
        },
        {
          "name": "cost",
          "type": "uint256"
        },
        {
          "name": "customer",
          "type": "address"
        },
        {
          "name": "payer",
          "type": "address"
        },
        {
          "name": "claimId",
          "type": "bytes16"
        }
      ],
      "payable": false,
      "stateMutability": "view",
      "type": "function"
    },
    {
      "constant": false,
      "inputs": [
        {
          "name": "_addresses",
          "type": "address[]"
        }
      ],
      "name": "mulInsertWhite",
      "outputs": [
        {
          "name": "",
          "type": "bool"
        }
      ],
      "payable": false,
      "stateMutability": "nonpayable",
      "type": "function"
    },
    {
      "constant": false,
      "inputs": [
        {
          "name": "_newAdmin",
          "type": "address"
        }
      ],
      "name": "transferAdminship",
      "outputs": [],
      "payable": false,
      "stateMutability": "nonpayable",
      "type": "function"
    },
    {
      "constant": false,
      "inputs": [],
      "name": "renounceOwnership",
      "outputs": [],
      "payable": false,
      "stateMutability": "nonpayable",
      "type": "function"
    },
    {
      "constant": false,
      "inputs": [],
      "name": "acceptOwnership",
      "outputs": [],
      "payable": false,
      "stateMutability": "nonpayable",
      "type": "function"
    },
    {
      "constant": true,
      "inputs": [],
      "name": "owner",
      "outputs": [
        {
          "name": "",
          "type": "address"
        }
      ],
      "payable": false,
      "stateMutability": "view",
      "type": "function"
    },
    {
      "constant": false,
      "inputs": [
        {
          "name": "_target",
          "type": "address"
        },
        {
          "name": "_allow",
          "type": "bool"
        }
      ],
      "name": "mangeWhiteList",
      "outputs": [
        {
          "name": "",
          "type": "bool"
        }
      ],
      "payable": false,
      "stateMutability": "nonpayable",
      "type": "function"
    },
    {
      "constant": true,
      "inputs": [],
      "name": "newOwner",
      "outputs": [
        {
          "name": "",
          "type": "address"
        }
      ],
      "payable": false,
      "stateMutability": "view",
      "type": "function"
    },
    {
      "constant": true,
      "inputs": [
        {
          "name": "",
          "type": "address"
        }
      ],
      "name": "whitelist_",
      "outputs": [
        {
          "name": "",
          "type": "bool"
        }
      ],
      "payable": false,
      "stateMutability": "view",
      "type": "function"
    },
    {
      "constant": false,
      "inputs": [
        {
          "name": "_newOwner",
          "type": "address"
        }
      ],
      "name": "transferOwnership",
      "outputs": [],
      "payable": false,
      "stateMutability": "nonpayable",
      "type": "function"
    },
    {
      "constant": true,
      "inputs": [],
      "name": "admin",
      "outputs": [
        {
          "name": "",
          "type": "address"
        }
      ],
      "payable": false,
      "stateMutability": "view",
      "type": "function"
    },
    {
      "inputs": [
        {
          "name": "_owner",
          "type": "address"
        }
      ],
      "payable": false,
      "stateMutability": "nonpayable",
      "type": "constructor"
    },
    {
      "anonymous": false,
      "inputs": [
        {
          "indexed": false,
          "name": "orderId",
          "type": "bytes32"
        },
        {
          "indexed": false,
          "name": "claimId",
          "type": "bytes16"
        },
        {
          "indexed": true,
          "name": "customer",
          "type": "address"
        },
        {
          "indexed": true,
          "name": "payer",
          "type": "address"
        }
      ],
      "name": "LogNewOrder",
      "type": "event"
    },
    {
      "anonymous": false,
      "inputs": [
        {
          "indexed": false,
          "name": "orderId",
          "type": "bytes32"
        }
      ],
      "name": "LogRemoveOrder",
      "type": "event"
    },
    {
      "anonymous": false,
      "inputs": [
        {
          "indexed": true,
          "name": "_target",
          "type": "address"
        },
        {
          "indexed": false,
          "name": "_allow",
          "type": "bool"
        }
      ],
      "name": "LogWhileChanged",
      "type": "event"
    },
    {
      "anonymous": false,
      "inputs": [
        {
          "indexed": false,
          "name": "_errorNumber",
          "type": "uint8"
        }
      ],
      "name": "LogError",
      "type": "event"
    },
    {
      "anonymous": false,
      "inputs": [
        {
          "indexed": true,
          "name": "_old",
          "type": "address"
        },
        {
          "indexed": true,
          "name": "_new",
          "type": "address"
        }
      ],
      "name": "LogAdminshipTransferred",
      "type": "event"
    },
    {
      "anonymous": false,
      "inputs": [
        {
          "indexed": true,
          "name": "previousOwner",
          "type": "address"
        }
      ],
      "name": "LogOwnershipRenounced",
      "type": "event"
    },
    {
      "anonymous": false,
      "inputs": [
        {
          "indexed": true,
          "name": "previousOwner",
          "type": "address"
        },
        {
          "indexed": true,
          "name": "newOwner",
          "type": "address"
        }
      ],
      "name": "LogOwnershipTransferred",
      "type": "event"
    },
    {
      "constant": false,
      "inputs": [
        {
          "name": "_orderId",
          "type": "bytes32"
        },
        {
          "name": "_customer",
          "type": "address"
        },
        {
          "name": "_claimId",
          "type": "bytes16"
        },
        {
          "name": "_price",
          "type": "uint256"
        },
        {
          "name": "_payer",
          "type": "address"
        },
        {
          "name": "_cost",
          "type": "uint256"
        }
      ],
      "name": "insert",
      "outputs": [
        {
          "name": "",
          "type": "bool"
        }
      ],
      "payable": false,
      "stateMutability": "nonpayable",
      "type": "function"
    },
    {
      "constant": false,
      "inputs": [
        {
          "name": "_orderId",
          "type": "bytes32"
        }
      ],
      "name": "remove",
      "outputs": [
        {
          "name": "",
          "type": "bool"
        }
      ],
      "payable": false,
      "stateMutability": "nonpayable",
      "type": "function"
    },
    {
      "constant": true,
      "inputs": [
        {
          "name": "_orderId",
          "type": "bytes32"
        }
      ],
      "name": "isExist",
      "outputs": [
        {
          "name": "",
          "type": "bool"
        }
      ],
      "payable": false,
      "stateMutability": "view",
      "type": "function"
    },
    {
      "constant": true,
      "inputs": [
        {
          "name": "_orderId",
          "type": "bytes32"
        }
      ],
      "name": "getOrderInfoByID",
      "outputs": [
        {
          "name": "time",
          "type": "uint256"
        },
        {
          "name": "price",
          "type": "uint256"
        },
        {
          "name": "cost",
          "type": "uint256"
        },
        {
          "name": "customer",
          "type": "address"
        },
        {
          "name": "payer",
          "type": "address"
        },
        {
          "name": "claimId",
          "type": "bytes16"
        }
      ],
      "payable": false,
      "stateMutability": "view",
      "type": "function"
    }
  ],
  "bytecode": "0x608060405234801561001057600080fd5b50604051602080611a3083398101806040528101908080519060200190929190505050336000806101000a81548173ffffffffffffffffffffffffffffffffffffffff021916908373ffffffffffffffffffffffffffffffffffffffff16021790555033600260006101000a81548173ffffffffffffffffffffffffffffffffffffffff021916908373ffffffffffffffffffffffffffffffffffffffff160217905550806000806101000a81548173ffffffffffffffffffffffffffffffffffffffff021916908373ffffffffffffffffffffffffffffffffffffffff1602179055505061192c806101046000396000f3006080604052600436106100db576000357c0100000000000000000000000000000000000000000000000000000000900463ffffffff168063224447eb146100e057806335e60e89146101c65780635be7cc16146102445780635d1d1e6714610287578063715018a61461036d578063762fee181461038457806379ba5097146103cd5780637fd9786e146103e45780638da5cb5b1461049e57806395bc2673146104f5578063a8e1fba31461053e578063d4ee1d90146105a5578063e56a7c5d146105fc578063f2fde38b14610657578063f851a4401461069a575b600080fd5b3480156100ec57600080fd5b5061010f60048036038101908080356000191690602001909291905050506106f1565b604051808781526020018681526020018581526020018473ffffffffffffffffffffffffffffffffffffffff1673ffffffffffffffffffffffffffffffffffffffff1681526020018373ffffffffffffffffffffffffffffffffffffffff1673ffffffffffffffffffffffffffffffffffffffff168152602001826fffffffffffffffffffffffffffffffff19166fffffffffffffffffffffffffffffffff19168152602001965050505050505060405180910390f35b3480156101d257600080fd5b5061022a6004803603810190808035906020019082018035906020019080806020026020016040519081016040528093929190818152602001838360200280828437820191505050505050919291929050505061078a565b604051808215151515815260200191505060405180910390f35b34801561025057600080fd5b50610285600480360381019080803573ffffffffffffffffffffffffffffffffffffffff1690602001909291905050506109de565b005b34801561029357600080fd5b506102b66004803603810190808035600019169060200190929190505050610b51565b604051808781526020018681526020018581526020018473ffffffffffffffffffffffffffffffffffffffff1673ffffffffffffffffffffffffffffffffffffffff1681526020018373ffffffffffffffffffffffffffffffffffffffff1673ffffffffffffffffffffffffffffffffffffffff168152602001826fffffffffffffffffffffffffffffffff19166fffffffffffffffffffffffffffffffff19168152602001965050505050505060405180910390f35b34801561037957600080fd5b50610382610ced565b005b34801561039057600080fd5b506103b36004803603810190808035600019169060200190929190505050610def565b604051808215151515815260200191505060405180910390f35b3480156103d957600080fd5b506103e2610e2b565b005b3480156103f057600080fd5b506104846004803603810190808035600019169060200190929190803573ffffffffffffffffffffffffffffffffffffffff16906020019092919080356fffffffffffffffffffffffffffffffff1916906020019092919080359060200190929190803573ffffffffffffffffffffffffffffffffffffffff16906020019092919080359060200190929190505050610fca565b604051808215151515815260200191505060405180910390f35b3480156104aa57600080fd5b506104b36112f4565b604051808273ffffffffffffffffffffffffffffffffffffffff1673ffffffffffffffffffffffffffffffffffffffff16815260200191505060405180910390f35b34801561050157600080fd5b506105246004803603810190808035600019169060200190929190505050611319565b604051808215151515815260200191505060405180910390f35b34801561054a57600080fd5b5061058b600480360381019080803573ffffffffffffffffffffffffffffffffffffffff169060200190929190803515159060200190929190505050611580565b604051808215151515815260200191505060405180910390f35b3480156105b157600080fd5b506105ba6117b9565b604051808273ffffffffffffffffffffffffffffffffffffffff1673ffffffffffffffffffffffffffffffffffffffff16815260200191505060405180910390f35b34801561060857600080fd5b5061063d600480360381019080803573ffffffffffffffffffffffffffffffffffffffff1690602001909291905050506117df565b604051808215151515815260200191505060405180910390f35b34801561066357600080fd5b50610698600480360381019080803573ffffffffffffffffffffffffffffffffffffffff1690602001909291905050506117ff565b005b3480156106a657600080fd5b506106af6118da565b604051808273ffffffffffffffffffffffffffffffffffffffff1673ffffffffffffffffffffffffffffffffffffffff16815260200191505060405180910390f35b60046020528060005260406000206000915090508060000154908060010154908060020154908060030160009054906101000a900473ffffffffffffffffffffffffffffffffffffffff16908060040160009054906101000a900473ffffffffffffffffffffffffffffffffffffffff16908060050160009054906101000a900470010000000000000000000000000000000002905086565b6000806000809054906101000a900473ffffffffffffffffffffffffffffffffffffffff1673ffffffffffffffffffffffffffffffffffffffff163373ffffffffffffffffffffffffffffffffffffffff16141580156108385750600260009054906101000a900473ffffffffffffffffffffffffffffffffffffffff1673ffffffffffffffffffffffffffffffffffffffff163373ffffffffffffffffffffffffffffffffffffffff1614155b1561088c577f0489f2369368f4688acd012107ac5a7d98ca739b913449d852f35d871e433cc3600f6040518082601e81111561087057fe5b60ff16815260200191505060405180910390a1600091506109d8565b600090505b82518110156109d357600073ffffffffffffffffffffffffffffffffffffffff1683828151811015156108c057fe5b9060200190602002015173ffffffffffffffffffffffffffffffffffffffff16141515156108ed57600080fd5b600160036000858481518110151561090157fe5b9060200190602002015173ffffffffffffffffffffffffffffffffffffffff1673ffffffffffffffffffffffffffffffffffffffff16815260200190815260200160002060006101000a81548160ff021916908315150217905550828181518110151561096a57fe5b9060200190602002015173ffffffffffffffffffffffffffffffffffffffff167f9b3b880c67f4fab4215412179771cffd326a045e6016a7e363eb38460f7e91766001604051808215151515815260200191505060405180910390a28080600101915050610891565b600191505b50919050565b6000809054906101000a900473ffffffffffffffffffffffffffffffffffffffff1673ffffffffffffffffffffffffffffffffffffffff163373ffffffffffffffffffffffffffffffffffffffff161480610a865750600260009054906101000a900473ffffffffffffffffffffffffffffffffffffffff1673ffffffffffffffffffffffffffffffffffffffff163373ffffffffffffffffffffffffffffffffffffffff16145b1515610a9157600080fd5b8073ffffffffffffffffffffffffffffffffffffffff16600260009054906101000a900473ffffffffffffffffffffffffffffffffffffffff1673ffffffffffffffffffffffffffffffffffffffff167ff73aa4459d935dbacd9313fffe485016147551d99ef401461704cd39e6e9028760405160405180910390a380600260006101000a81548173ffffffffffffffffffffffffffffffffffffffff021916908373ffffffffffffffffffffffffffffffffffffffff16021790555050565b6000806000806000806000600460008960001916600019168152602001908152602001600020600001541415610bc05760008060008060008085955084945083935082925081915080700100000000000000000000000000000000029050955095509550955095509550610ce4565b6004600088600019166000191681526020019081526020016000206000015460046000896000191660001916815260200190815260200160002060010154600460008a6000191660001916815260200190815260200160002060020154600460008b6000191660001916815260200190815260200160002060030160009054906101000a900473ffffffffffffffffffffffffffffffffffffffff16600460008c6000191660001916815260200190815260200160002060040160009054906101000a900473ffffffffffffffffffffffffffffffffffffffff16600460008d6000191660001916815260200190815260200160002060050160009054906101000a9004700100000000000000000000000000000000029550955095509550955095505b91939550919395565b6000809054906101000a900473ffffffffffffffffffffffffffffffffffffffff1673ffffffffffffffffffffffffffffffffffffffff163373ffffffffffffffffffffffffffffffffffffffff16141515610d4857600080fd5b6000809054906101000a900473ffffffffffffffffffffffffffffffffffffffff1673ffffffffffffffffffffffffffffffffffffffff167f2dde1bc8b58ef192e7df3e7a354521d958331021e450d544346b936936916ef460405160405180910390a260008060006101000a81548173ffffffffffffffffffffffffffffffffffffffff021916908373ffffffffffffffffffffffffffffffffffffffff160217905550565b60008060046000846000191660001916815260200190815260200160002060000154141515610e215760009050610e26565b600190505b919050565b600160009054906101000a900473ffffffffffffffffffffffffffffffffffffffff1673ffffffffffffffffffffffffffffffffffffffff163373ffffffffffffffffffffffffffffffffffffffff16141515610e8757600080fd5b600160009054906101000a900473ffffffffffffffffffffffffffffffffffffffff1673ffffffffffffffffffffffffffffffffffffffff166000809054906101000a900473ffffffffffffffffffffffffffffffffffffffff1673ffffffffffffffffffffffffffffffffffffffff167fdb6d05f3295cede580affa301a1eb5297528f3b3f6a56b075887ce6f61c45f2160405160405180910390a3600160009054906101000a900473ffffffffffffffffffffffffffffffffffffffff166000806101000a81548173ffffffffffffffffffffffffffffffffffffffff021916908373ffffffffffffffffffffffffffffffffffffffff1602179055506000600160006101000a81548173ffffffffffffffffffffffffffffffffffffffff021916908373ffffffffffffffffffffffffffffffffffffffff160217905550565b600060011515600360003373ffffffffffffffffffffffffffffffffffffffff1673ffffffffffffffffffffffffffffffffffffffff16815260200190815260200160002060009054906101000a900460ff161515141515611075577f0489f2369368f4688acd012107ac5a7d98ca739b913449d852f35d871e433cc3600e6040518082601e81111561105957fe5b60ff16815260200191505060405180910390a1600090506112ea565b61107e87610def565b156110d2577f0489f2369368f4688acd012107ac5a7d98ca739b913449d852f35d871e433cc3600a6040518082601e8111156110b657fe5b60ff16815260200191505060405180910390a1600090506112ea565b60c0604051908101604052804281526020018581526020018381526020018773ffffffffffffffffffffffffffffffffffffffff1681526020018473ffffffffffffffffffffffffffffffffffffffff168152602001866fffffffffffffffffffffffffffffffff191681525060046000896000191660001916815260200190815260200160002060008201518160000155602082015181600101556040820151816002015560608201518160030160006101000a81548173ffffffffffffffffffffffffffffffffffffffff021916908373ffffffffffffffffffffffffffffffffffffffff16021790555060808201518160040160006101000a81548173ffffffffffffffffffffffffffffffffffffffff021916908373ffffffffffffffffffffffffffffffffffffffff16021790555060a08201518160050160006101000a8154816fffffffffffffffffffffffffffffffff0219169083700100000000000000000000000000000000900402179055509050508273ffffffffffffffffffffffffffffffffffffffff168673ffffffffffffffffffffffffffffffffffffffff167f4a5538e4a86f10263ccb3fb5a5445ad4f99c65a0831b348d110c95b230d362c58988604051808360001916600019168152602001826fffffffffffffffffffffffffffffffff19166fffffffffffffffffffffffffffffffff191681526020019250505060405180910390a3600190505b9695505050505050565b6000809054906101000a900473ffffffffffffffffffffffffffffffffffffffff1681565b60008060009054906101000a900473ffffffffffffffffffffffffffffffffffffffff1673ffffffffffffffffffffffffffffffffffffffff163373ffffffffffffffffffffffffffffffffffffffff16141580156113c65750600260009054906101000a900473ffffffffffffffffffffffffffffffffffffffff1673ffffffffffffffffffffffffffffffffffffffff163373ffffffffffffffffffffffffffffffffffffffff1614155b1561141a577f0489f2369368f4688acd012107ac5a7d98ca739b913449d852f35d871e433cc3600f6040518082601e8111156113fe57fe5b60ff16815260200191505060405180910390a16000905061157b565b6000600460008460001916600019168152602001908152602001600020600001541415611490577f0489f2369368f4688acd012107ac5a7d98ca739b913449d852f35d871e433cc360096040518082601e81111561147457fe5b60ff16815260200191505060405180910390a16000905061157b565b600460008360001916600019168152602001908152602001600020600080820160009055600182016000905560028201600090556003820160006101000a81549073ffffffffffffffffffffffffffffffffffffffff02191690556004820160006101000a81549073ffffffffffffffffffffffffffffffffffffffff02191690556005820160006101000a8154906fffffffffffffffffffffffffffffffff021916905550507f996eb95035696d46910fbd9cd1d5c01347adedb018480f8f038a2c59241d255f8260405180826000191660001916815260200191505060405180910390a1600190505b919050565b60008060009054906101000a900473ffffffffffffffffffffffffffffffffffffffff1673ffffffffffffffffffffffffffffffffffffffff163373ffffffffffffffffffffffffffffffffffffffff161415801561162d5750600260009054906101000a900473ffffffffffffffffffffffffffffffffffffffff1673ffffffffffffffffffffffffffffffffffffffff163373ffffffffffffffffffffffffffffffffffffffff1614155b15611681577f0489f2369368f4688acd012107ac5a7d98ca739b913449d852f35d871e433cc3600f6040518082601e81111561166557fe5b60ff16815260200191505060405180910390a1600090506117b3565b600073ffffffffffffffffffffffffffffffffffffffff168373ffffffffffffffffffffffffffffffffffffffff161415611705577f0489f2369368f4688acd012107ac5a7d98ca739b913449d852f35d871e433cc360026040518082601e8111156116e957fe5b60ff16815260200191505060405180910390a1600090506117b3565b81600360008573ffffffffffffffffffffffffffffffffffffffff1673ffffffffffffffffffffffffffffffffffffffff16815260200190815260200160002060006101000a81548160ff0219169083151502179055508273ffffffffffffffffffffffffffffffffffffffff167f9b3b880c67f4fab4215412179771cffd326a045e6016a7e363eb38460f7e917683604051808215151515815260200191505060405180910390a2600190505b92915050565b600160009054906101000a900473ffffffffffffffffffffffffffffffffffffffff1681565b60036020528060005260406000206000915054906101000a900460ff1681565b6000809054906101000a900473ffffffffffffffffffffffffffffffffffffffff1673ffffffffffffffffffffffffffffffffffffffff163373ffffffffffffffffffffffffffffffffffffffff1614151561185a57600080fd5b600073ffffffffffffffffffffffffffffffffffffffff168173ffffffffffffffffffffffffffffffffffffffff161415151561189657600080fd5b80600160006101000a81548173ffffffffffffffffffffffffffffffffffffffff021916908373ffffffffffffffffffffffffffffffffffffffff16021790555050565b600260009054906101000a900473ffffffffffffffffffffffffffffffffffffffff16815600a165627a7a72305820c9182ecb99c9a4671a2ae16ec7dd10689229a875338c03539ec4e89ed81b61410029",
  "source": "pragma solidity ^0.4.24;\n\nimport \"./WhiteMange.sol\";\n\n\ncontract OrderDB is WhiteMange {\n    struct Order {\n        //赠送问题，折扣,批量购买\n        uint256    time;       // 时间\n        uint256    price;      // 定价\n        uint256    cost;       // 实际花费\n        address    customer;   // 顾客\n        address    payer;      // 付款方\n        bytes16    claimId;    // 资源id\n    }\n\n    mapping (bytes32 => Order) public store_;\n\n\n    event LogNewOrder(\n        bytes32 orderId,\n        bytes16 claimId,\n        address indexed customer,\n        address indexed payer\n    );\n    event LogRemoveOrder(bytes32 orderId);\n\n\n    constructor(address _owner) public{\n        owner = _owner;\n    }\n\n    /**\n     * @dev 插入一个新的订单\n     * @param _orderId  bytes32 : 订单ID\n     * @param _customer address : 顾客\n     * @param _claimId  bytes16 : 资源id\n     * @param _price    uint256 : 定价\n     * @param _payer    address : 支付地址\n     * @param _cost     uint256 : 支付代币数量\n     * @return          bool    : 操作成功返回true\n     */\n    function insert(bytes32 _orderId, address _customer,bytes16 _claimId,\n                    uint256 _price, address _payer, uint256 _cost)\n        public\n        returns(bool)\n    {\n        if (whitelist_[msg.sender] != true){ \n            emit LogError(RScorr.Insufficient);\n            return false;\n        } // Check the caller's whitelist permission.\n\n        if (isExist(_orderId)){\n            emit LogError(RScorr.ObjExist);\n            return false;\n        } // Check if the resource exists.\n\n        store_[_orderId] = Order({\n            time     : now, \n            price    : _price, \n            cost     : _cost, \n            customer : _customer,\n            payer    : _payer, \n            claimId  :_claimId\n        });\n\n        // store_[_orderId] = Order(now,_price,_cost,_customer,_payer,_claimid);\n\n        emit LogNewOrder(_orderId, _claimId, _customer, _payer);\n        return true;\n\n    }\n\n    /**\n     * @dev 删除一个订单\n     * @notice 只能由管理员删除\n     * @param _orderId bytes32 : 订单ID\n     * @return         bool    : 操作成功返回true\n     */\n    function remove(bytes32 _orderId) public returns(bool) {\n        if(msg.sender != owner && msg.sender != admin){ \n            emit LogError(RScorr.PermissionDenied);\n            return false;\n        } // 检查管理员权限\n\n        if(store_[_orderId].time == 0){ \n            emit LogError(RScorr.ObjNotExist);\n            return false;\n        } // 检查资源是否存在\n\n        delete store_[_orderId];\n        \n        emit LogRemoveOrder(_orderId);\n\n        return true;\n    }\n\n\n\n    // function delete() public returns(bool){}\n\n    // function update() public returns(bool){}\n\n    // function find() public returns(bool){}\n\n\n    /////////////////////////\n    /// View\n    /////////////////////////\n\n    /**\n     * @dev 判断订单是否存在\n     * @param _orderId bytes32 : 订单id\n     * @return         bool    : 存在返回true, 不存在返回false\n     */\n    function isExist(bytes32 _orderId) view public returns(bool){\n        if (store_[_orderId].time != 0) {\n            return false;\n        }\n        return true;\n    }\n\n    /**\n     * @dev 获取订单的详细信息\n     * @param _orderId bytes32  : 订单ID\n     * @return                  : 订单的详细信息\n     *         time             ：创建时间\n     *         price            : 定价\n     *         cost             : 实际花费\n     *         customer         : 顾客\n     *         payer            : 支付地址\n     *         claimId          : 商品ID（ClaimID）\n     */\n    function getOrderInfoByID(bytes32 _orderId) view public returns(\n        uint256 time,     uint256 price,  uint256 cost,\n        address customer, address payer,  bytes16 claimId)\n    {\n        if (store_[_orderId].time == 0){\n            return (0, 0, 0, 0, 0, 0);\n        }\n\n        return(\n            store_[_orderId].time,\n            store_[_orderId].price,\n            store_[_orderId].cost,\n            store_[_orderId].customer,\n            store_[_orderId].payer,\n            store_[_orderId].claimId\n        );\n    }\n}\n\n\n\n",
  "sourcePath": "E:\\sol\\blog\\contracts\\OrderDB.sol",
  "compiler": {
    "name": "solc",
    "version": "0.4.24+commit.e67f0147.Emscripten.clang"
  },
  "schemaVersion": "2.0.1",
  "updatedAt": "2018-08-27T09:46:48.211Z"
}