{
  "contractName": "UserModule",
  "abi": [
    {
      "constant": true,
      "inputs": [],
      "name": "Center_",
      "outputs": [
        {
          "name": "",
          "type": "address"
        }
      ],
      "payable": false,
      "stateMutability": "view",
      "type": "function"
    },
    {
      "constant": true,
      "inputs": [],
      "name": "Info_",
      "outputs": [
        {
          "name": "",
          "type": "address"
        }
      ],
      "payable": false,
      "stateMutability": "view",
      "type": "function"
    },
    {
      "inputs": [
        {
          "name": "_center",
          "type": "address"
        },
        {
          "name": "_info",
          "type": "address"
        }
      ],
      "payable": false,
      "stateMutability": "nonpayable",
      "type": "constructor"
    },
    {
      "constant": false,
      "inputs": [
        {
          "name": "_claimId",
          "type": "bytes16"
        }
      ],
      "name": "buy",
      "outputs": [
        {
          "name": "",
          "type": "bool"
        }
      ],
      "payable": true,
      "stateMutability": "payable",
      "type": "function"
    },
    {
      "constant": false,
      "inputs": [
        {
          "name": "_claimId",
          "type": "bytes16"
        },
        {
          "name": "_donee",
          "type": "address"
        }
      ],
      "name": "buyTo",
      "outputs": [
        {
          "name": "",
          "type": "bool"
        }
      ],
      "payable": true,
      "stateMutability": "payable",
      "type": "function"
    },
    {
      "constant": true,
      "inputs": [],
      "name": "myGoods",
      "outputs": [
        {
          "name": "",
          "type": "bytes16[]"
        }
      ],
      "payable": false,
      "stateMutability": "view",
      "type": "function"
    },
    {
      "constant": true,
      "inputs": [],
      "name": "myOrders",
      "outputs": [
        {
          "name": "",
          "type": "bytes32[]"
        }
      ],
      "payable": false,
      "stateMutability": "view",
      "type": "function"
    },
    {
      "constant": true,
      "inputs": [
        {
          "name": "_orderId",
          "type": "bytes32"
        }
      ],
      "name": "findOrderInfo",
      "outputs": [
        {
          "name": "time",
          "type": "uint256"
        },
        {
          "name": "price",
          "type": "uint256"
        },
        {
          "name": "cost",
          "type": "uint256"
        },
        {
          "name": "customer",
          "type": "address"
        },
        {
          "name": "payer",
          "type": "address"
        },
        {
          "name": "claimId",
          "type": "bytes16"
        }
      ],
      "payable": false,
      "stateMutability": "view",
      "type": "function"
    }
  ],
  "bytecode": "0x608060405234801561001057600080fd5b50604051604080610c788339810180604052810190808051906020019092919080519060200190929190505050816000806101000a81548173ffffffffffffffffffffffffffffffffffffffff021916908373ffffffffffffffffffffffffffffffffffffffff16021790555080600160006101000a81548173ffffffffffffffffffffffffffffffffffffffff021916908373ffffffffffffffffffffffffffffffffffffffff1602179055505050610ba9806100cf6000396000f300608060405260043610610083576000357c0100000000000000000000000000000000000000000000000000000000900463ffffffff168063105bc546146100885780632e090f28146100f4578063555ef0d41461014b57806355e41698146101a25780637a77b51f14610288578063f4959d06146102f3578063f8c467441461035f575b600080fd5b34801561009457600080fd5b5061009d6103aa565b6040518080602001828103825283818151815260200191508051906020019060200280838360005b838110156100e05780820151818401526020810190506100c5565b505050509050019250505060405180910390f35b34801561010057600080fd5b506101096104ff565b604051808273ffffffffffffffffffffffffffffffffffffffff1673ffffffffffffffffffffffffffffffffffffffff16815260200191505060405180910390f35b34801561015757600080fd5b50610160610524565b604051808273ffffffffffffffffffffffffffffffffffffffff1673ffffffffffffffffffffffffffffffffffffffff16815260200191505060405180910390f35b3480156101ae57600080fd5b506101d1600480360381019080803560001916906020019092919050505061054a565b604051808781526020018681526020018581526020018473ffffffffffffffffffffffffffffffffffffffff1673ffffffffffffffffffffffffffffffffffffffff1681526020018373ffffffffffffffffffffffffffffffffffffffff1673ffffffffffffffffffffffffffffffffffffffff168152602001826fffffffffffffffffffffffffffffffff19166fffffffffffffffffffffffffffffffff19168152602001965050505050505060405180910390f35b6102d960048036038101908080356fffffffffffffffffffffffffffffffff19169060200190929190803573ffffffffffffffffffffffffffffffffffffffff16906020019092919050505061066d565b604051808215151515815260200191505060405180910390f35b3480156102ff57600080fd5b50610308610683565b6040518080602001828103825283818151815260200191508051906020019060200280838360005b8381101561034b578082015181840152602081019050610330565b505050509050019250505060405180910390f35b61039060048036038101908080356fffffffffffffffffffffffffffffffff191690602001909291905050506107d8565b604051808215151515815260200191505060405180910390f35b6060600160009054906101000a900473ffffffffffffffffffffffffffffffffffffffff1673ffffffffffffffffffffffffffffffffffffffff166318f1c709336040518263ffffffff167c0100000000000000000000000000000000000000000000000000000000028152600401808273ffffffffffffffffffffffffffffffffffffffff1673ffffffffffffffffffffffffffffffffffffffff168152602001915050600060405180830381600087803b15801561046957600080fd5b505af115801561047d573d6000803e3d6000fd5b505050506040513d6000823e3d601f19601f8201168201806040525060208110156104a757600080fd5b8101908080516401000000008111156104bf57600080fd5b828101905060208101848111156104d557600080fd5b81518560208202830111640100000000821117156104f257600080fd5b5050929190505050905090565b6000809054906101000a900473ffffffffffffffffffffffffffffffffffffffff1681565b600160009054906101000a900473ffffffffffffffffffffffffffffffffffffffff1681565b6000806000806000806000809054906101000a900473ffffffffffffffffffffffffffffffffffffffff1673ffffffffffffffffffffffffffffffffffffffff1663024663f7886040518263ffffffff167c010000000000000000000000000000000000000000000000000000000002815260040180826000191660001916815260200191505060c060405180830381600087803b1580156105eb57600080fd5b505af11580156105ff573d6000803e3d6000fd5b505050506040513d60c081101561061557600080fd5b8101908080519060200190929190805190602001909291908051906020019092919080519060200190929190805190602001909291908051906020019092919050505095509550955095509550955091939550919395565b600061067b828433346107ed565b905092915050565b6060600160009054906101000a900473ffffffffffffffffffffffffffffffffffffffff1673ffffffffffffffffffffffffffffffffffffffff1663981274b1336040518263ffffffff167c0100000000000000000000000000000000000000000000000000000000028152600401808273ffffffffffffffffffffffffffffffffffffffff1673ffffffffffffffffffffffffffffffffffffffff168152602001915050600060405180830381600087803b15801561074257600080fd5b505af1158015610756573d6000803e3d6000fd5b505050506040513d6000823e3d601f19601f82011682018060405250602081101561078057600080fd5b81019080805164010000000081111561079857600080fd5b828101905060208101848111156107ae57600080fd5b81518560208202830111640100000000821117156107cb57600080fd5b5050929190505050905090565b60006107e6338333346107ed565b9050919050565b60008060008060009054906101000a900473ffffffffffffffffffffffffffffffffffffffff1673ffffffffffffffffffffffffffffffffffffffff166384e972eb876040518263ffffffff167c010000000000000000000000000000000000000000000000000000000002815260040180826fffffffffffffffffffffffffffffffff19166fffffffffffffffffffffffffffffffff191681526020019150506040805180830381600087803b1580156108a757600080fd5b505af11580156108bb573d6000803e3d6000fd5b505050506040513d60408110156108d157600080fd5b81019080805190602001909291908051906020019092919050505091509150600115156000809054906101000a900473ffffffffffffffffffffffffffffffffffffffff1673ffffffffffffffffffffffffffffffffffffffff1663f693db948989888a876040518663ffffffff167c0100000000000000000000000000000000000000000000000000000000028152600401808673ffffffffffffffffffffffffffffffffffffffff1673ffffffffffffffffffffffffffffffffffffffff168152602001856fffffffffffffffffffffffffffffffff19166fffffffffffffffffffffffffffffffff191681526020018481526020018373ffffffffffffffffffffffffffffffffffffffff1673ffffffffffffffffffffffffffffffffffffffff16815260200182815260200195505050505050602060405180830381600087803b158015610a2257600080fd5b505af1158015610a36573d6000803e3d6000fd5b505050506040513d6020811015610a4c57600080fd5b810190808051906020019092919050505015151415610b0e578173ffffffffffffffffffffffffffffffffffffffff166108fc829081150290604051600060405180830381858888f19350505050158015610aab573d6000803e3d6000fd5b508473ffffffffffffffffffffffffffffffffffffffff166108fc610ad98387610b6490919063ffffffff16565b9081150290604051600060405180830381858888f19350505050158015610b04573d6000803e3d6000fd5b5060019250610b5a565b8473ffffffffffffffffffffffffffffffffffffffff166108fc859081150290604051600060405180830381858888f19350505050158015610b54573d6000803e3d6000fd5b50600092505b5050949350505050565b6000828211151515610b7257fe5b8183039050929150505600a165627a7a723058206b669b6388159a8b6627c6678c50c2aa349b007225513ef0b5be0e7e784a83550029",
  "source": "pragma solidity ^0.4.24;\n\nimport \"./SafeMath.sol\";\nimport \"./CenterControl.sol\";\nimport \"./InfoDB.sol\";\n\ncontract UserModule{\n    using SafeMath for uint256;\n\n    CenterControl public Center_;\n    InfoDB public Info_;\n\n    /**\n     * @dev 构造函数\n     * @param _center address : 中心合约地址\n     * @param _info   address : 信息数据合约地址\n     */\n    constructor (address _center, address _info) public {\n        Center_ = CenterControl(_center);\n        Info_   = InfoDB(_info);\n    }\n\n    /**\n     * @dev 购买资源\n     * @param _claimId bytes16 : 资源id\n     * @return         bool    : 操作成功返回true\n     */\n    function buy(bytes16 _claimId)\n        public\n        payable\n        returns(bool)\n    {\n        return _buyCore(msg.sender, _claimId, msg.sender, msg.value);\n    }\n\n    /**\n     * @dev 购买资源赠送给指定地址\n     * @param _claimId bytes16 : 资源id\n     * @param _donee   address : 受赠地址\n     * @return         bool    : 操作成功返回true\n     */\n    function buyTo(bytes16 _claimId, address _donee)\n        public\n        payable\n        returns(bool)\n    {\n        return _buyCore(_donee, _claimId, msg.sender, msg.value);\n    }\n\n    function _buyCore(address _customer, bytes16 _cid, address _payer, uint256 _value)\n        internal\n        returns(bool)\n    {\n        (address _author,uint256 _price) = Center_.getGoodsInfo(_cid);\n\n        if (Center_.createOrder(_customer, _cid, _value, _payer, _price) == true){\n            _author.transfer(_price);\n            _payer.transfer(_value.sub(_price));\n            return true;\n        }else{\n            _payer.transfer(_value);\n            return false;\n        }\n    }\n\n\n    /////////////////////////\n    /// View\n    /////////////////////////\n\n    /**\n     * @dev 查询用户自己已经购买的资源\n     * @return claims bytes16[] : 由claimID组成的列表\n     */\n    function myGoods() view public returns(bytes16[])\n    {\n        return Info_.getClaimsByUser(msg.sender);\n    }\n\n    /**\n     * @dev 查询用户自己所有的订单\n     * @return claims bytes32[] : 由orderID组成的列表\n     */\n    function myOrders() view public returns(bytes32[])\n    {\n        return Info_.getOrdersByUser(msg.sender);\n    }\n\n    /**\n     * @dev 获取订单的详细信息\n     * @param _orderId bytes32  : 订单ID\n     * @return                  : 订单的详细信息\n     *         time     uint256 : 创建时间\n     *         price    uint256 : 定价\n     *         cost     uint256 : 实际花费\n     *         customer address : 顾客\n     *         payer    address : 支付地址\n     *         claimId  types16 : 商品ID（ClaimID）\n     */\n    function findOrderInfo(bytes32 _orderId) view public returns(\n        uint256 time,     uint256 price,  uint256 cost,\n        address customer, address payer,  bytes16 claimId)\n    {\n        return Center_.getOrderDetails(_orderId);\n    }\n\n\n\n    /////////////////////////\n    /// Internal Function\n    /////////////////////////\n\n    /**\n     * @dev 简单的检查一下HASH串的有效性\n     * @param _input string  : 待检测的字符串\n     * @return bool          : 检测通过返回true\n     */\n    function _hashFilter(string _input) pure internal returns(bool){\n        bytes memory _temp = bytes(_input);\n\n        // length == 46 , Qm~\n        if (_temp.length == 46 &&\n            _temp[0] == 0x51   &&\n            _temp[1] == 0x6D   ){\n            return true;\n        }\n        return false;\n    }\n\n}\n",
  "sourcePath": "E:\\sol\\blog\\contracts\\UserModule.sol",
  "compiler": {
    "name": "solc",
    "version": "0.4.24+commit.e67f0147.Emscripten.clang"
  },
  "schemaVersion": "2.0.1",
  "updatedAt": "2018-08-27T09:46:48.216Z"
}